S016000041717561536966745F56303031322E7372656378
S11300000C9498070C94C0070C94C0070C94C00778
S11300100C94C0070C94C0070C94C0070C94C00740
S11300200C94C0070C94C0070C94C0070C942108CE
S11300300C94C0070C94C0070C94C0070C94C00720
S11300400C94C0070C94C0070C94CB070C94C00705
S11300500C94C0070C94C0070C94C0070C94C00700
S11300600C94C0070C94C0074B0872080E09C10910
S1130070140A600A130B570B530CC00D110E7C0E9F
S11300801C0F8E0F7B108810BD11D1130B16E018B6
S11300909B35CB35ED357A397A397A397A397A39EB
S11300A07A39F7358B369836A236AC36B636C03642
S11300B0CA36D436DE36E836F236FC3627375237BF
S11300C05C379F37BC37D93700388938113926391E
S11300D0323970397A397A397A397A397A397A39D6
S11300E07A397A397A397A397A397A397A397A3974
S11300F07A397A397A397A397A397A397A397A3964
S11301007A397A397A397A397A397A397A397A3953
S11301108A357A397A3979357A397A397A397A393C
S11301207A397A397A3968357A397A397A397A3949
S11301307A397A397A395C357A397A397A397A3945
S11301407A397A397A397A397A397A397A397A3913
S11301508A357A397A3979357A397A397A397A39FC
S11301607A397A397A3968357A397A397A397A3909
S11301707A397A397A395C35546573742041626FFF
S1130180727465640D0067726964206F6E3B0D0DB7
S1130190007469746C652827526177204375727204
S11301A0656E742076732E2053616D706C657327B1
S11301B0293B0D00786C6162656C282753616D7072
S11301C06C657327293B0D00796C6162656C282787
S11301D043757272656E7428412927293B0D00709E
S11301E06C6F742870293B0D006669677572652809
S11301F033293B0D005D3B0D0D002E2E2E0D00739B
S11302005F6100703D5B00292A28332E332F343080
S11302103936292F7469615F72293B0D002D323004
S11302203437003D28286100735F61006772696498
S1130230206F6E3B0D007469746C652827446966F1
S1130240666572656E7469616C2050756C736527A0
S1130250293B0D00786C6162656C2827566F6C74BD
S11302607328562927293B0D00796C6162656C2837
S11302702743757272656E7428412927293B0D0046
S1130280706C6F74287A2C206970293B0D006669A4
S1130290677572652834293B0D0067726964206FA5
S11302A06E3B0D0D007469746C65282752617720CC
S11302B043757272656E742076732E2053616D706F
S11302C06C657327293B0D00786C6162656C282787
S11302D053616D706C657327293B0D00796C616205
S11302E0656C282743757272656E74284129272925
S11302F03B0D00706C6F742870293B0D00666967B4
S11303007572652833293B0D005D3B0D0D002E2EC3
S11303102E0D00735F706C00735F707200703D5B34
S1130320006469665F76693B0D6A3D6A2B313B0D5B
S1130330656E640D0D003D6469665F76650D7A280F
S11303406A293D692F313030303B0D693D690069C0
S11303503D6469665F76733B0D6A3D313B0D0D77F5
S113036068696C652069005D3B0D0D002929292C05
S11303702E2E2E0D00292D64773A313A6C656E6766
S1130380746828735F707200286C656E67746828DF
S1130390735F7072002929292D2E2E2E0D6D656133
S11303A06E28735F707200292D64773A313A6C6558
S11303B06E67746828735F706C00286C656E677470
S11303C06828735F706C006D65616E28735F706C74
S11303D0000D69703D5B000D6477203D2064696603
S11303E05F77696E2D313B0D00292A28332E332F78
S11303F034303936292F7469615F72293B0D002D21
S113040032303437003D2828706C00735F706C0004
S1130410292A28332E332F34303936292F74696131
S11304205F72293B0D002D32303437003D2828708F
S11304307200735F70720067726964206F6E3B0DA7
S11304400D0027290D004379636C65732900200092
S11304502028004C696E65617220537765657000D1
S11304604379636C696320007469746C65282700A0
S1130470786C6162656C2827566F6C7473285629F2
S113048027293B0D00796C6162656C2827437572DE
S113049072656E7428412927293B0D00293B0D0004
S11304A02E2E2E0D00735F756100706C6F74280022
S11304B06669677572652833293B0D00293B0D0079
S11304C03D666C69706C7228735F756100735F754B
S11304D0610029293B0D002C6C656E6774682873D4
S11304E05F75610073776565705F76732F313030A7
S11304F0302C73776565705F76652F31303030004E
S11305003D6C696E73706163652800292A28332E57
S1130510332F34303936292F7469615F72293B0DCA
S1130520002D32303437003D28287300735F756125
S11305300067726964206F6E3B0D0D007469746C02
S113054065282751756965742054696D6520536564
S11305507175656E636527293B0D00786C61626572
S11305606C282754696D652028732927293B0D00C1
S1130570796C6162656C282743757272656E7428A4
S1130580412927293B0D00706C6F742874712C71FC
S11305905F7561293B0D00666967757265283229AC
S11305A03B0D0074713D6C696E7370616365283135
S11305B02C71756965745F742F313030302C6C6523
S11305C06E67746828715F756129293B0D00715F3E
S11305D075613D2828712D32303437292A28332E6D
S11305E0332F34303936292F7469615F72293B0DFA
S11305F00067726964206F6E3B0D0D007469746C42
S11306006528274465706F736974696F6E2053653C
S11306107175656E636527293B0D00786C616265B1
S11306206C282754696D652028732927293B0D0000
S1130630796C6162656C282743757272656E7428E3
S1130640412927293B0D00706C6F742874642C6455
S11306505F7561293B0D00666967757265283129EC
S11306603B0D0074643D6C696E7370616365283181
S11306702C6465705F742F313030302C6C656E677C
S1130680746828645F756129293B0D00645F756196
S11306903D2828642D32303437292A28332E332F2D
S11306A034303936292F7469615F72293B0D002E6D
S11306B02E2E0D005D3B0D0D003D5B0061003D5B8A
S11306C00061005D3B0D0D003D5B0061005D3B0D75
S11306D00D002E2E2E0D005D3B0D0D003D5B0061C7
S11306E0005D3B0D0D002E2E2E0D003D5B00706C49
S11306F0005D3B0D0D002E2E2E0D003D5B00707233
S1130700003D5B005D3B0D0D002E2E2E0D003D5B6C
S1130710005D3B0D0D002E2E2E0D00713D5B005D26
S11307203B0D0D002E2E2E0D00643D5B00456E74B6
S11307307279204F7574206F662052616E67650D63
S1130740004D656D6F72792046756C6C0D00456EB9
S11307507472792053746172746D5620456E646DA1
S11307605620526174650D004D656D6F7279204598
S11307706D7074790D005769647468203E2050755B
S11307806C736520005769647468203E205072655C
S11307902D70756C7365200050756C7365203C205A
S11307A0576964746820005072652D70756C7365A8
S11307B0203C2057696474682000456E642B416DA9
S11307C070204C6F772000456E642B416D7020487B
S11307D0696768200053746172742B416D70204CFA
S11307E06F77200053746172742B416D70204869D7
S11307F067682000456E642B416D70204C6F772034
S113080000456E642B416D70204869676820005371
S1130810746172742B416D70204C6F772000537497
S11308206172742B416D7020486967682000373A03
S113083020323030487A0D0D0D0D0D0D0D0D0D0DBE
S11308400D0D0D00363A20313530487A0D00353A19
S113085020313030487A0D00343A20203530487A3F
S11308600D00333A20203130487A0D00323A2020EE
S11308702035487A0D00313A20202031487A0D0085
S1130880303A204E6F2046696C7465720D004375D2
S1130890746F6666204672657175656E63790D00C6
S11308A033342E2053656C65637465642046696C2B
S11308B0746572002D2D2D4C4F572D5041535320EC
S11308C046494C544552204D454E552D2D2D0D0075
S11308D00D0D0D0D0D0D0D0D0D0D0D0D0020746F75
S11308E020000D526174656D562F733A20002074F8
S11308F06F20000D456E646D563A20202000207450
S11309006F20000D0D53746172746D563A200029E6
S11309103A20004E756D626572206F662053746FC5
S113092072656420456E7472696573202855702061
S1130930746F20000D0033332E20476574205374E8
S11309406F7265642056616C7565730D0033322EC9
S11309502044656C65746520416C6C20456E74722E
S11309606965730D0033312E2044656C6574652010
S11309704C61737420456E7472790D0033302E20EF
S11309805265706C61636520456E747279202845E8
S11309906E747279232053746172746D562053748B
S11309A06F706D5620526174656D562F73290D005A
S11309B032392E20417070656E6420456E747279F0
S11309C0202853746172746D562053746F706D5681
S11309D020526174656D562F73290D002D2D2D4104
S11309E052424954524152592057415645464F525A
S11309F04D204D454E552D2D2D0D000D0D0D0D0D7C
S1130A000D0D0D0D0D0D0D0D0D0D0D0032382E209B
S1130A1053616D706C696E672057696E646F7720DF
S1130A205769647468206D730032372E2050756CDA
S1130A3073652054696D65206D730032362E205025
S1130A4072652D70756C73652054696D65206D73C6
S1130A500032352E2050756C736520566F6C7461AE
S1130A606765206D560032342E20496E6372656DC1
S1130A70656E74206D560032332E20456E64205608
S1130A806F6C74616765206D560032322E2053748A
S1130A9061727420566F6C74616765206D56002D09
S1130AA02D2D444946464552454E5449414C20500B
S1130AB0554C5345204D454E552D2D2D0D000D0DF6
S1130AC00D0D0D0D0D0D0D0D0D0D0D0D0D0D0D0D52
S1130AD00032312E204E756D626572206F662043A0
S1130AE079636C65730032302E204379636C6963DB
S1130AF02028592F4E293A200031392E205377656A
S1130B0065702052617465206D562F730031382E44
S1130B1020456E6420566F6C74616765206D5600C5
S1130B2031372E20537461727420566F6C74616770
S1130B3065206D56002D2D2D4C494E4541522053B4
S1130B4057454550204D454E552D2D2D0D000D0D6D
S1130B500D0D0D0D0D0D0D0D0D0D0D0D0D0D0D00CE
S1130B6031362E205265636F7264204465706F7352
S1130B706974696F6E2053657175656E63652028AD
S1130B80592F4E293A200031352E2051756965744C
S1130B902054696D65206D730031342E20446570D6
S1130BA06F736974696F6E20566F6C74616765202A
S1130BB06D560031332E204465706F736974696F0C
S1130BC06E2054696D65206D730031322E20456EA0
S1130BD061626C65204465706F736974696F6E201F
S1130BE028592F4E293A20002D2D2D4445504F537E
S1130BF04954494F4E204D454E552D2D2D0D00364F
S1130C002E203130306B0D0D0D0D0D0D0D0D0D0D14
S1130C100D0D0D0D0D0D00352E2035316B0D0034ED
S1130C202E2031306B0D00332E20352E316B0D000C
S1130C30322E20316B0D00312E203130300D003139
S1130C40312E20544941204761696E2052657369F1
S1130C5073746F7220002D2D2D544941204D454E43
S1130C60552D2D2D0D00582041626F72742054654E
S1130C7073740D0D0D0D0D004120537461727420B9
S1130C804172626974726172792057617665666F28
S1130C90726D20546573740D004420537461727432
S1130CA020446966666572656E7469616C2050756E
S1130CB06C736520546573740D000D4C205374617E
S1130CC07274204C696E656172205377656570207B
S1130CD0546573740D0050726F64756374204944D5
S1130CE03A20004669726D776172652052657669B3
S1130CF073696F6E3A200031302E2047657420539B
S1130D00657474696E67730D0D00392E20204C6F65
S1130D10772D706173732046696C746572204D651C
S1130D206E750D00382E20204172626974726172F2
S1130D30792057617665666F726D204D656E750D0D
S1130D4000372E2020446966666572656E74696199
S1130D506C2050756C7365204D656E750D00362ED4
S1130D6020204C696E656172205377656570204D53
S1130D70656E750D00352E20204465706F7369749F
S1130D80696F6E204D656E750D00342E20205472EF
S1130D90616E73696D706564616E636520416D7029
S1130DA06C6966696572204D656E750D00332E2081
S1130DB0204F75747075742053616D706C65204993
S1130DC06E74657276616C206D7300322E20204E35
S1130DD0756D626572206F6620456C656374726F11
S1130DE0646573202832206F722033293A20003141
S1130DF02E20205472616E736D697373696F6E2057
S1130E004D6F646520284129534349492C20284DBE
S1130E102961744C61622C20284229696E617279BF
S1130E203A20002D2D2D4D41494E204D454E552D36
S1130E302D2D0D004F4B0D004552520D0066616C77
S1130E407365007472756500293A200020746F2060
S1130E5000202800293A200020746F200020280058
S1130E6066696C745F733D006172625F6E3D00641D
S1130E7069665F77696E3D006469665F74706C3D96
S1130E80006469665F7470723D006469665F7670C1
S1130E906C3D006469665F76693D006469665F76EF
S1130EA0653D006469665F76733D007377656570C0
S1130EB05F63733D0073776565705F633D007377AF
S1130EC06565705F723D0073776565705F76653D3B
S1130ED00073776565705F76733D006465705F725B
S1130EE03D0071756965745F743D006465705F767B
S1130EF03D006465705F743D006465705F653D002E
S1130F007469615F723D006164635F723D006E7578
S1130F106D5F653D00273B0D0074785F6D3D2700D4
S1130F204F4B2E204F534343414C203D2000A119E9
S1130F3011241FBECFEFD8E0DEBFCDBF11E0A0E08B
S1130F40B1E0E4ECF8E702C005900D92A032B107DD
S1130F50D9F721E0A0E2B1E001C01D92A03AB207A6
S1130F60E1F71FE0C0E3DFE004C02297FE010E9426
S1130F70243CCE32D107C9F70E94C2070C94603CCE
S1130F800C94000083E591E00E94622283E591E0E5
S1130F900E94F21CFFCF1F920F920FB60F921124E2
S1130FA02F933F934F935F936F937F938F939F936D
S1130FB0AF93BF93CF93EF93FF93C091C60083E5A4
S1130FC091E00E94EE198230B1F483E591E00E9431
S1130FD0631B811107C081E080937E018C2F0E94E6
S1130FE026351DC0CF7DC835D1F463E183E591E09A
S1130FF00E945F1B14C083E591E00E94631B811172
S113100006C063E571E08C2F0E940C2D08C0CF7DD3
S1131010C83529F463E183E591E00E945F1BFF91E9
S1131020EF91CF91BF91AF919F918F917F916F91EC
S11310305F914F913F912F910F900FBE0F901F9092
S113104018951F920F920FB60F9211248F929F92B0
S1131050AF92BF92CF92DF92EF92FF922F933F9382
S11310604F935F936F937F938F939F93AF93BF93AC
S1131070CF93DF93EF93FF9383E591E00E94631B8B
S113108090E08431910510F00C94FA18FC01EC5CAA
S1131090FF4F0C94223C10927F0110928001109219
S11310A081011092820110924F011092500110920E
S11310B051011092520180917E019FEF980F96305A
S11310C018F48F5F80937E0180917E01863010F446
S11310D00C94861910927E0183E591E00E943F35BD
S11310E00C94861910924F011092500110925101E4
S11310F0109252010E94AA1C83E591E00E94EE190D
S1131100813021F483E591E00E941E2783E591E07C
S11311100E941F1A882309F460C083E591E00E94AD
S11311206E1A882359F083E591E00E94EE1981300C
S113113029F489E297E00E945A1C24C083E591E0D7
S11311400E946E1A882371F083E591E00E94EE19E3
S1131150811108C080E090E80E9464218CE20E9422
S1131160021C10C083E591E00E946E1A882351F09E
S113117083E591E00E94EE19823021F480E090E84A
S11311800E940A1C83E591E00E94501A28EE33E085
S1131190DC010E94373C0E948C3A2FE73AE649E48E
S11311A054E40E94F13920E030EE4FEF54E40E9401
S11311B089390E94593A60934B0170934C01809392
S11311C04D0190934E01CB010E94531D62E083E5D3
S11311D091E00E945F1B0C94861983E591E00E94C4
S11311E06A1B811107C067E083E591E00E945F1BE1
S11311F00C94861983E591E00E946A1B813039F4CE
S113120069E083E591E00E945F1B0C9486196FE00E
S113121083E591E00E945F1B0C94861983E591E0BD
S11312200E94391AC0907F01D0908001E090810122
S1131230F0908201C616D706E806F90608F09AC0AF
S113124083E591E00E945C1B882359F00E94601D95
S113125063E571E00E94361E90934A018093490130
S113126006C00E94601D90934A0180934901C0907A
S11312707F01D0908001E0908101F090820183E5AC
S113128091E00E94081A9C0140E050E0C701B601B9
S11312900E94003C672B682B692B09F056C083E53C
S11312A091E00E946E1A882309F44FC083E591E00F
S11312B00E94EE19813099F58091490190914A017B
S11312C00E9464218CE20E94021C80914F01909143
S11312D05001A0915101B0915201BC01CD016F5F49
S11312E07F4F8F4F9F4F60934F01709350018093B6
S11312F0510190935201611571058105910529F100
S11313002AE030E040E050E00E94003C672B682B6C
S1131310692BD9F484E297E00E945A1C16C083E535
S113132091E00E94EE1981110AC0809149019091C7
S11313304A010E9464218CE20E94021C06C0809132
S1131340490190914A010E940A1C80917F01909169
S11313508001A0918101B09182010196A11DB11D6E
S113136080937F0190938001A0938101B0938201C7
S11313700C94861963E083E591E00E945F1B0C9452
S1131380861983E591E00E946E1A8823E9F083E5CB
S113139091E00E94EE19813029F48FE197E00E94D8
S11313A05A1C12C083E591E00E94EE19811108C015
S11313B080E09FEF0E9464218CE20E94021C04C022
S11313C080E09FEF0E940A1C83E591E00E94641A6A
S11313D0672B682B692B39F064E083E591E00E9468
S11313E05F1B0C94861983E591E00E946A1B8111AE
S11313F007C067E083E591E00E945F1B0C948619A7
S113140083E591E00E946A1B813039F469E083E549
S113141091E00E945F1B0C9486196FE083E591E0D4
S11314200E945F1B0C94861910924F011092500178
S1131430109251011092520110927F01109280017A
S1131440109281011092820183E591E00E946E1A4C
S1131450882359F083E591E00E94EE19813029F444
S11314608BE197E00E945A1C24C083E591E00E941E
S11314706E1A882371F083E591E00E94EE198111C0
S113148008C080E091E80E9464218CE20E94021C62
S113149010C083E591E00E946E1A882351F083E521
S11314A091E00E94EE19823021F480E091E80E94DC
S11314B00A1C65E083E591E00E945F1B0C94861989
S11314C083E591E00E94641AC0907F01D09080016E
S11314D0E0908101F0908201C616D706E806F9066D
S11314E008F09AC083E591E00E945C1B882359F0C0
S11314F00E94601D63E571E00E94361E90934A01CC
S11315008093490106C00E94601D90934A01809314
S11315104901C0907F01D0908001E0908101F0905A
S1131520820183E591E00E94081A9C0140E050E0AA
S1131530C701B6010E94003C672B682B692B09F098
S113154056C083E591E00E946E1A882309F44FC0C7
S113155083E591E00E94EE19813099F5809149016B
S113156090914A010E9464218CE20E94021C8091A5
S11315704F0190915001A0915101B0915201BC01D1
S1131580CD016F5F7F4F8F4F9F4F60934F017093DB
S113159050018093510190935201611571058105A9
S11315A0910529F12AE030E040E050E00E94003C3F
S11315B0672B682B692BD9F486E197E00E945A1CAB
S11315C016C083E591E00E94EE1981110AC0809152
S11315D0490190914A010E9464218CE20E94021CFC
S11315E006C08091490190914A010E940A1C809191
S11315F07F0190918001A0918101B09182010196B7
S1131600A11DB11D80937F0190938001A09381015E
S1131610B09382010C94861966E083E591E00E9400
S11316205F1B0C94861983E591E00E946E1A88234F
S1131630E9F083E591E00E94EE19813029F481E11B
S113164097E00E945A1C12C083E591E00E94EE19B3
S1131650811108C080E09FEF0E9464218CE20E9407
S1131660021C04C080E09FEF0E940A1C83E591E005
S11316700E946A1B811107C067E083E591E00E9424
S11316805F1B0C94861983E591E00E946A1B8130EC
S113169039F469E083E591E00E945F1B0C9486199C
S11316A06FE083E591E00E945F1B0C94861981E052
S11316B08093480110924F011092500110925101F1
S11316C01092520110927F011092800110928101B8
S11316D01092820183E591E00E94C21A880F8093E0
S11316E0470183E591E00E94821ABC01882777FDB7
S11316F08095982F0E948C3A20E030E04AE754E429
S11317000E94403B2FE73AE649E454E40E94F13951
S113171020E030EE4FEF54E40E9489396093430196
S113172070934401809345019093460183E591E0D1
S11317300E94971ABC01882777FD8095982F0E94F4
S11317408C3A20E030E04AE754E40E94403B2FE723
S11317503AE649E454E40E94F13920E030EE4FEFD8
S113176054E40E94893960933F017093400180934F
S113177041019093420183E591E00E94821AEC01B9
S113178083E591E00E94971A8C179D0724F48FEF4C
S113179080933E0103C081E080933E0183E591E0A4
S11317A00E94AB1ABC0180E090E00E948A3A6B016F
S11317B07C0160913E01772767FD7095872F972FF5
S11317C00E948C3A9B01AC01C701B6010E94403BC8
S11317D02FE73AE649E454E40E94F13960933A0170
S11317E070933B0180933C0190933D0180914301B0
S11317F090914401A0914501B09146018093360136
S113180090933701A0933801B093390181E080931C
S113181035010E94AA1C60913601709137018091B4
S11318203801909139010E94A33B0E945E3ACB019A
S11318300E94531D83E591E00E94EE19813069F402
S113184083E70E94021C8091480190E00E94642179
S11318508EE097E00E945A1C1FC083E591E00E942D
S1131860EE19811110C080E092E80E9464218CE29C
S11318700E94021C8091480190E00E9464218CE245
S11318800E94021C09C080E092E80E940A1C809118
S1131890480190E00E940A1C68E083E591E00E9400
S11318A05F1B0C9486196091360170913701809109
S11318B03801909139010E94A33B0E945E3ACB010A
S11318C00E94531D20913A0130913B0140913C010B
S11318D050913D016091360170913701809138013A
S11318E0909139010E9489396093360170933701D0
S11318F080933801909339018091350181117EC024
S113190083E591E00E945C1B882359F00E94601DCE
S113191063E571E00E94361E90934A018093490169
S113192006C00E94601D90934A0180934901C090B3
S11319307F01D0908001E0908101F090820183E5E5
S113194091E00E94081A9C0140E050E0C701B601F2
S11319500E94003C672B682B692B09F04FC083E57C
S113196091E00E94EE19813099F58091490190919E
S11319704A010E9464218CE20E94021C80914F0162
S113198090915001A0915101B0915201BC01CD013F
S11319906F5F7F4F8F4F9F4F60934F017093500144
S11319A08093510190935201611571058105910550
S11319B029F12AE030E040E050E00E94003C672B2F
S11319C0682B692BD9F489E097E00E945A1C16C051
S11319D083E591E00E94EE1981110AC080914901CA
S11319E090914A010E9464218CE20E94021C06C06C
S11319F08091490190914A010E940A1C80917F01C3
S1131A0090918001A0918101B09182010196A11D64
S1131A10B11D80937F0190938001A0938101B093C5
S1131A20820110923501C0913E011C16B4F420913C
S1131A303F01309140014091410150914201609138
S1131A4036017091370180913801909139010E94DB
S1131A50ED39181614F00C948619CC23B4F42091A3
S1131A603F01309140014091410150914201609108
S1131A7036017091370180913801909139010E94AB
S1131A803C3B882314F00C94861983E591E00E9472
S1131A90EE19813029F484E097E00E945A1C12C0A8
S1131AA083E591E00E94EE19811108C080E09FEF68
S1131AB00E9464218CE20E94021C04C080E09FEF1B
S1131AC00E940A1C10924F01109250011092510171
S1131AD010925201809148018F5F8093480183E501
S1131AE091E00E94B31A882311F40C940619909182
S1131AF0480180914701891710F00C9415190C9432
S1131B00061983E70E94021C8091480190E00E941C
S1131B10642181E097E00E945A1C0C94861983E5A5
S1131B2091E00E94EE19811111C080E092E80E94B8
S1131B3064218CE20E94021C8091480190E00E9482
S1131B4064218CE20E94021C0C94861980E092E8C5
S1131B500E940A1C8091480190E00E940A1C0C9487
S1131B608619809147018093300103C081E08093FE
S1131B70300162E183E591E00E945F1B0C948619B9
S1131B8081E08093480183E591E00E94D61ABC016C
S1131B90882777FD8095982F0E948C3A60934301A3
S1131BA070934401809345019093460183E591E04D
S1131BB00E94EB1ABC01882777FD8095982F0E941C
S1131BC08C3A6B017C0160933F01709340018093D8
S1131BD04101909342018090430190904401A09070
S1131BE04501B0904601C501B4010E94593A709371
S1131BF02F0160932E01A5019401C701B6010E9433
S1131C00ED39882324F48FEF80933E0103C081E0F3
S1131C1080933E016AE083E591E00E945F1B0C948F
S1131C20861960912E0170912F01882777FD809588
S1131C30982F0E948C3A20E030E04AE754E40E9456
S1131C40403B2FE73AE649E454E40E94F13920E0AE
S1131C5030EE4FEF54E40E9489390E94A33B0E9466
S1131C605E3ACB010E94531D10924F011092500115
S1131C70109251011092520110927F011092800132
S1131C80109281011092820183E591E00E94EE1985
S1131C90813071F48EEF96E00E945A1C80914801C5
S1131CA090E00E9464218BEF96E00E945A1C1FC0B2
S1131CB083E591E00E94EE19811110C080E094E860
S1131CC00E9464218CE20E94021C8091480190E0F1
S1131CD00E9464218CE20E94021C09C080E094E806
S1131CE00E940A1C8091480190E00E940A1C6BE04B
S1131CF083E591E00E945F1B0E94601D90934A015E
S1131D008093490183E591E00E94EE19813099F5B1
S1131D108091490190914A010E9464218CE20E94C1
S1131D20021C80914F0190915001A0915101B091FA
S1131D305201BC01CD016F5F7F4F8F4F9F4F609366
S1131D404F0170935001809351019093520161159A
S1131D5071058105910529F12AE030E040E050E069
S1131D600E94003C672B682B692BD9F486EF96E020
S1131D700E945A1C16C083E591E00E94EE1981115D
S1131D800AC08091490190914A010E9464218CE229
S1131D900E94021C06C08091490190914A010E9450
S1131DA00A1C83E591E00E94281B0197A0E0B0E0A3
S1131DB040917F0150918001609181017091820175
S1131DC0481759076A077B0710F16CE083E591E037
S1131DD00E945F1B83E591E00E94EE19813029F493
S1131DE081EF96E00E945A1C12C083E591E00E94A4
S1131DF0EE19811108C080E09FEF0E9464218CE2FB
S1131E000E94021C04C080E09FEF0E940A1C809183
S1131E107F0190918001A0918101B091820101968E
S1131E20A11DB11D80937F0190938001A093810136
S1131E30B09382010C94861983E591E00E94001B03
S1131E4060912E0170912F01860F971FBC01882786
S1131E5077FD8095982F0E948C3A20E030E04AE785
S1131E6054E40E94403B2FE73AE649E454E40E94DC
S1131E70F13920E030EE4FEF54E40E9489390E949A
S1131E80A33B0E945E3ACB010E94531D10924F0166
S1131E9010925001109251011092520110927F0140
S1131EA010928001109281011092820183E591E0E9
S1131EB00E94EE19813071F48EEE96E00E945A1C55
S1131EC08091480190E00E9464218BEE96E00E948C
S1131ED05A1C1FC083E591E00E94EE19811110C0C5
S1131EE080E095E80E9464218CE20E94021C8091AB
S1131EF0480190E00E9464218CE20E94021C09C007
S1131F0080E095E80E940A1C8091480190E00E94BC
S1131F100A1C6DE083E591E00E945F1B0E94601D36
S1131F2090934A018093490183E591E00E94EE1960
S1131F30813099F58091490190914A010E94642170
S1131F408CE20E94021C80914F0190915001A0915B
S1131F505101B0915201BC01CD016F5F7F4F8F4F92
S1131F609F4F60934F017093500180935101909360
S1131F705201611571058105910529F12AE030E0CE
S1131F8040E050E00E94003C672B682B692BD9F499
S1131F9086EE96E00E945A1C16C083E591E00E94EA
S1131FA0EE1981110AC08091490190914A010E9461
S1131FB064218CE20E94021C06C080914901909128
S1131FC04A010E940A1C83E591E00E943C1B019790
S1131FD0A0E0B0E040917F015091800160918101C7
S1131FE070918201481759076A077B0708F46EC08D
S1131FF083E591E00E94EE19813029F481EE96E0A8
S11320000E945A1C12C083E591E00E94EE198111CE
S113201008C080E09FEF0E9464218CE20E94021CB1
S113202004C080E09FEF0E940A1CC0913E01DD279E
S1132030C7FDD09583E591E00E94141B9C012C9F61
S1132040C0012D9F900D3C9F900D112420912E01D5
S113205030912F01820F931F90932F0180932E01B3
S113206080913E01181694F483E591E00E94EB1AE6
S113207020912E0130912F01821793073CF46EE0DA
S113208083E591E00E945F1B0C94861980913E01C8
S1132090882394F483E591E00E94EB1A20912E01A9
S11320A030912F01281739073CF46EE083E591E065
S11320B00E945F1B0C948619809148018F5F809366
S11320C048016AE083E591E00E945F1B80917F01F3
S11320D090918001A0918101B09182010196A11D8E
S11320E0B11D80937F0190938001A0938101B093EF
S11320F082010C9486190E94CE1C8FEF97E00E94F7
S1132100531D62E183E591E00E945F1B0C948619E4
S113211010924F01109250011092510110925201ED
S113212010927F011092800110928101109282011D
S113213010922A0110922B0110922C0110922D0161
S113214081E090E0909329018093280180934801D5
S11321501092350162ED7BEF81E090E00E94CE1D8C
S11321609093270180932601892B69F40E94CE1C49
S11321708FEF97E00E94531D62E183E591E00E9496
S11321805F1B0C94861920E231E042E251E064E2E4
S113219071E08AE291E00E94EE1D8090240190900B
S11321A02501A0902201B09023018A149B0451F5CB
S11321B080912A0190912B01A0912C01B0912D01C5
S11321C00697A109B10980932A0190932B01A0934A
S11321D02C01B0932D01109221011092200181E075
S11321E090E0A0E0B0E080937F0190938001A09301
S11321F08101B093820161E183E591E00E945F1B5C
S11322000C948619B401882777FD8095982F0E9435
S11322108C3A20E030E04AE754E40E94403B2FE748
S11322203AE649E454E40E94F13920E030EE4FEFFD
S113223054E40E9489396B017C01609343017093DB
S113224044018093450190934601B501882777FDA9
S11322508095982F0E948C3A20E030E04AE754E4BD
S11322600E94403B2FE73AE649E454E40E94F139E6
S113227020E030EE4FEF54E40E94893960933F012F
S1132280709340018093410190934201A814B904D2
S113229024F48FEF80933E0103C081E080933E01DC
S11322A0609120017091210180E090E00E948A3ABF
S11322B04B015C0160913E01772767FD7095872F84
S11322C0972F0E948C3A9B01AC01C501B4010E9476
S11322D0403B2FE73AE649E454E40E94F139609325
S11322E03A0170933B0180933C0190933D01C0926D
S11322F03601D0923701E0923801F092390160E161
S113230083E591E00E945F1B83E591E00E94EE1952
S1132310813071F48FED96E00E945A1C809148013F
S113232090E00E9464218CED96E00E945A1C1FC02C
S113233083E591E00E94EE19811110C080E096E8D7
S11323400E9464218CE20E94021C8091480190E06A
S11323500E9464218CE20E94021C09C080E096E87D
S11323600E940A1C8091480190E00E940A1C8091FE
S113237048018F5F80934801C9C76091360170910D
S1132380370180913801909139010E94A33B0E944A
S11323905E3ACB010E94531D809135018823F9F0E8
S11323A01092350183E591E00E94EE19813029F401
S11323B087ED96E00E945A1C12C083E591E00E94CA
S11323C0EE19811108C080E09FEF0E9464218CE225
S11323D00E94021C04C080E09FEF0E940A1C0E941D
S11323E0601D90934A018093490183E591E00E9426
S11323F0EE19813099F58091490190914A010E942A
S113240064218CE20E94021C80914F019091500142
S1132410A0915101B0915201BC01CD016F5F7F4F7A
S11324208F4F9F4F60934F017093500180935101E0
S113243090935201611571058105910529F12AE0F6
S113244030E040E050E00E94003C672B682B692B91
S1132450D9F482ED96E00E945A1C16C083E591E0FF
S11324600E94EE1981110AC08091490190914A019C
S11324700E9464218CE20E94021C06C080914901E2
S113248090914A010E940A1C20913A0130913B012B
S113249040913C0150913D016091360170913701AA
S11324A080913801909139010E9489396B017C0136
S11324B0609336017093370180933801909339010A
S11324C080917F0190918001A0918101B09182015E
S11324D00196A11DB11D80937F0190938001A0936B
S11324E08101B0938201C0913E011C167CF42091BD
S11324F03F01309140014091410150914201C70197
S1132500B6010E94ED3988230CF400C7CC237CF477
S113251020913F013091400140914101509142018D
S1132520C701B6010E943C3B18160CF4EFC680911B
S11325302801909129010196909329018093280103
S113254083E591E00E94EE19813029F48DEC96E048
S11325500E945A1C12C083E591E00E94EE19811179
S113256008C080E09FEF0E9464218CE20E94021C5C
S113257004C080E09FEF0E940A1C10924F01109249
S11325805001109251011092520120912801309172
S1132590290180912601909127018217930708F45D
S11325A0F4C020E231E042E251E064E271E08AE208
S11325B091E00E94EE1D8090240190902501A0904E
S11325C02201B09023018A149B0449F580912A01C9
S11325D090912B01A0912C01B0912D010697A10996
S11325E0B10980932A0190932B01A0932C01B093FD
S11325F02D01109221011092200181E090E0A0E0D1
S1132600B0E080937F0190938001A0938101B09307
S1132610820161E183E591E00E945F1B77C6B4010A
S1132620882777FD8095982F0E948C3A20E030E02F
S11326304AE754E40E94403B2FE73AE649E454E475
S11326400E94F13920E030EE4FEF54E40E948939C2
S11326506B017C01609343017093440180934501B5
S113266090934601B501882777FD8095982F0E94A5
S11326708C3A20E030E04AE754E40E94403B2FE7E4
S11326803AE649E454E40E94F13920E030EE4FEF99
S113269054E40E94893960933F0170934001809310
S11326A0410190934201A814B90424F48FEF80935C
S11326B03E0103C081E080933E016091200170914E
S11326C0210180E090E00E948A3A4B015C01609114
S11326D03E01772767FD7095872F972F0E948C3ACC
S11326E09B01AC01C501B4010E94403B2FE73AE6CF
S11326F049E454E40E94F13960933A0170933B0138
S113270080933C0190933D01C0923601D0923701F1
S1132710E0923801F092390183E591E00E94EE19CC
S1132720813071F48BEC96E00E945A1C8091480130
S113273090E00E94642188EC96E00E945A1C1FC01D
S113274083E591E00E94EE19811110C080E096E8C3
S11327500E9464218CE20E94021C8091480190E056
S11327600E9464218CE20E94021C09C080E096E869
S11327700E940A1C8091480190E00E940A1C8091EA
S113278048018F5F80934801C1C50E94CE1C8FEF22
S113279097E00E94531D62E183E591E00E945F1B74
S11327A0B5C5409120015091210160E070E0809115
S11327B07F0190918001A0918101B09182018417E1
S11327C09507A607B70708F4BDC110927F011092C0
S11327D08001109281011092820120912801309190
S11327E0290180912601909127018217930708F40B
S11327F074C120E231E042E251E064E271E08AE235
S113280091E00E94EE1D809135018823F9F0109229
S1132810350183E591E00E94EE19813029F483ECBF
S113282096E00E945A1C12C083E591E00E94EE19C2
S1132830811108C080E09FEF0E9464218CE20E9415
S1132840021C04C080E09FEF0E940A1CA090240197
S1132850B09025018090220190902301A814B9041E
S113286009F065C0B501882777FD8095982F0E94EF
S11328708C3A20E030E04AE754E40E94403B2FE7E2
S11328803AE649E454E40E94F13920E030EE4FEF97
S113289054E40E9489390E94A33B0E945E3ACB0112
S11328A00E94531D809128019091290101969093D3
S11328B029018093280181E08093350183E591E02B
S11328C00E94EE19813071F481EC96E00E945A1C4A
S11328D08091480190E00E9464218EEB96E00E9472
S11328E05A1C1FC083E591E00E94EE19811110C0AB
S11328F080E096E80E9464218CE20E94021C809190
S1132900480190E00E9464218CE20E94021C09C0EC
S113291080E096E80E940A1C8091480190E00E94A1
S11329200A1C809148018F5F809348010BC1B50157
S1132930882777FD8095982F0E948C3A20E030E01C
S11329404AE754E40E94403B2FE73AE649E454E462
S11329500E94F13920E030EE4FEF54E40E948939AF
S11329606B017C01609343017093440180934501A2
S113297090934601B401882777FD8095982F0E9493
S11329808C3A20E030E04AE754E40E94403B2FE7D1
S11329903AE649E454E40E94F13920E030EE4FEF86
S11329A054E40E94893960933F01709340018093FD
S11329B04101909342018A149B0424F48FEF809385
S11329C03E0103C081E080933E016091200170913B
S11329D0210180E090E00E948A3A4B015C01609101
S11329E03E01772767FD7095872F972F0E948C3AB9
S11329F09B01AC01C501B4010E94403B2FE73AE6BC
S1132A0049E454E40E94F13960933A0170933B0124
S1132A1080933C0190933D01C0923601D0923701DE
S1132A20E0923801F092390110924F011092500156
S1132A30109251011092520180917F019091800176
S1132A40A0918101B09182010196A11DB11D8093D5
S1132A507F0190938001A0938101B093820160E192
S1132A6083E591E00E945F1B83E591E00E94EE19EB
S1132A70813071F48CEB96E00E945A1C80914801DD
S1132A8090E00E94642189EB96E00E945A1C1FC0CA
S1132A9083E591E00E94EE19811110C080E096E870
S1132AA00E9464218CE20E94021C8091480190E003
S1132AB00E9464218CE20E94021C09C080E096E816
S1132AC00E940A1C8091480190E00E940A1C809197
S1132AD048018F5F8093480119C40E94AA1C0E9478
S1132AE0AA1C0E94AA1C0E94AA1C0E94AA1C0E9442
S1132AF0AA1C83E591E00E94EE19813029F484EB4D
S1132B0096E00E945A1C12C083E591E00E94EE19DF
S1132B10811108C080E09FEF0E9464218CE20E9432
S1132B20021C04C080E09FEF0E940A1C0E94CE1C7D
S1132B308FEF97E00E94531D62E183E591E00E94CC
S1132B405F1BE4C30E94601D90934A018093490176
S1132B5083E591E00E94EE19813099F58091490155
S1132B6090914A010E9464218CE20E94021C80918F
S1132B704F0190915001A0915101B0915201BC01BB
S1132B80CD016F5F7F4F8F4F9F4F60934F017093C5
S1132B905001809351019093520161157105810593
S1132BA0910529F12AE030E040E050E00E94003C29
S1132BB0672B682B692BD9F48FEA96E00E945A1C84
S1132BC016C083E591E00E94EE1981110AC080913C
S1132BD0490190914A010E9464218CE20E94021CE6
S1132BE006C08091490190914A010E940A1C80917B
S1132BF07F0190918001A0918101B09182010196A1
S1132C00A11DB11D80937F0190938001A093810148
S1132C10B09382017BC383E591E00E94EE19813079
S1132C2009F0B6C283E591E00E946E1A882331F15F
S1132C3083E591E00E941F1A882301F18CE896E055
S1132C400E945A1C83E696E00E945A1C87E596E08F
S1132C500E945A1C87E496E00E945A1C80E396E086
S1132C600E945A1C8BE196E00E945A1C8CEF95E05E
S1132C700E945A1C81EF95E00E945A1C83E591E062
S1132C800E946E1A882371F183E591E00E941F1A55
S1132C90882341F183E591E00E94641A672B682B35
S1132CA0692B01F18EEC95E00E945A1C83EA95E0B1
S1132CB00E945A1C87E995E00E945A1C87E895E017
S1132CC00E945A1C80E795E00E945A1C8BE595E00F
S1132CD00E945A1C8CE395E00E945A1C81E395E003
S1132CE00E945A1C83E591E00E946A1B8111D3C0A3
S1132CF080913001882309F44DC0C1E0D0E08CE21A
S1132D0095E00E945A1CCE010E94642187E295E05E
S1132D100E945A1CCE010E94642181E295E00E9427
S1132D205A1C8BE095E00E945A1C84E70E94021C06
S1132D30CE010E94642180E095E00E945A1C84EE3A
S1132D4094E00E945A1C87ED94E00E945A1CCE0124
S1132D500E94642182ED94E00E945A1CC0FD12C0BE
S1132D608DEC94E00E945A1CCE010E94642180ECF8
S1132D7094E00E945A1CCE010E9464218CEB94E0E2
S1132D800E945A1C21968091300190E08C179D0777
S1132D9008F0B5CF80EB94E00E945A1C8AEA94E0D4
S1132DA00E945A1C809130018823D9F1C1E0D0E0FF
S1132DB084E70E94021CCE010E9464218CE20E94DE
S1132DC0021C85EA94E00E945A1CCE010E946421F0
S1132DD08091300190E0C817D90718F48CE20E9462
S1132DE0021C2097B9F09E01ADECBCEC0E94283C7B
S1132DF096958795969587959C01220F331F220FF0
S1132E00331F820F931FC817D90721F480EA94E077
S1132E100E945A1C21968091300190E08C179D07E6
S1132E2038F68CE994E00E945A1C85E894E00E94EC
S1132E305A1C80E794E00E945A1C88E694E00E94A1
S1132E405A1C80913001823020F080E694E00E9488
S1132E505A1C83E594E00E945A1C80913001823010
S1132E6090F080E594E00E945A1C80913001869590
S1132E7090E00E9464218EE494E00E945A1C86E44F
S1132E8094E00E945A1C82E494E00E945A1C87E356
S1132E9094E00E945A1C83E591E00E946A1B8130F1
S1132EA009F006C1809148018823A9F1C1E0D0E06E
S1132EB082E394E00E945A1CCE010E9464218CE2B9
S1132EC094E00E945A1CCE010E94642186E294E0A0
S1132ED00E945A1C80E194E00E945A1C8BE094E00A
S1132EE00E945A1CCE010E94642185E094E00E9455
S1132EF05A1CCE010E9464218FEF93E00E945A1C59
S1132F0089EE93E00E945A1C21968091480190E03A
S1132F108C179D0768F687ED93E00E945A1C81ED9B
S1132F2093E00E945A1C809148018823B9F1C1E0C2
S1132F30D0E087EC93E00E945A1CCE010E946421E9
S1132F408AEB93E00E945A1CCE010E94642187EA16
S1132F5093E00E945A1CCE010E94642185E993E00B
S1132F600E945A1CCE010E94642188E893E00E94CA
S1132F705A1CCE010E94642185E793E00E945A1CEA
S1132F80CE010E9464218CE693E00E945A1C219693
S1132F908091480190E08C179D0758F687E693E0EE
S1132FA00E945A1C8FE493E00E945A1C80913E01B7
S1132FB0181624F48CE30E94021C03C08EE30E94C2
S1132FC0021C86E393E00E945A1C80913E0118166D
S1132FD024F48BE20E94021C03C08DE20E94021CB6
S1132FE081E293E00E945A1C8DE193E00E945A1CF6
S1132FF080914801882341F1C1E0D0E088E193E069
S11330000E945A1CCE010E9464218CE20E94021C80
S113301083E193E00E945A1CCE010E9464218CE259
S11330200E94021C209749F0CE0183709927892BB6
S113303021F48EE093E00E945A1C2196809148016D
S113304090E08C179D07D0F689E093E00E945A1C0B
S11330508DEF92E00E945A1C83EF92E00E945A1C6A
S11330608CED92E00E945A1C88EC92E00E945A1C5B
S113307085EA92E00E945A1C8AE992E00E945A1C56
S11330808EE892E00E945A1C80E892E00E945A1C4A
S113309089E692E00E945A1C84E592E00E945A1C40
S11330A086E392E00E945A1C8CE292E00E945A1C31
S11330B083E591E00E946A1B823009F07BC0809115
S11330C048018150809348018823F9F0C1E0D0E0A1
S11330D088E292E00E945A1CCE010E94642183E29D
S11330E092E00E945A1CCE010E9464218DE192E07C
S11330F00E945A1C87E092E00E945A1C21968091FB
S1133100480190E08C179D0718F783E092E00E9435
S11331105A1C809148018823F1F0C1E0D0E08FEF80
S113312091E00E945A1CCE010E9464218CE20E940C
S1133130021C209749F0CE0183709927892B21F432
S11331408AEF91E00E945A1C21968091480190E0F8
S11331508C179D0720F785EF91E00E945A1C89EE99
S113316091E00E945A1C8FED91E00E945A1C88EC59
S113317091E00E945A1C84EB91E00E945A1C81E960
S113318091E00E945A1C86E891E00E945A1C12C0E9
S113319083E591E00E94EE19811108C080EF9FEF52
S11331A00E9464218DE00E94021C04C080EF9FEF06
S11331B00E940A1C60E083E591E00E945F1BA6C0A8
S11331C083E591E00E94EE19813029F488E791E0CB
S11331D00E945A1C0FC083E591E00E94EE198111F0
S11331E005C080E090EF0E94642104C080E090EF6D
S11331F00E940A1C0E94CE1C8FEF97E00E94531D70
S113320060E083E591E00E945F1B80C00E94CE1CB9
S11332108FEF97E00E94531D83E591E00E94B31A5B
S113322081110C94B10D0C94B60D80913E018195E1
S113323080933E018091430190914401A091450106
S1133240B09146018093310190933201A0933301F0
S1133250B093340140913F0150914001609141018C
S1133260709142014093430150934401609345019E
S11332707093460180933F0190934001A0934101D4
S1133280B093420183E591E00E94AB1ABC0180E057
S113329090E00E948A3A6B017C0160913E0177279D
S11332A067FD7095872F972F0E948C3A9B01AC0184
S11332B0C701B6010E94403B2FE73AE649E454E4D3
S11332C00E94F13960933A0170933B0180933C0171
S11332D090933D0120914301309144014091450177
S11332E0509146010E9489396093360170933701E9
S11332F0809338019093390183E591E00E94EE199F
S1133300813011F00C948F0D0C94810DFF91EF918D
S1133310DF91CF91BF91AF919F918F917F916F91E9
S11333205F914F913F912F91FF90EF90DF90CF905D
S1133330BF90AF909F908F900F900FBE0F901F90F3
S1133340189583E591E00E94A6190895FC0121E0F7
S11333502083218382E090E09383828384E08483CA
S1133360258340E65AEE60E070E046835783608729
S113337071878CE09EEF9387828714861586168664
S11333801786208B928B818B24EF31E0348B238B37
S11333904AE050E0568B458B178A45E0408F928F68
S11333A0818F348F238F82E390E0968F858F84E61C
S11333B090E090A3878F86E990E092A381A384E1B3
S11333C090E094A383A381E090E096A385A310A644
S11333D011A60895FC01608380E00895FC018081BA
S11333E00895FC01618380E00895FC0181810895C2
S11333F0693E23E0720740F46115710539F0FC0160
S11334007383628380E0089582E0089581E00895E3
S1133410FC01828193810895673030F4662331F092
S1133420FC01648380E0089582E0089581E00895BA
S1133430FC0184810895FC01658380E00895FC010A
S113344085810895413025E352072CE06207710518
S113345060F4411551056105710549F0FC0146838D
S113346057836087718780E0089582E0089581E042
S11334700895FC016681778180859185089563377D
S113348026E072074CF46E38E9EF7E073CF0FC014D
S11334907387628780E0089582E0089581E008954B
S11334A0FC01828593850895413025E352072CE081
S11334B06207710538F4FC0144875587668777876E
S11334C080E0089582E00895FC0164857585868511
S11334D097850895FC01608B80E00895FC01808944
S11334E00895633726E072074CF46E38E9EF7E07DF
S11334F03CF0FC01728B618B80E0089582E00895BA
S113350081E00895FC01818992890895633726E05A
S113351072074CF46E38E9EF7E073CF0FC01748BC3
S1133520638B80E0089582E0089581E00895FC01B2
S1133530838994890895613A2FE0720740F46115F4
S1133540710539F0FC01768B658B80E0089582E08B
S1133550089581E00895FC01858996890895FC0108
S1133560678B80E00895FC0187890895653630F4FF
S1133570662331F0FC01608F80E0089582E00895B5
S113358081E00895FC01808D0895633726E0720779
S11335904CF46E38E9EF7E073CF0FC01728F618FCA
S11335A080E0089582E0089581E00895FC01818D12
S11335B0928D0895633726E072074CF46E38E9EF74
S11335C07E073CF0FC01748F638F80E0089582E0F5
S11335D0089581E00895FC01838D948D08956337E7
S11335E026E072074CF46E38E9EF7E073CF0FC01EC
S11335F070A3678F80E0089582E0089581E00895C4
S1133600FC01878D90A10895633726E0720740F48A
S11336106115710539F0FC01768F658F80E008959E
S113362082E0089581E00895FC01858D968D0895CA
S1133630613127E2720740F46115710539F0FC012C
S113364072A361A380E0089582E0089581E0089563
S1133650FC0181A192A10895613127E2720740F42F
S11336606115710539F0FC0174A363A380E008952A
S113367082E0089581E00895FC0183A194A1089556
S1133680613127E2720740F46115710539F0FC01DC
S113369076A365A380E0089582E0089581E008950B
S11336A0FC0185A196A10895683020F4FC0160A76F
S11336B080E0089582E00895FC0180A50895FC014E
S11336C061A780E00895FC0181A50895FC0162A72B
S11336D080E00895FC0182A50895239A259A229AF0
S11336E081E58CBD2B9A2C9A08958EBD0DB407FEEE
S11336F0FDCF08958FEF8EBD0DB407FEFDCF8EB5BF
S11337000895ECEBF0E0108282E08093B800109210
S1133710B90084E48083089524EA2093BC00ECEB90
S1133720F0E020812223ECF72091B900287F283093
S113373019F4FC01108208952091B900287FFC013E
S11337402083089580FD02C048E101C040E48093D5
S1133750BB0084E88093BC00ECEBF0E090819923FB
S1133760ECF72091B900287F30E0842F90E02817EF
S1133770390719F4FB01108208958091B900887FFC
S1133780FB01808308958093BB0084E88093BC0090
S1133790ECEBF0E080818823ECF78091B900887F1E
S11337A0883219F4FB01108208958091B900887F52
S11337B0FB018083089524E82093BC00ECEBF0E047
S11337C020812223ECF72091B900287F283519F4B1
S11337D0FC01108205C02091B900287FFC012083E0
S11337E08091BB00089584E98093BC000895909370
S11337F0C5008093C40088E98093C10086E080936B
S1133800C2000895E0ECF0E0908195FFFDCF809335
S1133810C6000895E0ECF0E0208125FFFDCF9093F1
S1133820C600E0ECF0E0908195FFFDCF8093C600E8
S113383008950F931F93E0ECF0E0208125FFFDCF66
S1133840092F1127222733270093C600E0ECF0E06C
S1133850208125FFFDCF8C01222733270093C6004A
S1133860E0ECF0E0208125FFFDCF072F182F292F52
S113387033270093C600E0ECF0E0208125FFFDCF64
S11338806093C6001F910F9108951F93CF93DF9308
S1133890EC018881882351F010E01F5F0E94021C14
S11338A0FE01E10FF11D80818111F7CFDF91CF91EE
S11338B01F910895CF93DF93EC01FE0124912223FD
S11338C051F0FC0184910E94021C2196CE01FE015C
S11338D024912111F6CFDF91CF910895882321F00F
S11338E081E00E94021C089580E00E94021C089559
S11338F01F93CF93DF93EC018FE991E00E948C1B1F
S11339006FE971E087E90E94A21B8FE991E00E94B0
S1133910DB1B182F0E94F31BCE010E94F5198111A5
S113392003C0C12FC26002C0C12FCD7F8FE991E0D7
S11339300E948C1B6FE971E086E90E94A21B6FE96B
S113394071E08C2F0E94C31B0E94F31BDF91CF9167
S11339501F910895CF938FE991E00E948C1B6FE92A
S113396071E087E90E94A21B8FE991E00E94DB1BB2
S1133970C82F0E94F31B8FE991E00E948C1B6FE912
S113398071E086E90E94A21B6FE971E08C2F8160CF
S11339900E94C31B0E94F31BCF910895CF938FE91C
S11339A091E00E948C1B6FE971E087E90E94A21BE1
S11339B08FE991E00E94DB1BC82F0E94F31B8FE963
S11339C091E00E948C1B6FE971E086E90E94A21BC2
S11339D06FE971E08C2F8E7F0E94C31B0E94F31B42
S11339E0CF910895CF93DF930E94181AC82F8FE9BF
S11339F091E00E948C1B6FE971E087E90E94A21B91
S1133A008FE991E00E94DB1BD82F0E94F31BD37037
S1133A10C13011F4D06211C0C23011F4D0610DC0B4
S1133A20C33011F4D06409C0C43011F4D86005C0A7
S1133A30C53011F4D06801C0D4608FE991E00E94D0
S1133A408C1B6FE971E086E90E94A21B6FE971E0AB
S1133A508D2F0E94C31B0E94F31BDF91CF91089509
S1133A60CF93DF93EC018FE991E00E948C1B6FE907
S1133A7071E088E50E94A21B6FE971E08CE10E946D
S1133A80C31B6FE971E082E00E94C31B0E94F31B19
S1133A900E94CE1CCE010E94781CCE010E94F21C12
S1133AA0DF91CF910895CF93C82F2A98892F8067EB
S1133AB00E94751B8C2F0E94751B2A9ACF91089522
S1133AC0CF9329980E947A1BC82F0E947A1B90E8F2
S1133AD0C99F9001112490E095958795822B932B93
S1133AE0299A9F70CF9108955B9886E00E94751B78
S1133AF05B9A08950F931F93CF93DF93D62F172FBD
S1133B00082FC42F0E94741D5B9882E00E94751BCD
S1133B10802F0E94751B812F0E94751B8D2F0E9480
S1133B20751B8C2F0E94751B5B9ADF91CF911F919F
S1133B300F9108951F93CF93DF93C62FD72F182F7C
S1133B405B9883E00E94751B812F0E94751B8D2F4B
S1133B500E94751B8C2F0E94751B0E947A1B5B9A16
S1133B60DF91CF911F910895CF92DF92EF92FF9250
S1133B70CF936B017C01C42F452F0E947A1DC7018E
S1133B80B6016F5F7F4F8F4F9F4F4C2F0E947A1D5E
S1133B90CF91FF90EF90DF90CF900895CF92DF9276
S1133BA0EF92FF92CF93DF936B017C010E949A1DE9
S1133BB0C82FD0E0DC2FCC27C701B6016F5F7F4F41
S1133BC08F4F9F4F0E949A1D9E01282BC901DF91A0
S1133BD0CF91FF90EF90DF90CF900895CF92DF9236
S1133BE0EF92FF920F931F93CF93DF93EC016B013E
S1133BF07A018901688179818A819B810E94CE1D25
S1133C00F6019183808388819981AA81BB81BC015B
S1133C10CD016E5F7F4F8F4F9F4F0E94CE1DF701E6
S1133C209183808388819981AA81BB81BC01CD0164
S1133C306C5F7F4F8F4F9F4F0E94CE1DF801918381
S1133C408083488159816A817B814A5F5F4F6F4FCE
S1133C507F4F488359836A837B83DF91CF911F9180
S1133C600F91FF90EF90DF90CF900895CF92DF9265
S1133C70EF92FF920F931F93CF93DF938B01ECE0AE
S1133C80F1E0408151816281738140930801509336
S1133C90090160930A0170930B01C0E1D1E04881EE
S1133CA059816A817B814083518362837383BC0120
S1133CB080E090E00E948A3A688379838A839B83B8
S1133CC0C8010E945C1B833009F4DEC030F48130EB
S1133CD069F0823009F471C073C2853009F4A2C15D
S1133CE008F439C1863009F404C26AC221E13FE80C
S1133CF044E258E360911001709111018091120126
S1133D00909113010E94403B6B017C0121E13FE84B
S1133D1044EA58E360910C0170910D0180910E0109
S1133D2090910F010E94403B9B01AC01C701B60179
S1133D300E9489396B017C0121E13FE844E258E3A8
S1133D40609108017091090180910A0190910B0121
S1133D500E94403B9B01AC01C701B6010E94893916
S1133D606B017C0127EE38EB4DEF5FE360910401BA
S1133D707091050180910601909107010E94403BDA
S1133D809B01AC01C701B6010E9489396B017C011A
S1133D9027E13CE74BE75FE360910001709101018B
S1133DA080910201909103010E94403B9B01AC0170
S1133DB0C701B6010E94883969C22EE131EC4CE397
S1133DC05AE3609110017091110180911201909158
S1133DD013010E94403B6B017C012EE131EC4CEB62
S1133DE05AE360910C0170910D0180910E01909144
S1133DF00F010E94403B9B01AC01C701B6010E9428
S1133E0089396B017C012EE131EC4CE35AE360917A
S1133E1008017091090180910A0190910B010E949F
S1133E20403B9B01AC01C701B6010E9489396B017B
S1133E307C0126E43AE146EF5FE36091040170916E
S1133E40050180910601909107010E94403B9B016E
S1133E50AC01C701B6010E9489396B017C012DE4D4
S1133E6031EF4CE65FE360910001709101018091B4
S1133E700201909103010E94403B9B01AC01C701E8
S1133E80B6010E94883902C228EA36E447E35BE3BC
S1133E9060911001709111018091120190911301B0
S1133EA00E94403B6B017C0128EA36E447EB5BE36C
S1133EB060910C0170910D0180910E0190910F01A0
S1133EC00E94403B9B01AC01C701B6010E948939A5
S1133ED06B017C0128EA36E447E35BE36091080167
S1133EE07091090180910A0190910B010E94403B5D
S1133EF09B01AC01C701B6010E9489396B017C01A9
S1133F0024EE36E24CEE5FE360910401709105010A
S1133F1080910601909107010E94403B9B01AC01F6
S1133F20C701B6010E9489396B017C0123EE3AE294
S1133F304BE55FE360910001709101018091020102
S1133F40909103010E94403B9B01AC01C701B60163
S1133F500E9488399BC12DE738E94DE75DE3609104
S1133F6010017091110180911201909113010E942E
S1133F70403B6B017C012DE738E94DEF5DE3609137
S1133F800C0170910D0180910E0190910F010E941E
S1133F90403B9B01AC01C701B6010E9489396B010A
S1133FA07C012DE738E94DE75DE3609108017091EC
S1133FB0090180910A0190910B010E94403B9B01F1
S1133FC0AC01C701B6010E9489396B017C0121ED66
S1133FD038E747E95FE3609104017091050180913E
S1133FE00601909107010E94403B9B01AC01C7016F
S1133FF0B6010E9489396B017C0122E83FEA4CED4D
S11340005EE3609100017091010180910201909141
S113401003010E94403B9B01AC01C701B6010E9411
S1134020883934C125E13AEA49E65EE3609110013A
S11340307091110180911201909113010E94403BF3
S11340406B017C0125E13AEA49EE5EE360910C01E3
S113405070910D0180910E0190910F010E94403BDF
S11340609B01AC01C701B6010E9489396B017C0137
S113407025E13AEA49E65EE360910801709109019D
S113408080910A0190910B010E94403B9B01AC017D
S1134090C701B6010E9489396B017C012DE739E320
S11340A04BE85EE360910401709105018091060183
S11340B0909107010E94403B9B01AC01C701B601EE
S11340C00E9489396B017C012DE43BE14DE35EE301
S11340D060910001709101018091020190910301AE
S11340E00E94403B9B01AC01C701B6010E94883984
S11340F0CDC028EB32E747E85EE360911001709190
S1134100110180911201909113010E94403B6B01B7
S11341107C0128EB32E747E05FE360910C0170918A
S11341200D0180910E0190910F010E94403B9B0173
S1134130AC01C701B6010E9489396B017C0128EBEF
S113414032E747E85EE360910801709109018091CC
S11341500A0190910B010E94403B9B01AC01C701F5
S1134160B6010E9489396B017C0125E730E14DEEEF
S11341705DE36091040170910501809106019091C5
S113418007010E94403B9B01AC01C701B6010E949C
S113419089396B017C012BEF3DE142E35EE36091E1
S11341A000017091010180910201909103010E942C
S11341B0403B9B01AC01C701B6010E94883966C02F
S11341C02AE732E64BEB5EE3609110017091110136
S11341D080911201909113010E94403B6B017C017C
S11341E02AE732E64BE35FE360910C0170910D0125
S11341F080910E0190910F010E94403B9B01AC0104
S1134200C701B6010E9489396B017C012AE732E6B5
S11342104BEB5EE3609108017091090180910A0102
S113422090910B010E94403B9B01AC01C701B60178
S11342300E9489396B017C012FE736EA4EE85EE380
S1134240609104017091050180910601909107012C
S11342500E94403B9B01AC01C701B6010E94883912
S11342606B017C0122ED36EC4DE35EE360910001CD
S11342707091010180910201909103010E94403BE1
S11342809B01AC01C701B6010E948839E4E0F1E06A
S11342900081118122813381009300011093010177
S11342A0209302013093030160837183828393839B
S11342B00E945E3ACB01DF91CF911F910F91FF9045
S11342C0EF90DF90CF900895DF92EF92FF920F93DB
S11342D01F93CF93DF93F82EE92E04E010E0C0E1A2
S11342E0D7E240E0DD24D3948F2D9E2DBE010E94A1
S11342F0EC3B6115710511F4442361F080E3860FF2
S11343000E94021C8F2D9E2DBE010E94EC3BF82EB4
S1134310E92E4D2D9E01ADECBCEC0E94283CEC0135
S1134320D695C795D695C795D695C79501501109C9
S113433001151105C9F680E38F0D0E94021CDF915F
S1134340CF911F910F91FF90EF90DF9008954F92BE
S11343505F926F927F928F929F92AF92BF92CF9211
S1134360DF92EF92FF920F931F93CF93DF93162F59
S1134370672E782E092FC9E0D0E00F2EC12CFAEC5D
S1134380DF2EFAE9EF2EFBE3FF2EF02D512C44240F
S113439043940F2EFAE08F2E912CA12CB12CF02DEA
S11343A0612F762D872D902FA70196010E94003C46
S11343B0211531054105510511F4552089F080E39B
S11343C0820F0E94021C612F762D872D902FA7014A
S11343D096010E94003C162F672E782E092F542C2C
S11343E0C701B601A50194010E94003C69017A014C
S11343F021972097A9F680E3810F0E94021CDF9188
S1134400CF911F910F91FF90EF90DF90CF90BF90CD
S1134410AF909F908F907F906F905F904F90089592
S1134420CF93DF934A994BC01092660090E020E04E
S113443040E0A0ECB0E0C6ECD0E0E6E6F0E051E00D
S113444032E08C918823ECF78881992319F091301C
S113445049F012C0853511F44081952F80818F5F1A
S11344608083EFCF853521F480818F5F8083E9CF0E
S113447020812150932FE5CF30E0241B3109C9015D
S113448099230CF4019695958795840FC6E6D0E0A0
S1134490888380E29FE00E945A1C688170E080E07B
S11344A090E00E94A7218DE00E94021C488160EDEB
S11344B07BEF81E090E00E947A1DF894FFCFDF91BA
S11344C0CF9108950F931F93CF93DF9300D0CDB76F
S11344D0DEB78C011A82198289819A8180319742D0
S11344E05CF429813A812F5F3F4F3A8329832981E4
S11344F03A8120313742ACF30E94811B0E946D1B2C
S113450081E090E00E94F71B81E68093640080E8DC
S113451080BF85B1806C85B988B18FEF88B98BB1C4
S11345208C6F8BB9219A229A539A549A209A299A79
S11345302A9A5B9A5C9A89E0809381008FE09DE1DE
S1134540909389008093880082E080936F008FEFBE
S113455097E00E94531DC8010E94301D0E94102242
S113456060ED7BEF81E090E00E949A1D80936600ED
S113457078940F900F90DF91CF911F910F91089530
S11345802F923F924F925F926F927F928F929F925F
S1134590AF92BF92CF92DF92EF92FF920F931F934D
S11345A0CF93DF9300D01F92CDB7DEB76B017C01B0
S11345B099230CF041C08DE20E94021CF094E09417
S11345C0D094C094C11CD11CE11CF11C35C00C2D2D
S11345D01D2DEB82FA82C701B601A50194010E9448
S11345E0003C211531054105510519F489818823C1
S11345F081F080E3820F0E94021C602F712F8B8157
S11346009A81A50194010E94003C6B017C01E1E0C8
S1134610E983C501B401A30192010E94003C490150
S11346205A01F1E02F1A31082114310481F680E394
S11346308C0D0E94021C15C009E010E00F2E812C85
S1134640FAEC9F2EFAE9AF2EFBE3BF2EF02D198270
S11346500F2EFAE04F2E512C612C712CF02D1801E5
S1134660B6CF0F900F900F90DF91CF911F910F91C4
S1134670FF90EF90DF90CF90BF90AF909F908F907E
S11346807F906F905F904F903F902F9008952F925E
S11346903F924F925F926F927F928F929F92AF92CE
S11346A0BF92CF92DF92EF92FF920F931F93CF931B
S11346B0DF93CDB7DEB728970FB6F894DEBF0FBEF1
S11346C0CDBF9E838D837C836B834A83DC015C91A5
S11346D0541709F497C080ED850F8A3008F06BC039
S11346E04D01BFEF8B1A9B0AE1E0F0E0612C712CC5
S11346F0D12CE12CF12C00E0B12CC12C80E090E015
S11347000AC09F012F5F3F4F40ED450F4A3008F02C
S113471052C03F01F90155245A945E0EA52FB0E012
S1134720D0971B2F110F110B2D2D3E2D4F2D502FD8
S11347306B2D7C2DAA2EBB2EC12ED12EE12EF12E57
S1134740012F0E94573C192FD22EE32EF42E052F51
S1134750B62EC72E912FAD81BE81A60DB71D119621
S1134760AC91A053AA3080F501E00E943E3C222E79
S1134770332E442E652E762EA72F8F83B92F02E079
S11347800E943E3CA22EB32EC42ED52EE62EF72E2A
S1134790082F192F222D332D442D562D672D7A2FB6
S11347A08F819B2F0E94573CD22EE32EF42E052F8F
S11347B0B62EC72E09C081E0EB81FC81808360E0C6
S11347C070E080E090E02EC0D4015D914D01BA818B
S11347D05B1721F0EA30F10509F093CF26EF250DA0
S11347E0263F80F02D2D3E2D4F2D502F6B2D7C2DEF
S11347F02F3F3F4F4F4F5F4F610571058105910575
S113480051F048F081E0AB81BC818C9360E070E0B2
S113481080E090E007C0EB81FC8110826D2D7E2D3D
S11348208F2D902F28960FB6F894DEBF0FBECDBF04
S1134830DF91CF911F910F91FF90EF90DF90CF9078
S1134840BF90AF909F908F907F906F905F904F90AC
S11348503F902F9008952F923F924F925F926F92C4
S11348607F928F929F92AF92BF92CF92DF92EF92FC
S1134870FF920F931F93CF93DF93CDB7DEB72997A2
S11348800FB6F894DEBF0FBECDBF9F838E837C83AB
S11348906B834A83DC018C918D3231F41196BF8392
S11348A0AE83B1E0BD8301C01D82EE81FF815081E2
S11348B0FA815F1709F487C080ED850F8A3008F00C
S11348C06CC08E809F802FEF821A920AE1E0F0E0A4
S11348D0612C712CD12CE12CF12C00E0B12CC12CD9
S11348E080E090E00AC09F012F5F3F4F40ED450FED
S11348F04A3008F052C03F01F90155245A945E0E23
S1134900A52FB0E0D0971B2F110F110B2D2D3E2D8D
S11349104F2D502F6B2D7C2DAA2EBB2EC12ED12EA8
S1134920E12EF12E012F0E94573C192FD22EE32E97
S1134930F42E052FB62EC72E912FAE81BF81A60D62
S1134940B71D1196AC91A053AA3080F501E00E94E6
S11349503E3C222E332E442E652E762EA72F88879A
S1134960B92F02E00E943E3CA22EB32EC42ED52EB7
S1134970E62EF72E082F192F222D332D442D562DD8
S1134980672D7A2F88859B2F0E94573CD22EE32EC9
S1134990F42E052FB62EC72E09C081E0AB81BC8151
S11349A08C9360E070E080E090E064C0D4015D919D
S11349B04D01BA815B1721F0EA30F10509F093CF7C
S11349C0E9E0E51548F481E0AB81BC818C9360E0BB
S11349D070E080E090E04EC0BD81B11119C02D2D72
S11349E03E2D4F2D502F6B2D7C2D2F3F3F4F4F4F82
S11349F05F476105710581059105B9F1B0F181E069
S1134A00AB81BC818C9360E070E080E090E032C0C8
S1134A102D2D3E2D4F2D502F6B2D7C2D2115310525
S1134A2041055048610571058105910591F088F0B3
S1134A3081E0EB81FC81808360E070E080E090E0C5
S1134A4019C0AB81BC811C926C2D7D2D8E2D9F2DA8
S1134A5011C04D2D5E2D6F2D702FCC24DD247601D9
S1134A60C41AD50AE60AF70AECCFCD2CDE2CEF2CBB
S1134A70F02EE7CF29960FB6F894DEBF0FBECDBF58
S1134A80DF91CF911F910F91FF90EF90DF90CF9026
S1134A90BF90AF909F908F907F906F905F904F905A
S1134AA03F902F9008952F923F924F925F926F9272
S1134AB07F928F929F92AF92BF92CF92DF92EF92AA
S1134AC0FF920F931F93CF93DF93CDB7DEB7299750
S1134AD00FB6F894DEBF0FBECDBF3C017C836B8361
S1134AE05F834E83922EDC018C918D3231F4BFEFC3
S1134AF06B1A7B0AE1E0ED8301C01D82F301A08102
S1134B00A91509F486C080ED8A0F8A3008F06AC0BE
S1134B103196FA83E983E1E0F0E0412C512CF12C49
S1134B2000E0A12CB12CD12CE12C80E090E05A2F94
S1134B300AC09F012F5F3F4F40ED450F4A3008F0F8
S1134B4051C02F01F90188248A948E0EA52FB0E05C
S1134B50D0971B2F110F110B2F2D302F4A2D5B2DAA
S1134B606D2D7E2DAA2EBB2EC12ED12EE12EF12E1F
S1134B70012F0E94573C192FF22E032FA42EB52E7D
S1134B80D62EE72E912FD301A40DB51D1196AC910D
S1134B90A053AA3080F501E00E943E3C222E332E21
S1134BA0442E552E69877887B82FA92F02E00E94DA
S1134BB03E3CA22EB32EC42ED52EE62EF72E082F61
S1134BC0192F222D332D442D552D698578858B2F52
S1134BD09A2F0E94573CF22E032FA42EB52ED62EC8
S1134BE0E72E09C081E0AB81BC818C9360E070E06A
S1134BF080E090E06FC0A981BA815D91BA83A983F6
S1134C00591521F0EA30F10509F093CFB9E0B81550
S1134C1048F481E0EB81FC81808360E070E080E017
S1134C2090E058C0FD81F11119C02F2D302F4A2D6D
S1134C305B2D6D2D7E2D2F3F3F4F4F4F5F476105FD
S1134C40710581059105E1F1D8F181E0EB81FC81E9
S1134C50808360E070E080E090E03CC02F2D302F36
S1134C604A2D5B2D6D2D7E2D2115310541055048B2
S1134C70610571058105910591F088F081E0AB81B2
S1134C80BC818C9360E070E080E090E023C0EB8115
S1134C90FC8110826C2D7D2D8E2D9F2D1BC04F2DE0
S1134CA0502F6A2D7B2DCC24DD247601C41AD50A1D
S1134CB0E60AF70A83E0880DAE81BF818C93E7CFC3
S1134CC0CF2CD02EEA2CFB2C83948394EE81FF818D
S1134CD08082DDCF29960FB6F894DEBF0FBECDBF1C
S1134CE0DF91CF911F910F91FF90EF90DF90CF90C4
S1134CF0BF90AF909F908F907F906F905F904F90F8
S1134D003F902F9008950F931F93FC01008110E0B2
S1134D1020E030E0418150E060E070E0828190E08A
S1134D20A0E0B0E0302F222711270027BA01552731
S1134D304427400F511F621F731F2381420F511DCF
S1134D40611D711DBA2FA92F982F88278A019B01F5
S1134D50080F191F2A1F3B1FC901B8011F910F918A
S1134D600895882321F089E50E94021C03C08EE483
S1134D700E94021C8DE00E94021C08958F929F9253
S1134D80AF92BF92CF92DF92EF92FF924B015C0100
S1134D9069017A018DE59EE00E945A1CC501B401A7
S1134DA00E94A72188E59EE00E945A1CC701B60113
S1134DB00E94A72184E59EE00E945A1CFF90EF9078
S1134DC0DF90CF90BF90AF909F908F9008950F93F6
S1134DD01F93CF93DF938C01EB0181E59EE00E944A
S1134DE05A1CB801882777FD8095982F0E94C0220D
S1134DF08CE49EE00E945A1CBE01882777FD8095B2
S1134E00982F0E94C02288E49EE00E945A1CDF91E1
S1134E10CF911F910F910895882329F083E49EE098
S1134E200E945A1C04C08DE39EE00E945A1C8BE32E
S1134E300E94021C8DE00E94021C08950F931F9390
S1134E40CF93DF93EC0162ED7BEF81E090E00E9471
S1134E50CE1D8C0189E19FE00E945A1CCE010E9464
S1134E60EE19811104C081E40E94021C09C0813042
S1134E7021F48DE40E94021C03C082E40E94021CFF
S1134E8085E19FE00E945A1C8EE09FE00E945A1C1C
S1134E90CE010E94F519811104C082E30E94021C14
S1134EA003C083E30E94021C8BE30E94021C8DE07A
S1134EB00E94021C87E09FE00E945A1CCE010E94BF
S1134EC0081ABC0180E090E00E94A7218BE30E94B5
S1134ED0021C8DE00E94021C80E09FE00E945A1C8C
S1134EE0CE010E94181A813029F484E690E00E94D1
S1134EF0642122C0823029F488EE93E00E94642168
S1134F001BC0833029F48CEE93E10E94642114C009
S1134F10843029F480E197E20E9464210DC0853039
S1134F2029F488E397EC0E94642106C060EA76E8DD
S1134F3081E090E00E94A7218BE30E94021C8DE097
S1134F400E94021C89EF9EE00E945A1CCE010E941E
S1134F501F1A0E940C2782EF9EE00E945A1CCE0169
S1134F600E94391A0E94A7218BE30E94021C8DE043
S1134F700E94021C8BEE9EE00E945A1CCE010E94ED
S1134F80501ABC01882777FD8095982F0E94C02273
S1134F908BE30E94021C8DE00E94021C82EE9EE0C4
S1134FA00E945A1CCE010E94641A0E94A7218BE31E
S1134FB00E94021C8DE00E94021C8BED9EE00E9468
S1134FC05A1CCE010E946E1A0E940C2781ED9EE0AD
S1134FD00E945A1CCE010E94821ABC01882777FDC8
S1134FE08095982F0E94C0228BE30E94021C8DE0C2
S1134FF00E94021C87EC9EE00E945A1CCE010E9473
S1135000971ABC01882777FD8095982F0E94C022AB
S11350108BE30E94021C8DE00E94021C8EEB9EE03A
S11350200E945A1CCE010E94AB1ABC0180E090E0A1
S11350300E94A7218BE30E94021C8DE00E94021CA7
S113504085EB9EE00E945A1CCE010E94B31A0E9476
S11350500C278BEA9EE00E945A1CCE010E94C21AC1
S1135060682F70E080E090E00E94A7218BE30E940B
S1135070021C8DE00E94021C83EA9EE00E945A1CDE
S1135080CE010E94D61ABC01882777FD8095982FFF
S11350900E94C0228BE30E94021C8DE00E94021C2D
S11350A08BE99EE00E945A1CCE010E94EB1ABC01BF
S11350B0882777FD8095982F0E94C0228BE30E9459
S11350C0021C8DE00E94021C83E99EE00E945A1C8F
S11350D0CE010E94141B0E9464218BE30E94021CD7
S11350E08DE00E94021C8AE89EE00E945A1CCE01B8
S11350F00E94001B0E9464218BE30E94021C8DE02D
S11351000E94021C81E89EE00E945A1CCE010E946B
S1135110281B0E9464218BE30E94021C8DE00E94E4
S1135120021C88E79EE00E945A1CCE010E943C1B90
S11351300E9464218BE30E94021C8DE00E94021CE9
S11351408FE69EE00E945A1CCE010E94501B0E94D2
S113515064218BE30E94021C8DE00E94021C88E6FD
S11351609EE00E945A1CB80180E090E00E94A721B2
S11351708BE30E94021C8DE00E94021C80E69EE0EC
S11351800E945A1CCE010E945C1B682F70E080E0D4
S113519090E00E94A7218BE30E94021C8DE00E94F4
S11351A0021C8DE00E94021CDF91CF911F910F9190
S11351B00895CF93DF93C8E0D0E080E20E94021C00
S11351C021972097D1F7DF91CF91089588E39EE04E
S11351D00E945A1C089584E39EE00E945A1C08957C
S11351E02F923F924F925F926F927F928F929F92F3
S11351F0AF92BF92CF92DF92EF92FF920F931F93E1
S1135200CF93DF9300D01F92CDB7DEB75C0162ED80
S11352107BEF81E090E00E94CE1D8C0180322EE471
S1135220920730F081E497E00E945A1C81E07DC02F
S113523020E2AE014E5F5F4FBE016D5F7F4FC5013F
S11352400E9453256B017C018B81811163C0C601CF
S11352508E58994F853E9C4008F05EC08A8120E2BA
S1135260AE014F5F5F4FBE016D5F7F4FF501E80FE9
S1135270F11DCF010E9453252B013C018B8181112B
S11352804DC0C2018E58994F853E9C4008F048C0DD
S113529029818A8190E0820F911D2DE0AE014F5F3C
S11352A05F4FBE016D5F7F4F8A0D9B1D0E9453258A
S11352B04B015C018B81811135C0C4010197803E93
S11352C09E4290F51801220C331C200E311E220C34
S11352D0331CB10180E090E0A6010E94B41DB1012D
S11352E06E5F7F4F80E090E0A2010E94B41DB10187
S11352F06C5F7F4F80E090E0A4010E94B41DA80180
S11353004F5F5F4F62ED7BEF81E090E00E94B41D40
S113531080E00BC081E009C081E007C081E005C0E6
S113532081E003C081E001C081E00F900F900F90F5
S1135330DF91CF911F910F91FF90EF90DF90CF906D
S1135340BF90AF909F908F907F906F905F904F90A1
S11353503F902F9008954F925F926F927F928F9219
S11353609F92AF92BF92CF92DF92EF92FF920F93F0
S11353701F93CF93DF93CDB7DEB728970FB6F8947A
S1135380DEBF0FBECDBF8C0162ED7BEF81E090E00C
S11353900E94CE1D5C0120E2AE014D5F5F4FBE0155
S11353A06C5F7F4FC8010E9453256B017C018C8187
S11353B0811181C0AC14BD0430F48DE297E00E94E9
S11353C05A1C81E085C08B8120E2AE014E5F5F4FA5
S11353D0BE016C5F7F4FF801E80FF11DCF010E9401
S11353E053254B015C018C81811167C0C4018E5827
S11353F0994F853E9C4008F062C02A818B8190E0E1
S1135400820F911D20E2AE014F5F5F4FBE016C5FC2
S11354107F4F800F911F0E9453252B013C018C81EB
S113542081114FC0C2018E58994F853E9C4008F0AF
S11354304AC02A818B8190E0820F911D2981820FBD
S1135440911D2DE0AE014E5F5F4FBE016C5F7F4F3B
S1135450800F911F0E9453256D837E838F839887CD
S11354608C81811132C08D819E810197803E9E4244
S113547070F5C601880F991FC80ED91ECC0CDD1C0F
S1135480B6016650710980E090E0A4010E94B41D49
S1135490B6016450710980E090E0A2010E94B41D3D
S11354A0B6016250710980E090E04D815E810E94F6
S11354B0B41D80E00DC081E00BC081E009C081E033
S11354C007C081E005C081E003C081E001C081E044
S11354D028960FB6F894DEBF0FBECDBFDF91CF91F3
S11354E01F910F91FF90EF90DF90CF90BF90AF90FE
S11354F09F908F907F906F905F904F900895CF9280
S1135500DF92EF92FF920F931F93CF93DF938C015F
S1135510EB0169017A01CB010E94EE19823009F096
S11355204FC080918501823009F045C08091870188
S113553081111DC0E0FE0EC0F701F595E795EC0F53
S1135540FD1F0190F081E02DEC0DFD1D0190F08117
S1135550E02D01C0F601C7019595879560E08C0F99
S11355609D1F099580E00E94021C80E06FC081307D
S1135570E9F4E0FE0EC0F701F595E795EC0FFD1F89
S11355800190F081E02DEC0DFD1D0190F081E02DE6
S113559001C0F601C7019595879561E08C0F9D1FA9
S11355A0099580E00E94021C80E050C083E00E94C4
S11355B0021C80E04BC083E00E94021C80E046C0D5
S11355C0F80180818935E9F481818D30D1F5E0FEDF
S11355D00EC0F701F595E795EC0FFD1F0190F081E2
S11355E0E02DEC0DFD1D0190F081E02D01C0F601D0
S11355F0C7019595879561E08C0F9D1F099580E003
S113560025C08E3401F5F80181818D30F1F4E0FE7E
S11356100EC0F701F595E795EC0FFD1F0190F081A1
S1135620E02DEC0DFD1D0190F081E02D01C0F6018F
S1135630C7019595879560E08C0F9D1F099580E0C3
S113564005C081E003C081E001C081E0DF91CF911A
S11356501F910F91FF90EF90DF90CF900895AF923C
S1135660BF92CF92DF92EF92FF920F931F93CF934B
S1135670DF931F92CDB7DEB75C018B0169017A011C
S1135680CB010E94EE19823031F580918501823080
S1135690E9F4E0FE0EC0F701F595E795E00FF11F80
S11356A00190F081E02DEC0DFD1D0190F081E02DC5
S11356B001C0F601C7019595879560918701800F18
S11356C0911F099589830E94021C03C083E00E94F4
S11356D0021C998127C04DE0BE016F5F7F4FC50159
S11356E00E944723898181111CC0E0FE0EC0F7018E
S11356F0F595E795E00FF11F0190F081E02DEC0D99
S1135700FD1D0190F081E02D01C0F601C7019595C2
S11357108795800F911F099591E0811103C090E056
S113572001C091E0892F0F90DF91CF911F910F91CC
S1135730FF90EF90DF90CF90BF90AF900895AF921D
S1135740BF92CF92DF92EF92FF920F931F93CF936A
S1135750DF931F92CDB7DEB75C018B0169017A013B
S1135760CB010E94EE19823081F58091850183304E
S113577039F5E0FE0EC0F701F595E795E00FF11F4E
S11357800190F081E02DEC0DFD1D0190F081E02DE4
S113579001C0F601A6E8B1E011966C91119770E092
S11357A0762F662712968C91680F711DC701959507
S11357B08795800F911F099589830E94021C03C05D
S11357C083E00E94021C998128C04DE0BE016F5FF6
S11357D07F4FC5010E942B24298121111DC0E0FEA9
S11357E00EC0F701F595E795E00FF11F0190F081E8
S11357F0E02DEC0DFD1D0190F081E02D01C0F601BE
S1135800970135952795C801820F931F099591E05B
S1135810811103C090E001C091E0892F0F90DF91C6
S1135820CF911F910F91FF90EF90DF90CF90BF9099
S1135830AF900895AF92BF92CF92DF92EF92FF9212
S11358400F931F93CF93DF931F92CDB7DEB75C0105
S11358508B0169017A01CB010E94EE19823081F536
S113586080918501833039F5E0FE0EC0F701F5958E
S1135870E795E00FF11F0190F081E02DEC0DFD1D87
S11358800190F081E02D01C0F601A6E8B1E0119687
S11358906C91119770E0762F662712968C91680FA1
S11358A0711DC70195958795800F911F099589836F
S11358B00E94021C03C083E00E94021C998128C03C
S11358C04DE0BE016F5F7F4FC5010E9447232981D0
S11358D021111DC0E0FE0EC0F701F595E795E00F1C
S11358E0F11F0190F081E02DEC0DFD1D0190F08180
S11358F0E02D01C0F601970135952795C801820F67
S1135900931F099591E0811103C090E001C091E0DB
S1135910892F0F90DF91CF911F910F91FF90EF90FE
S1135920DF90CF90BF90AF900895AF92BF92CF9287
S1135930DF92EF92FF920F931F93CF93DF931F9207
S1135940CDB7DEB75C018B0169017A01CB010E94FE
S1135950EE19823051F580918501853009F5E0FE1C
S11359600DC0F701F595E795E00FF11F0190F08167
S1135970E02DEC0DFD1DA080B18001C0560187E82B
S113598091E00E948326AB01BC01C70195958795E0
S1135990800F911FF501099589830E94021C03C0A1
S11359A083E00E94021C99812AC04DE0BE016F5F12
S11359B07F4FC5010E944723298121111FC0E0FEAA
S11359C00EC0F701F595E795E00FF11F0190F08106
S11359D0E02DEC0DFD1D0190F081E02D01C0F601DC
S11359E0970135952795AB01BC01C801820F931F20
S11359F0099591E0811103C090E001C091E0892FE5
S1135A000F90DF91CF911F910F91FF90EF90DF9056
S1135A10CF90BF90AF900895BF92CF92DF92EF9254
S1135A20FF920F931F93CF93DF931F92CDB7DEB7EF
S1135A30F82E8B0181E0898380918401811132C029
S1135A408F2D8F7D843569F4CB010E94EE1981116D
S1135A5004C081E40E94021CEEC78DE40E94021C73
S1135A60EAC78C3449F460E0C8010E94661B61E017
S1135A70C8010E945F1BDFC7843449F461E0C80198
S1135A800E94661B61E0C8010E945F1BD4C7813479
S1135A9049F462E0C8010E94661B61E0C8010E94EB
S1135AA05F1BC9C78F2D0E94021CE091840181E015
S1135AB08E0F80938401F0E0EA57FE4FF082893123
S1135AC048F090919E019D3029F0109284010E942B
S1135AD0E628B1C7909186019D3009F091C01092DB
S1135AE0840183E29EE00E945A1C8FEE9DE00E9496
S1135AF05A1CC8010E94EE19811104C081E40E945D
S1135B00021C0CC0C8010E94EE19813021F48DE4FE
S1135B100E94021C03C082E40E94021C8DE00E94C9
S1135B20021C8BEC9DE00E945A1CC8010E94F519CE
S1135B30811104C082E30E94021C03C083E30E941B
S1135B40021C8DE00E94021C8DEA9DE00E945A1CFA
S1135B5028EE33E040E050E061E070E080E090E067
S1135B600E94BE26C8010E94081ABC0180E090E091
S1135B700E94A7218DE00E94021C8AE89DE00E94F9
S1135B805A1C85E79DE00E945A1C8EE59DE00E9408
S1135B905A1C81E49DE00E945A1C84E29DE00E940C
S1135BA05A1C8AE09DE00E945A1C87EF9CE00E94E8
S1135BB05A1C83EE9CE00E945A1C84E191E00E94EE
S1135BC0451C8DE00E94021C86ED9CE00E945A1C3C
S1135BD08AE191E00E94451C8DE00E94021C8AEB40
S1135BE09CE00E945A1C89E99CE00E945A1C88E7A8
S1135BF09CE00E945A1C86E69CE00E945A1C1BC72B
S1135C00282F30E0F901EB57FE4F90819D3009F0C9
S1135C1012C71216130684F4E6E8F1E0C9018A57A4
S1135C209E4F20813FE9320F3A3110F420522083F5
S1135C303196E817F907A9F710928401809186013B
S1135C40813369F590918701903209F064C08091A5
S1135C508801813451F4809189018D30E9F460E048
S1135C60C8010E94EA191982E4C68D3451F4809166
S1135C7089018D3089F461E0C8010E94EA19198212
S1135C80D8C6823449F4809189018D3029F462E0C8
S1135C90C8010E94EA19CFC681E08983C7C682334E
S1135CA041F590918701903209F080C0809188017C
S1135CB0823369F4809189018D30C1F460E0C801B8
S1135CC00E94F119C8010E94781C1982B2C683335C
S1135CD069F4809189018D3049F461E0C8010E9422
S1135CE0F119C8010E94781C1982A3C681E0898336
