S016000041717561536966745F56303031312E7372656379
S11300000C9476060C949E060C949E060C949E0604
S11300100C949E060C949E060C949E060C949E06CC
S11300200C949E060C949E060C949E060C94FF065B
S11300300C949E060C949E060C949E060C949E06AC
S11300400C949E060C949E060C94A9060C949E0691
S11300500C949E060C949E060C949E060C949E068C
S11300600C949E060C949E062A075107ED07A008DF
S1130070F3083F09F209360A180BFA0C550D3D0E28
S1130080B510E110ED10F71001116B120F2E3F2E79
S1130090612EC831C831C831C831C831C8316B2E5E
S11300A00C2F192F262F302F3A2F442F4E2F582F35
S11300B0622F6C2F762F802F8A2FBE2FF22F453080
S11300C04F305930D730563167317131A031AA31B0
S11300D0B431BE31C831C831C831C831C831C83172
S11300E0C831C831C831C831C831C831C831C83144
S11300F0C831C831C831C831C831C831C831C83134
S1130100C831C831C831C831C831C831FE2DC831F1
S1130110C831C831C831C831C831C831C831C83113
S1130120C831DC2DC831C831C831C831C831C831F3
S1130130ED2DD02DC831C831C831C831C831C831CE
S1130140C831C831C831C831C831C831FE2DC831B1
S1130150C831C831C831C831C831C831C831C831D3
S1130160C831DC2DC831C831C831C831C831C831B3
S1130170ED2DD02D546573742041626F72746564E3
S11301800D0067726964206F6E3B0D0D0027290D09
S1130190004379636C6573290020002028005371A3
S11301A0756172652057617665004C696E65617290
S11301B0205377656570004379636C69632000742C
S11301C069746C65282700786C6162656C28275611
S11301D06F6C747328562927293B0D00796C616272
S11301E0656C282743757272656E74284129272926
S11301F03B0D00293B0D002E2E2E0D00735F756103
S113020000706C6F742800666967757265283329FD
S11302103B0D00293B0D003D666C69706C722873C0
S11302205F756100735F75610029293B0D002C6CBB
S1130230656E67746828735F7561007377656570B0
S11302405F76732F313030302C73776565705F764D
S1130250652F31303030007371756172655F76736C
S11302602F313030302C7371756172655F76652F74
S113027031303030003D6C696E7370616365280005
S1130280292A28332E332F34303936292F726573B7
S1130290293B0D002D32303437003D28287300737C
S11302A05F75610067726964206F6E3B0D0D0074A9
S11302B069746C65282751756965742054696D6586
S11302C02053657175656E636527293B0D00786C55
S11302D06162656C282754696D6520287329272974
S11302E03B0D00796C6162656C28274375727265F9
S11302F06E7428412927293B0D00706C6F74287493
S1130300712C715F7561293B0D00666967757265B3
S11303102832293B0D0074713D6C696E7370616302
S11303206528312C71756965745F742F31303030F4
S11303302C6C656E67746828715F756129293B0DA3
S113034000715F75613D2828712D32303437292AB8
S113035028332E332F34303936292F726573293BD5
S11303600D0067726964206F6E3B0D0D0074697433
S11303706C6528274465706F736974696F6E2053C8
S1130380657175656E636527293B0D00786C616244
S1130390656C282754696D652028732927293B0D2E
S11303A000796C6162656C282743757272656E749E
S11303B028412927293B0D00706C6F742874642C24
S11303C0645F7561293B0D00666967757265283144
S11303D0293B0D0074643D6C696E7370616365281C
S11303E0312C6465705F742F313030302C6C656E45
S11303F067746828645F756129293B0D00645F7523
S1130400613D2828642D32303437292A28332E338D
S11304102F34303936292F726573293B0D007265EC
S1130420733D7469615F72742A3130303030302F1B
S1130430313032333B0D004152425F53544F500D23
S1130440004152420D004152425F494E49540D0051
S11304505D3B0D0D002E2E2E0D002E2E2E0D003D7B
S11304605B003D5B005D3B0D0D002E2E2E0D005DEF
S11304703B0D0D002E2E2E0D003D5B005D3B0D0D42
S1130480002E2E2E0D00713D5B005D3B0D0D002EE8
S11304902E2E0D00643D5B00456E747279204F75FD
S11304A074206F662052616E67650D004D656D6F37
S11304B072792046756C6C0D0053746172746D56BC
S11304C020456E646D5620526174650D004D656D56
S11304D06F727920456D7074790D00456E642B41FF
S11304E06D70204C6F772000456E642B416D702039
S11304F048696768200053746172742B416D7020E1
S11305004C6F77200053746172742B416D702048D6
S11305106967682000456E642B416D70204C6F77CD
S11305202000456E642B416D702048696768200087
S113053053746172742B416D70204C6F772000539B
S1130540746172742B416D702048696768200037AC
S11305503A20323030487A0D0D0D0D0D0D0D0D0D74
S11305600D0D0D0D00363A20313530487A0D003529
S11305703A20313030487A0D00343A202035304862
S11305807A0D00333A20203130487A0D00323A2077
S1130590202035487A0D00313A20202031487A0D48
S11305A0002020204375746F66660D0033362E20BC
S11305B053656C65637465642046696C7465720088
S11305C033352E20456E61626C6520536F667477F7
S11305D06172652046696C7465722028592F4E2912
S11305E03A20002D2D2D4C4F572D5041535320466A
S11305F0494C544552204D454E552D2D2D0D000D81
S11306000D0D0D0D0D0D0D0D0D0020746F20000D41
S1130610526174656D562F733A200020746F200068
S11306200D456E646D563A2020200020746F200022
S11306300D0D53746172746D563A2000293A2000EE
S11306404E756D626572206F662053746F726564B7
S113065020456E74726965732028557020746F206C
S1130660000D0D0033342E204E756D626572206FBF
S113067066204379636C65730033332E20437963BA
S11306806C69632028592F4E293A200033322E20DA
S11306904765742053746F7265642056616C756588
S11306A0730D0033312E2044656C65746520416CF4
S11306B06C20456E74726965730D0033302E2044CE
S11306C0656C657465204C61737420456E74727931
S11306D00D0032392E205265706C61636520456EC1
S11306E07472792028456E74727923205374617270
S11306F0746D562053746F706D5620526174656D1D
S1130700562F73290D0032382E20417070656E64A7
S113071020456E747279202853746172746D56206A
S113072053746F706D5620526174656D562F732922
S11307300D002D2D2D4152424954524152592057FA
S1130740415645464F524D204D454E552D2D2D0DAC
S1130750000D0D0D0D0D0D0D0D0D0D0D0D0D0D0DD2
S11307600D0D0D0032372E205371756172652057BF
S11307706176652048616C6620506572696F6420FB
S11307806D730032362E2053717561726520576186
S1130790766520496E6372656D656E74206D5600D2
S11307A032352E205371756172652057617665204C
S11307B0416D706C6974756465206D560032342E19
S11307C020456E6420566F6C74616765206D560019
S11307D032332E20537461727420566F6C746167C7
S11307E065206D56002D2D2D5351554152452057EE
S11307F0415645204D454E552D2D2D0D000D0D0D09
S11308000D0D0D0D0D0D0D0D0D0D0D0D0D0D0D0021
S113081032322E204E756D626572206F66204379E8
S1130820636C65730032312E204379636C696320F5
S113083028592F4E293A200032302E2053776565EF
S1130840702052617465206D562F730031392E204B
S1130850456E6420566F6C74616765206D56003177
S1130860382E20537461727420566F6C74616765FE
S1130870206D56002D2D2D4C494E45415220535785
S1130880454550204D454E552D2D2D0D000D0D0D7A
S11308900D0D0D0D0D0D0D0D0D0D0D0D0D0D00316D
S11308A0372E205265636F7264204465706F7369DC
S11308B074696F6E2053657175656E636520285980
S11308C02F4E293A200031362E2051756965742047
S11308D054696D65206D730031352E204465706F49
S11308E0736974696F6E20566F6C74616765206DEF
S11308F0560031342E204465706F736974696F6ECD
S11309002054696D65206D730031332E20456E616E
S1130910626C65204465706F736974696F6E20281A
S1130920592F4E293A20002D2D2D4445504F53491F
S113093054494F4E204D454E552D2D2D0D004269E5
S11309407420303A20313075660D0D0D0D0D0D0DEE
S11309500D0D0D0D0D0D0042697420313A203175D5
S1130960660D0042697420323A202E3175660D00FE
S113097042697420333A202E303175660D00426985
S11309807420343A203130303070660D004269747E
S113099020353A2031303070660D0031322E20542B
S11309A0494120362D626974204361706163697422
S11309B06F72204D61736B20285858585858582925
S11309C03A200052203D20546170202A20313030DA
S11309D0303030202F2031303233204F686D730D8A
S11309E000204F686D730D00526573697374616EF6
S11309F06365203D200031312E2054494120526549
S1130A00736973746F7220546170002D2D2D5449D5
S1130A1041204D454E552D2D2D0D00582041626F1E
S1130A20727420546573740D0D0D0D0D0041205327
S1130A3074617274204172626974726172792057B0
S1130A40617665666F726D20546573740D00532072
S1130A5053746172742053717561726520576176A5
S1130A606520546573740D000D4C205374617274C9
S1130A70204C696E656172205377656570205465FA
S1130A8073740D0050726F647563742049443A2086
S1130A90004669726D776172652052657669736983
S1130AA06F6E3A200031302E2047657420736574D0
S1130AB074696E67730D0D00392E20204C6F772DED
S1130AC0706173732046696C746572204D656E7530
S1130AD00D00382E2020417262697472617279208F
S1130AE057617665666F726D204D656E750D0037C2
S1130AF02E20205371756172652057617665204DF3
S1130B00656E750D00362E20204C696E656172206D
S1130B105377656570204D656E750D00352E202068
S1130B204465706F736974696F6E204D656E750DE1
S1130B3000342E20205472616E73696D7065646197
S1130B406E636520416D706C6966696572204D65E0
S1130B506E750D00332E20204144432053616D7087
S1130B606C6520496E74657276616C206D73003219
S1130B702E20204E756D626572206F6620456C656F
S1130B806374726F646573202832206F7220332976
S1130B903A2000312E20205472616E736D69737394
S1130BA0696F6E204D6F646520284129534349497C
S1130BB02C20284D2961744C61622C20284229691B
S1130BC06E6172793A20002D2D2D4D41494E204DF4
S1130BD0454E552D2D2D0D004F4B0D004552520DF8
S1130BE00066616C7365007472756500293A2000B3
S1130BF020746F2000202800293A200020746F20E0
S1130C000020280066696C745F733D0066696C742B
S1130C105F653D006172625F63733D006172625F94
S1130C20633D006172625F6E3D0073717561726550
S1130C305F703D007371756172655F693D0073712A
S1130C40756172655F613D007371756172655F7690
S1130C50653D007371756172655F76733D007377EE
S1130C606565705F63733D0073776565705F633DB1
S1130C700073776565705F723D0073776565705FBB
S1130C8076653D0073776565705F76733D006465D6
S1130C90705F723D0071756965745F743D006465D1
S1130CA0705F763D006465705F743D006465705FDD
S1130CB0653D007469615F636D3D007469615F72D5
S1130CC0743D006164635F723D006E756D5F653DE8
S1130CD000273B0D0074785F6D3D27004F4B2E209D
S1130CE04F534343414C203D2000F41211241FBEB6
S1130CF0CFEFD8E0DEBFCDBF11E0A0E0B1E0E6E188
S1130D00FAE602C005900D92A032B107D9F721E0AE
S1130D10A0E2B1E001C01D92A639B207E1F71CE0E0
S1130D20CCEEDCE004C02297FE010E949134CA3E5E
S1130D30D107C9F70E94A0060C9409350C94000051
S1130D4089E491E00E945B1B89E491E00E94AF1664
S1130D50FFCF1F920F920FB60F9211242F933F9340
S1130D604F935F936F937F938F939F93AF93BF93AF
S1130D70CF93EF93FF93C091C60089E491E00E9462
S1130D8039138230B1F489E491E00E94CC148111CA
S1130D9007C081E0809374018C2F0E949A2D1DC09E
S1130DA0CF7DC835D1F461E189E491E00E94C81493
S1130DB014C089E491E00E94CC14811106C069E456
S1130DC071E08C2F0E94EB2508C0CF7DC83529F433
S1130DD061E189E491E00E94C814FF91EF91CF9101
S1130DE0BF91AF919F918F917F916F915F914F913F
S1130DF03F912F910F900FBE0F901F9018951F9247
S1130E000F920FB60F9211248F929F92AF92BF92BE
S1130E10CF92DF92EF92FF922F933F934F935F9382
S1130E206F937F938F939F93AF93BF93CF93DF93EE
S1130E30EF93FF93289A89E491E00E94CC1490E008
S1130E408231910510F00C948512FC01EC5CFF4F8B
S1130E500C948F34109275011092760110927701E0
S1130E6010927801109245011092460110924701A8
S1130E7010924801809174019FEF980F963018F4F6
S1130E808F5F8093740180917401863010F40C9408
S1130E9090121092740189E491E00E94B32D0C9495
S1130EA090120E946716109245011092460110920A
S1130EB047011092480189E491E00E94391381307E
S1130EC021F489E491E00E94112089E491E00E94D8
S1130ED09A13882309F460C089E491E00E94E9131D
S1130EE0882359F089E491E00E943913813029F470
S1130EF084E994E00E94E51524C089E491E00E940D
S1130F00E913882371F089E491E00E943913811177
S1130F1008C080E090E80E945F1A8CE20E948D1560
S1130F2010C089E491E00E94E913882351F089E418
S1130F3091E00E943913823021F480E090E80E940D
S1130F40951589E491E00E94CB1328EE33E0DC018F
S1130F500E94A4340E94DA322FE73AE649E454E4CA
S1130F600E943F3220E030EE4FEF54E40E94D7312C
S1130F700E94A73260934101709342018093430120
S1130F8090934401CB010E94101762E089E491E040
S1130F900E94C8140C94901289E491E00E94D31426
S1130FA0811107C067E089E491E00E94C8140C94A1
S1130FB0901289E491E00E94D314813039F46AE0FC
S1130FC089E491E00E94C8140C9490126DE089E4C5
S1130FD091E00E94C8140C94901289E491E00E945C
S1130FE0B413C0907501D0907601E0907701F09031
S1130FF07801C616D706E806F90608F09AC089E40F
S113100091E00E94B614882359F00E941D1769E4E8
S113101071E00E9431179093400180933F0106C014
S11310200E941D179093400180933F01C090750169
S1131030D0907601E0907701F090780189E491E016
S11310400E9453139C0140E050E0C701B6010E9486
S11310504E34672B682B692B09F056C089E491E064
S11310600E94E913882309F44FC089E491E00E94A7
S11310703913813099F580913F01909140010E948C
S11310805F1A8CE20E948D15809145019091460172
S1131090A0914701B0914801BC01CD016F5F7F4F22
S11310A08F4F9F4F60934501709346018093470192
S11310B090934801611571058105910529F12AE094
S11310C030E040E050E00E944E34672B682B692BDF
S11310D0D9F48FE894E00E94E51516C089E491E004
S11310E00E94391381110AC080913F0190914001FF
S11310F00E945F1A8CE20E948D1506C080913F0108
S1131100909140010E94951580917501909176010E
S1131110A0917701B09178010196A11DB11D809332
S1131120750190937601A0937701B09378010C94A4
S1131130901263E089E491E00E94C8140C94901228
S113114089E491E00E94E9138823E9F089E491E0BD
S11311500E943913813029F48AE894E00E94E5154D
S113116012C089E491E00E943913811108C080E023
S11311709FEF0E945F1A8CE20E948D1504C080E0EC
S11311809FEF0E94951589E491E00E94DF13672B7D
S1131190682B692B39F064E089E491E00E94C8145B
S11311A00C94901289E491E00E94D314811107C039
S11311B067E089E491E00E94C8140C94901289E4D9
S11311C091E00E94D314813039F46AE089E491E01B
S11311D00E94C8140C9490126DE089E491E00E947E
S11311E0C8140C949012109245011092460110926A
S11311F047011092480110927501109276011092E5
S113120077011092780189E491E00E94E913882320
S113121059F089E491E00E943913813029F486E879
S113122094E00E94E51524C089E491E00E94E9134A
S1131230882371F089E491E00E943913811108C078
S113124080E091E80E945F1A8CE20E948D1510C024
S113125089E491E00E94E913882351F089E491E044
S11312600E943913823021F480E091E80E949515A0
S113127065E089E491E00E94C8140C94901289E41A
S113128091E00E94DF13C0907501D0907601E09048
S11312907701F0907801C616D706E806F90608F03B
S11312A09AC089E491E00E94B614882359F00E9400
S11312B01D1769E471E00E943117909340018093F7
S11312C03F0106C00E941D179093400180933F0187
S11312D0C0907501D0907601E0907701F09078018C
S11312E089E491E00E9453139C0140E050E0C7015F
S11312F0B6010E944E34672B682B692B09F056C047
S113130089E491E00E94E913882309F44FC089E439
S113131091E00E943913813099F580913F019091B9
S113132040010E945F1A8CE20E948D158091450154
S113133090914601A0914701B0914801BC01CD01B3
S11313406F5F7F4F8F4F9F4F6093450170934601AE
S113135080934701909348016115710581059105BA
S113136029F12AE030E040E050E00E944E34672B3F
S1131370682B692BD9F481E894E00E94E51516C026
S113138089E491E00E94391381110AC080913F01E0
S1131390909140010E945F1A8CE20E948D1506C054
S11313A080913F01909140010E94951580917501B3
S11313B090917601A0917701B09178010196A11DD9
S11313C0B11D8093750190937601A0937701B0933A
S11313D078010C94901266E089E491E00E94C814AC
S11313E00C94901289E491E00E94E9138823E9F0B7
S11313F089E491E00E943913813029F48CE794E068
S11314000E94E51512C089E491E00E94391381110C
S113141008C080E09FEF0E945F1A8CE20E948D1545
S113142004C080E09FEF0E94951589E491E00E943A
S1131430D314811107C067E089E491E00E94C814C5
S11314400C94901289E491E00E94D314813039F411
S11314506AE089E491E00E94C8140C9490126DE053
S113146089E491E00E94C8140C94901281E0809366
S11314703E011092450110924601109247011092CC
S1131480480189E491E00E943D14880F80933D0156
S113149089E491E00E94FD13BC01882777FD8095C3
S11314A0982F0E94DA3220E030E04AE754E40E94A8
S11314B08E332FE73AE649E454E40E943F3220E0B9
S11314C030EE4FEF54E40E94D731609339017093AA
S11314D03A0180933B0190933C0189E491E00E949E
S11314E01214BC01882777FD8095982F0E94DA3268
S11314F020E030E04AE754E40E948E332FE73AE6D6
S113150049E454E40E943F3220E030EE4FEF54E4CB
S11315100E94D7316093350170933601809337016F
S11315209093380189E491E00E942614BC0180E084
S113153090E00E94D832609331017093320180931D
S11315403301909334011092750110927601109238
S11315507701109278012091350130913601409144
S11315603701509138016091390170913A018091AD
S11315703B0190913C010E943B32882324F481E09A
S11315808093300102C01092300189E491E00E94FE
S11315903913813069F483E70E948D1580913E01EF
S11315A090E00E945F1A89E794E00E94E51516C056
S11315B089E491E00E94391381110AC080913E01AF
S11315C090E09E570E945F1A8CE20E948D1506C01F
S11315D080913E0190E09E570E94951560913901DB
S11315E070913A0180913B0190913C010E94F1334A
S11315F00E94AC32CB010E9410170E9467168091A2
S1131600750190917601A0917701B09178010196CE
S1131610A11DB11D8093750190937601A09377016C
S1131620B093780168E089E491E00E94C81478C717
S113163060917501709176018091770190917801A4
S11316400E94D8322091310130913201409133010E
S1131650509134010E948E332FE73AE649E454E472
S11316600E943F3260932C0170932D0180932E01D0
S113167090932F0120913001213009F0D3C02091A3
S1131680390130913A0140913B0150913C010E9453
S1131690D731209135013091360140913701509175
S11316A038010E943B3288230CF080C089E491E029
S11316B00E94B614882359F00E941D1769E471E052
S11316C00E9431179093400180933F0106C00E940D
S11316D01D179093400180933F01C0907501D090F5
S11316E07601E0907701F090780189E491E00E941E
S11316F053139C0140E050E0C701B6010E944E34F0
S1131700672B682B692B09F073C089E491E00E9470
S113171039138130A1F580913F01909140010E94DD
S11317205F1A8CE20E948D158091450190914601CB
S1131730A0914701B0914801BC01CD016F5F7F4F7B
S11317408F4F9F4F609345017093460180934701EB
S113175090934801611571058105910509F448C00C
S11317602AE030E040E050E00E944E34672B682BC2
S1131770692BF1F584E794E00E94E51539C089E40A
S113178091E00E94391381110AC080913F01909128
S113179040010E945F1A8CE20E948D1529C080913D
S11317A03F01909140010E94951522C069E089E4AF
S11317B091E00E94C81489E491E00E9439138130B9
S11317C029F48FE694E00E94E51512C089E491E0C3
S11317D00E943913811108C080E09FEF0E945F1AB4
S11317E08CE20E948D1504C080E09FEF0E94951545
S11317F020912C0130912D0140912E0150912F0107
S11318006091390170913A0180913B0190913C01C2
S11318100E94D7310E94F1330E94AC32CB010E9466
S11318201017D4C09B01AC016091390170913A0149
S113183080913B0190913C010E94D6312091350169
S11318403091360140913701509138010E948A331A
S113185018160CF080C089E491E00E94B614882325
S113186059F00E941D1769E471E00E9431179093AA
S1131870400180933F0106C00E941D1790934001D0
S113188080933F01C0907501D0907601E09077017C
S1131890F090780189E491E00E9453139C0140E0A8
S11318A050E0C701B6010E944E34672B682B692BA8
S11318B009F073C089E491E00E9439138130A1F5E5
S11318C080913F01909140010E945F1A8CE20E9436
S11318D08D158091450190914601A0914701B091E9
S11318E04801BC01CD016F5F7F4F8F4F9F4F6093C5
S11318F04501709346018093470190934801611517
S113190071058105910509F448C02AE030E040E002
S113191050E00E944E34672B682B692BF1F58AE660
S113192094E00E94E51539C089E491E00E943913DE
S113193081110AC080913F01909140010E945F1A79
S11319408CE20E948D1529C080913F019091400145
S11319500E94951522C069E089E491E00E94C814B0
S113196089E491E00E943913813029F485E694E0FA
S11319700E94E51512C089E491E00E943913811197
S113198008C080E09FEF0E945F1A8CE20E948D15D0
S113199004C080E09FEF0E94951520912C013091A6
S11319A02D0140912E0150912F01609139017091C8
S11319B03A0180913B0190913C010E94D6310E94F2
S11319C0F1330E94AC32CB010E9410178091750153
S11319D090917601A0917701B09178010196A11DB3
S11319E0B11D8093750190937601A0937701B09314
S11319F0780196C5109275011092760110927701C4
S1131A0010927801109245011092460110924701FC
S1131A101092480180913E018F5F80933E0189E4DA
S1131A2091E00E942E14882309F47CC590913E0114
S1131A3080913D01891708F082C574C583E70E942F
S1131A408D1580913E0190E00E945F1A82E694E039
S1131A500E94E51516C089E491E00E9439138111B2
S1131A600AC080913E0190E09E570E945F1A8CE26A
S1131A700E948D1506C080913E0190E09E570E9401
S1131A80951568E089E491E00E94C81449C58091E5
S1131A903D018093270103C081E08093270160E129
S1131AA089E491E00E94C8143BC51092450110924C
S1131AB0460110924701109248011092750110924C
S1131AC07601109277011092780181E080933D01B4
S1131AD01092260110922C0110922D0110922E01C9
S1131AE010922F0189E491E00E945114BC018827CF
S1131AF077FD8095982F0E94DA3220E030E04AE7A3
S1131B0054E40E948E332FE73AE649E454E40E94F9
S1131B103F3220E030EE4FEF54E40E94D73160931F
S1131B20390170933A0180933B0190933C0189E41D
S1131B3091E00E946614BC01882777FD8095982F58
S1131B400E94DA3220E030E04AE754E40E948E3307
S1131B502FE73AE649E454E40E943F3220E030EEB5
S1131B604FEF54E40E94D7316093350170933601EE
S1131B70809337019093380189E491E00E947514B1
S1131B80BC0180E090E00E94D83220E030E04AE7D7
S1131B9054E40E948E332FE73AE649E454E40E9469
S1131BA03F32609322017093230180932401909328
S1131BB02501209135013091360140913701509132
S1131BC038016091390170913A0180913B01909103
S1131BD03C010E943B32882324F481E0809330014D
S1131BE002C01092300189E491E00E9439138130DF
S1131BF069F483E70E948D1580913D0190E00E9475
S1131C005F1A8FE594E00E94E51516C089E491E01F
S1131C100E94391381110AC080913D0190E09C57C4
S1131C200E945F1A8CE20E948D1506C080913D01CE
S1131C3090E09C570E949515209122013091230138
S1131C4040912401509125016091390170913A012C
S1131C5080913B0190913C010E94D7310E94F13365
S1131C600E94AC32CB010E9410170E9467166BE0F1
S1131C7089E491E00E94C81453C489E491E00E946D
S1131C809814A0E0B0E04091750150917601609104
S1131C90770170917801481759076A077B0708F4A0
S1131CA050C280913001813009F01DC160912C0136
S1131CB070912D0180912E0190912F010E94A732E5
S1131CC00E94DA322091390130913A0140913B016E
S1131CD050913C010E94D731209135013091360159
S1131CE040913701509138010E943B3218160CF490
S1131CF0F4C080912601811128C00E941D17909381
S1131D0021018093200120912C0130912D014091DB
S1131D102E0150912F016091390170913A01809107
S1131D203B0190913C010E94D731209122013091D6
S1131D30230140912401509125010E94D6310E9433
S1131D40AC32CB010E941017EEC10E941D172091E6
S1131D502001309121012817390728F4109221011C
S1131D601092200106C0281B390B309321012093C7
S1131D702001809120019091210190934001809352
S1131D803F0189E491E00E943913813099F58091F3
S1131D903F01909140010E945F1A8CE20E948D15D0
S1131DA08091450190914601A0914701B09148016D
S1131DB0BC01CD016F5F7F4F8F4F9F4F60934501F3
S1131DC07093460180934701909348016115710512
S1131DD08105910529F12AE030E040E050E00E94BD
S1131DE04E34672B682B692BD9F48AE594E00E9462
S1131DF0E51516C089E491E00E94391381110AC0E7
S1131E0080913F01909140010E945F1A8CE20E94F0
S1131E108D1506C080913F01909140010E94951557
S1131E2089E491E00E9484149C01A8EEB3E00E942E
S1131E3095340E94DA322FE73AE649E454E40E94EA
S1131E403F3220912C0130912D0140912E0150916F
S1131E502F010E94D7316B017C0160932C01709398
S1131E602D0180932E0190932F0180903901909041
S1131E703A01A0903B01B0903C010E94A7320E941D
S1131E80DA32A50194010E94D731209135013091B5
S1131E90360140913701509138010E948A33181657
S1131EA034F46CE089E491E00E94C8143CC1A501BB
S1131EB09401C701B6010E94D731209122013091CB
S1131EC0230140912401509125010E94D7310E94A1
S1131ED0AC32CB010E94101726C16CE089E491E07A
S1131EE00E94C81420C160912C0170912D01809131
S1131EF02E0190912F010E94A7320E94DA329B0199
S1131F00AC016091390170913A0180913B0190914B
S1131F103C010E94D6312091350130913601409127
S1131F203701509138010E948A3388230CF4F6C09B
S1131F3080912601811128C00E941D1790932101D0
S1131F408093200120912C0130912D0140912E018C
S1131F5050912F016091390170913A0180913B01B8
S1131F6090913C010E94D6312091220130912301AD
S1131F7040912401509125010E94D6310E94AC3237
S1131F80CB010E941017CFC00E941D172091200181
S1131F90309121012817390728F410922101109259
S1131FA0200106C0281B390B309321012093200106
S1131FB080912001909121019093400180933F01F1
S1131FC089E491E00E943913813099F580913F01B1
S1131FD0909140010E945F1A8CE20E948D158091BD
S1131FE0450190914601A0914701B0914801BC017F
S1131FF0CD016F5F7F4F8F4F9F4F6093450170936B
S1132000460180934701909348016115710581054C
S1132010910529F12AE030E040E050E00E944E347E
S1132020672B682B692BD9F485E594E00E94E515AC
S113203016C089E491E00E94391381110AC080918D
S11320403F01909140010E945F1A8CE20E948D151D
S113205006C080913F01909140010E94951589E44A
S113206091E00E9484149C01A8EEB3E00E94953490
S11320700E94DA322FE73AE649E454E40E943F3200
S113208020912C0130912D0140912E0150912F016E
S11320900E94D7316B017C0160932C0170932D0158
S11320A080932E0190932F018090390190903A01F2
S11320B0A0903B01B0903C010E94A7320E94DA320A
S11320C09B01AC01C501B4010E94D63120913501B8
S11320D03091360140913701509138010E943B32D2
S11320E0882334F46CE089E491E00E94C8141BC096
S11320F0A7019601C501B4010E94D63120912201A5
S11321003091230140912401509125010E94D7313F
S11321100E94AC32CB010E94101705C06CE089E428
S113212091E00E94C81410927501109276011092E9
S11321307701109278019091260181E0892780939C
S113214026018091750190917601A0917701B0915B
S113215078010196A11DB11D8093750190937601BC
S1132160A0937701B0937801DBC18FEF97E00E94D1
S113217010170E948B1681E08093270189E491E077
S11321800E943913813029F480E594E00E94E5151A
S113219012C089E491E00E943913811108C080E0E3
S11321A09FEF0E945F1A8CE20E948D1504C080E0AC
S11321B09FEF0E94951560E189E491E00E94C814A4
S11321C0AFC10E94671686E494E00E94E51560E0C2
S11321D089E491E00E94C814A3C181E494E00E94C0
S11321E0E51560E089E491E00E94C81499C187E391
S11321F094E00E94E51560E089E491E00E94C8142F
S11322008FC189E491E00E943913813009F054C1EF
S11322108EE194E00E94E51589E491E00E94E913BF
S1132220882331F189E491E00E949A13882301F113
S11322308DEF93E00E94E51584ED93E00E94E5158F
S113224088EC93E00E94E51588EB93E00E94E51585
S113225081EA93E00E94E5158CE893E00E94E5157D
S11322608DE693E00E94E51582E693E00E94E51571
S113227089E491E00E94E913882371F189E491E0F3
S11322800E949A13882341F189E491E00E94DF13AC
S1132290672B682B692B01F181E493E00E94E5151B
S11322A086E193E00E94E5158AE093E00E94E5153B
S11322B08AEF92E00E94E51583EE92E00E94E51514
S11322C08EEC92E00E94E5158FEA92E00E94E515FB
S11322D084EA92E00E94E51580912701882309F49D
S11322E05EC0C1E0D0E08FE992E00E94E515CE0126
S11322F00E945F1A8AE992E00E94E515CE010E94CD
S11323005F1A89E491E00E94D314811104C084E926
S113231092E00E94E51580E892E00E94E51584E7CA
S11323200E948D15CE010E945F1A85E792E00E94FB
S1132330E51589E491E00E94D314813029F487E5FE
S113234092E00E94E51504C08BE392E00E94E5153B
S11323508EE292E00E94E515CE010E945F1A89E2A6
S113236092E00E94E515C0FD12C084E292E00E9452
S1132370E515CE010E945F1A87E192E00E94E515FF
S1132380CE010E945F1A83E192E00E94E515219636
S11323908091270190E08C179D0708F0A4CF87E077
S11323A092E00E94E51581E092E00E94E51580919B
S11323B027018823D9F1C1E0D0E084E70E948D157C
S11323C0CE010E945F1A8CE20E948D158CEF91E081
S11323D00E94E515CE010E945F1A8091270190E0CA
S11323E0C817D90718F48CE20E948D152097B9F00C
S11323F09E01ADECBCEC0E9495349695879596951C
S113240087959C01220F331F220F331F820F931FC6
S1132410C817D90721F487EF91E00E94E5152196AA
S11324208091270190E08C179D0738F683EF91E0A7
S11324300E94E5158CED91E00E94E51587EC91E092
S11324400E94E5158FEB91E00E94E515809127012C
S1132450823020F087EB91E00E94E51589E491E059
S11324600E94D314811105C08AEA91E00E94E51507
S113247004C08EE991E00E94E51580912701823025
S113248090F08BE991E00E94E515809127018695F3
S113249090E00E945F1A89E991E00E94E51581E9C4
S11324A091E00E94E5158DE891E00E94E51582E82F
S11324B091E00E94E51509C089E491E00E94391376
S11324C0811103C08DE00E948D1560E089E491E0E4
S11324D00E94C81425C089E491E00E943913813018
S11324E029F484E791E00E94E5150FC089E491E0A6
S11324F00E943913811105C080E090EF0E945F1A99
S113250004C080E090EF0E9495150E948B168FEF17
S113251097E00E94101760E089E491E00E94C814DB
S1132520289847C00E948B168FEF97E00E941017DF
S113253089E491E00E942E148111A9CAADCA909138
S1132540300181E0892780933001609139017091D5
S11325503A0180913B0190913C010E94A732609323
S113256028017093290180932A0190932B01C09034
S11325703501D0903601E0903701F0903801C092D7
S11325803901D0923A01E0923B01F0923C010E9461
S1132590DA3260933501709336018093370190935A
S11325A0380189E491E00E943913813009F053CA5B
S11325B045CAFF91EF91DF91CF91BF91AF919F9168
S11325C08F917F916F915F914F913F912F91FF90E8
S11325D0EF90DF90CF90BF90AF909F908F900F902F
S11325E00FBE0F901F90189589E491E00E94F91294
S11325F00895FC01A1E0A083A18382E090E093838D
S113260082838AE090E0958384831682A78340E6E0
S11326105AEE60E070E040875187628773872CE050
S11326203EEF3587248716861786108A118AA28B77
S1132630348B238B44EF51E0568B458B908F878BE3
S1132640118E65E0628F348F238F568F458F29E179
S113265030E030A3278F92A381A394A383A315A270
S113266066A317A2A0A711A60895FC01608380E0C9
S11326700895FC0180810895FC01618380E0089540
S1132680FC0181810895693E23E0720740F46115DD
S1132690710539F0FC017383628380E0089582E060
S11326A0089581E00895FC01828193810895611564
S11326B024E0720740F56115710539F16530710543
S11326C038F421E030E0FC013583248380E0089570
S11326D06233710538F42AE030E0FC013583248349
S11326E080E00895643F714038F426E630E0FC0150
S11326F03583248380E008952FEF33E0FC01358394
S1132700248380E0089582E0089581E00895FC0127
S1132710848195810895603420F4FC01668380E00F
S1132720089582E00895FC0186810895FC01678381
S113273080E00895FC0187810895413025E3520724
S11327402CE06207710560F44115510561057105BE
S113275049F0FC01408751876287738780E00895C0
S113276082E0089581E00895FC0160857185828589
S113277093850895633726E072074CF46E38E9EFC9
S11327807E073CF0FC017587648780E0089582E051
S1132790089581E00895FC0184859585089541306C
S11327A025E352072CE06207710538F4FC014687E3
S11327B05787608B718B80E0089582E00895FC0157
S11327C066857785808991890895FC01628B80E014
S11327D00895FC0182890895633726E072074CF45A
S11327E06E38E9EF7E073CF0FC01748B638B80E06C
S11327F0089582E0089581E00895FC018389948915
S11328000895633726E072074CF46E38E9EF7E07CB
S11328103CF0FC01768B658B80E0089582E008959E
S113282081E00895FC01858996890895613D27E03A
S1132830720740F46115710539F0FC01708F678BE4
S113284080E0089582E0089581E00895FC0187897D
S1132850908D0895FC01618F80E00895FC01818DC5
S11328600895653630F4662331F0FC01628F80E010
S1132870089582E0089581E00895FC01828D089511
S1132880633726E072074CF46E38E9EF7E073CF0BC
S1132890FC01748F638F80E0089582E0089581E0E5
S11328A00895FC01838D948D0895633726E07207A3
S11328B04CF46E38E9EF7E073CF0FC01768F658FAF
S11328C080E0089582E0089581E00895FC01858DFB
S11328D0968D0895633726E0720728F4FC0170A3EF
S11328E0678F80E0089582E00895FC01878D90A1B0
S11328F00895633726E0720728F4FC0172A361A3EC
S113290080E0089582E00895FC0181A192A10895D8
S1132910613127E2720740F46115710539F0FC0159
S113292074A363A380E0089582E0089581E008958C
S1132930FC0183A194A10895FC0165A380E008959E
S1132940FC0185A10895653630F4662331F0FC015D
S113295066A380E0089582E0089581E00895FC0173
S113296086A10895FC0167A380E00895FC0187A176
S11329700895683030F4662331F0FC0160A780E0EC
S1132980089582E0089581E00895FC0180A50895EA
S1132990FC0161A780E00895FC0181A50895FC0174
S11329A062A780E00895FC0182A50895F8940E942E
S11329B0F43460E070E080E090E00E94F4347894B5
S11329C00895F8940E94E034789408950E94E034C5
S11329D00895F8940E94E63460E080E090E00E945C
S11329E0E63478940895F8940E94D834789408953D
S11329F0239A259A229A81E58CBD2B9A2C9A0895C4
S1132A008EBD0DB407FEFDCF08958FEF8EBD0DB4BE
S1132A1007FEFDCF8EB50895ECEBF0E0108282E066
S1132A208093B8001092B90084E48083089524EA66
S1132A302093BC00ECEBF0E020812223ECF7209102
S1132A40B900287F283019F4FC01108208952091E0
S1132A50B900287FFC012083089580FD02C048E16D
S1132A6001C040E48093BB0084E88093BC00ECEB9D
S1132A70F0E090819923ECF72091B900287F30E0B1
S1132A80842F90E02817390719F4FB011082089568
S1132A908091B900887FFB01808308958093BB00F7
S1132AA084E88093BC00ECEBF0E080818823ECF7B1
S1132AB08091B900887F883219F4FB01108208954F
S1132AC08091B900887FFB018083089524E82093D6
S1132AD0BC00ECEBF0E020812223ECF72091B9005C
S1132AE0287F283519F4FC01108205C02091B90013
S1132AF0287FFC0120838091BB00089584E98093A2
S1132B00BC0008959093C5008093C40088E9809325
S1132B10C10086E08093C2000895E0ECF0E090816B
S1132B2095FFFDCF8093C6000895E0ECF0E020818E
S1132B3025FFFDCF9093C600E0ECF0E0908195FF77
S1132B40FDCF8093C60008950F931F93E0ECF0E04F
S1132B50208125FFFDCF092F11272227332700933A
S1132B60C600E0ECF0E0208125FFFDCF8C01222798
S1132B7033270093C600E0ECF0E0208125FFFDCF71
S1132B80072F182F292F33270093C600E0ECF0E01D
S1132B90208125FFFDCF6093C6001F910F910895FA
S1132BA01F93CF93DF93EC018881882351F010E0C9
S1132BB01F5F0E948D15FE01E10FF11D80818111BF
S1132BC0F7CFDF91CF911F910895CF93DF93EC015D
S1132BD0FE012491222351F0FC0184910E948D1561
S1132BE02196CE01FE0124912111F6CFDF91CF91E0
S1132BF00895882321F081E00E948D15089580E0D6
S1132C000E948D1508951F93CF93DF93EC0185E9FE
S1132C1091E00E94171565E971E087E90E942D157E
S1132C2085E991E00E946615182F0E947E15CE0159
S1132C300E949313137024E0829FC0011124EC01BD
S1132C40C12B85E991E00E94171565E971E086E9D9
S1132C500E942D1565E971E08C2F0E944E150E948B
S1132C607E15DF91CF911F9108951F93CF93DF932A
S1132C70EC0185E991E00E94171565E971E087E9A7
S1132C800E942D1585E991E00E946615182F0E9477
S1132C907E15CE010E944013811103C0C12FC26072
S1132CA002C0C12FCD7F85E991E00E94171565E927
S1132CB071E086E90E942D1565E971E08C2F0E9470
S1132CC04E150E947E15DF91CF911F910895CF93E9
S1132CD085E991E00E94171565E971E087E90E9492
S1132CE02D1585E991E00E946615C82F0E947E1576
S1132CF085E991E00E94171565E971E086E90E9473
S1132D002D1565E971E08C2F81600E944E150E949B
S1132D107E15CF910895CF9385E991E00E94171510
S1132D2065E971E087E90E942D1585E991E00E942B
S1132D306615C82F0E947E1585E991E00E9417153B
S1132D4065E971E086E90E942D1565E971E08C2F33
S1132D508E7F0E944E150E947E15CF9108951F9379
S1132D60CF93DF930E948713EC0185E991E00E94E1
S1132D70171565E971E087E90E942D1585E991E051
S1132D800E946615182F0E947E151370C130D1055C
S1132D9011F410620BC0CA30D10511F4106106C0E1
S1132DA0C636D10511F4186001C0146085E991E0BC
S1132DB00E94171565E971E086E90E942D1565E901
S1132DC071E0812F0E944E150E947E15DF91CF91F4
S1132DD01F910895CF93DF93EC0185E991E00E9460
S1132DE0171565E971E088E50E942D1565E971E024
S1132DF08CE10E944E1565E971E082E00E944E1557
S1132E000E947E150E948B16CE010E940316CE01ED
S1132E100E943516CE010E94AF16DF91CF9108951E
S1132E20CF93C82F2A98892F80670E9400158C2F72
S1132E300E9400152A9ACF910895CF9329980E9451
S1132E400515C82F0E94051590E8C99F900111240B
S1132E5090E095958795822B932B299A9F70CF911B
S1132E600895CF92DF92EF92FF920F931F93CF9327
S1132E70DF938B01ECE0F1E0408151816281738149
S1132E80409308015093090160930A0170930B0168
S1132E90C0E1D1E0488159816A817B8140835183BB
S1132EA062837383BC0180E090E00E94D83268831F
S1132EB079838A839B83C8010E94C514833009F4F3
S1132EC0DEC030F4813069F0823009F471C073C21D
S1132ED0853009F4A2C108F439C1863009F404C26A
S1132EE06AC221E13FE844E258E360911001709125
S1132EF0110180911201909113010E948E336B0194
S1132F007C0121E13FE844EA58E360910C017091AF
S1132F100D0180910E0190910F010E948E339B014F
S1132F20AC01C701B6010E94D7316B017C0121E1DC
S1132F303FE844E258E360910801709109018091EF
S1132F400A0190910B010E948E339B01AC01C701D1
S1132F50B6010E94D7316B017C0127EE38EB4DEFAF
S1132F605FE36091040170910501809106019091E5
S1132F7007010E948E339B01AC01C701B6010E9478
S1132F80D7316B017C0127E13CE74BE75FE36091BC
S1132F9000017091010180910201909103010E944E
S1132FA08E339B01AC01C701B6010E94D63169C2C0
S1132FB02EE131EC4CE35AE3609110017091110160
S1132FC080911201909113010E948E336B017C0158
S1132FD02EE131EC4CEB5AE360910C0170910D0140
S1132FE080910E0190910F010E948E339B01AC01E0
S1132FF0C701B6010E94D7316B017C012EE131EC8F
S11330004CE35AE3609108017091090180910A012F
S113301090910B010E948E339B01AC01C701B60154
S11330200E94D7316B017C0126E43AE146EF5FE36D
S1133030609104017091050180910601909107014E
S11330400E948E339B01AC01C701B6010E94D731A7
S11330506B017C012DE431EF4CE65FE360910001EC
S11330607091010180910201909103010E948E33BD
S11330709B01AC01C701B6010E94D63102C228EA05
S113308036E447E35BE36091100170911101809194
S11330901201909113010E948E336B017C0128EA86
S11330A036E447EB5BE360910C0170910D01809174
S11330B00E0190910F010E948E339B01AC01C70158
S11330C0B6010E94D7316B017C0128EA36E447E35C
S11330D05BE3609108017091090180910A0190916C
S11330E00B010E948E339B01AC01C701B6010E9403
S11330F0D7316B017C0124EE36E24CEE5FE3609144
S113310004017091050180910601909107010E94CC
S11331108E339B01AC01C701B6010E94D7316B010C
S11331207C0123EE3AE24BE55FE36091000170918C
S1133130010180910201909103010E948E339B0151
S1133140AC01C701B6010E94D6319BC12DE738E915
S11331504DE75DE3609110017091110180911201BE
S1133160909113010E948E336B017C012DE738E9A5
S11331704DEF5DE360910C0170910D0180910E01A2
S113318090910F010E948E339B01AC01C701B601DF
S11331900E94D7316B017C012DE738E94DE75DE3EF
S11331A0609108017091090180910A0190910B01CD
S11331B00E948E339B01AC01C701B6010E94D73136
S11331C06B017C0121ED38E747E95FE3609104017D
S11331D07091050180910601909107010E948E3340
S11331E09B01AC01C701B6010E94D7316B017C0180
S11331F022E83FEA4CED5EE3609100017091010129
S113320080910201909103010E948E339B01AC01D5
S1133210C701B6010E94D63134C125E13AEA49E634
S11332205EE36091100170911101809112019091FF
S113323013010E948E336B017C0125E13AEA49EEC9
S11332405EE360910C0170910D0180910E019091EB
S11332500F010E948E339B01AC01C701B6010E948D
S1133260D7316B017C0125E13AEA49E65EE36091DE
S113327008017091090180910A0190910B010E944B
S11332808E339B01AC01C701B6010E94D7316B019B
S11332907C012DE739E34BE85EE360910401709112
S11332A0050180910601909107010E948E339B01D4
S11332B0AC01C701B6010E94D7316B017C012DE43A
S11332C03BE14DE35EE36091000170910101809167
S11332D00201909103010E948E339B01AC01C7014E
S11332E0B6010E94D631CDC028EB32E747E85EE351
S11332F0609110017091110180911201909113015C
S11333000E948E336B017C0128EB32E747E05FE3D8
S113331060910C0170910D0180910E0190910F014B
S11333200E948E339B01AC01C701B6010E94D731C4
S11333306B017C0128EB32E747E85EE3609108010A
S11333407091090180910A0190910B010E948E33C2
S11333509B01AC01C701B6010E94D7316B017C010E
S113336025E730E14DEE5DE36091040170910501C4
S113337080910601909107010E948E339B01AC015C
S1133380C701B6010E94D7316B017C012BEF3DE1EF
S113339042E35EE3609100017091010180910201BA
S11333A0909103010E948E339B01AC01C701B601C9
S11333B00E94D63166C02AE732E64BEB5EE36091A9
S11333C010017091110180911201909113010E94DA
S11333D08E336B017C012AE732E64BE35FE36091B5
S11333E00C0170910D0180910E0190910F010E94CA
S11333F08E339B01AC01C701B6010E94D7316B012A
S11334007C012AE732E64BEB5EE3609108017091A0
S1133410090180910A0190910B010E948E339B0156
S1133420AC01C701B6010E94D7316B017C012FE7C3
S113343036EA4EE85EE360910401709105018091E3
S11334400601909107010E948E339B01AC01C701D4
S1133450B6010E94D6316B017C0122ED36EC4DE3BE
S11334605EE36091000170910101809102019091ED
S113347003010E948E339B01AC01C701B6010E9477
S1133480D631E4E0F1E0008111812281338100939F
S11334900001109301012093020130930301608322
S11334A07183828393830E94AC32CB01DF91CF91ED
S11334B01F910F91FF90EF90DF90CF900895DF92CE
S11334C0EF92FF920F931F93CF93DF93F82EE92E81
S11334D004E010E0C0E1D7E240E0DD24D3948F2D76
S11334E09E2DBE010E943A346115710511F44423E6
S11334F061F080E3860F0E948D158F2D9E2DBE01F5
S11335000E943A34F82EE92E4D2D9E01ADECBCEC10
S11335100E949534EC01D695C795D695C795D69556
S1133520C7950150110901151105C9F680E38F0DE6
S11335300E948D15DF91CF911F910F91FF90EF9015
S1133540DF9008954F925F926F927F928F929F9235
S1133550AF92BF92CF92DF92EF92FF920F931F939D
S1133560CF93DF93162F672E782E092FC9E0D0E072
S11335700F2EC12CFAECDF2EFAE9EF2EFBE3FF2E1F
S1133580F02D512C442443940F2EFAE08F2E912CCD
S1133590A12CB12CF02D612F762D872D902FA70112
S11335A096010E944E34211531054105510511F44F
S11335B0552089F080E3820F0E948D15612F762DAE
S11335C0872D902FA70196010E944E34162F672E47
S11335D0782E092F542CC701B601A50194010E942D
S11335E04E3469017A0121972097A9F680E3810F6F
S11335F00E948D15DF91CF911F910F91FF90EF9055
S1133600DF90CF90BF90AF909F908F907F906F90FE
S11336105F904F900895CF93DF934A9949C01092D9
S1133620660090E020E040E0A0ECB0E0C6ECD0E022
S1133630E6E6F0E051E032E08C918823ECF78881F3
S1133640992319F0913049F012C0853511F4408165
S1133650952F80818F5F8083EFCF853521F4808122
S11336608F5F8083E9CF20812150932FE5CF30E015
S1133670241B3109C90199230CF40196959587956A
S1133680840FC6E6D0E088838CED9CE00E94E515AB
S1133690688170E080E090E00E94A21A8DE00E94B0
S11336A08D15688182E090E00E94E914F894FFCFC0
S11336B0DF91CF9108950F931F93CF93DF9300D0A1
S11336C0CDB7DEB78C011A82198289819A81803143
S11336D097425CF429813A812F5F3F4F3A832983D3
S11336E029813A8120313742ACF30E940C150E94A3
S11336F0F81481E090E00E94821581E680936400D2
S113370080E880BF85B1806C85B988B18FEF88B9B6
S11337108BB18C6F8BB9219A229A209A299A2A9A72
S113372089E0809381008FE09DE1909389008093EC
S1133730880082E080936F008FEF97E00E9410175B
S1133740C8010E94EA160E940B1B82E090E00E94CE
S1133750F3148093660078940F900F90DF91CF91CB
S11337601F910F9108952F923F924F925F926F9203
S11337707F928F929F92AF92BF92CF92DF92EF92FD
S1133780FF920F931F93CF93DF9300D01F92CDB777
S1133790DEB76B017C0199230CF041C08DE20E94DD
S11337A08D15F094E094D094C094C11CD11CE11CFC
S11337B0F11C35C00C2D1D2DEB82FA82C701B60118
S11337C0A50194010E944E3421153105410551058E
S11337D019F48981882381F080E3820F0E948D157A
S11337E0602F712F8B819A81A50194010E944E3420
S11337F06B017C01E1E0E983C501B401A3019201FD
S11338000E944E3449015A01F1E02F1A3108211463
S1133810310481F680E38C0D0E948D1515C009E0FA
S113382010E00F2E812CFAEC9F2EFAE9AF2EFBE369
S1133830BF2EF02D19820F2EFAE04F2E512C612C41
S1133840712CF02D1801B6CF0F900F900F90DF91CF
S1133850CF911F910F91FF90EF90DF90CF90BF9089
S1133860AF909F908F907F906F905F904F903F901C
S11338702F9008952F923F924F925F926F927F9272
S11338808F929F92AF92BF92CF92DF92EF92FF926C
S11338900F931F93CF93DF93CDB7DEB728970FB65F
S11338A0F894DEBF0FBECDBF9E838D837C836B8374
S11338B04A83DC015C91541709F497C080ED850FAD
S11338C08A3008F06BC04D01BFEF8B1A9B0AE1E010
S11338D0F0E0612C712CD12CE12CF12C00E0B12C06
S11338E0C12C80E090E00AC09F012F5F3F4F40ED64
S11338F0450F4A3008F052C03F01F90155245A944B
S11339005E0EA52FB0E0D0971B2F110F110B2D2D9C
S11339103E2D4F2D502F6B2D7C2DAA2EBB2EC12E4C
S1133920D12EE12EF12E012F0E94CF34192FD22E49
S1133930E32EF42E052FB62EC72E912FAD81BE8116
S1133940A60DB71D1196AC91A053AA3080F501E0E5
S11339500E94B634222E332E442E652E762EA72FA7
S11339608F83B92F02E00E94B634A22EB32EC42E48
S1133970D52EE62EF72E082F192F222D332D442D68
S1133980562D672D7A2F8F819B2F0E94CF34D22EF4
S1133990E32EF42E052FB62EC72E09C081E0EB814D
S11339A0FC81808360E070E080E090E02EC0D40170
S11339B05D914D01BA815B1721F0EA30F10509F000
S11339C093CF26EF250D263F80F02D2D3E2D4F2D34
S11339D0502F6B2D7C2D2F3F3F4F4F4F5F4F610575
S11339E071058105910551F048F081E0AB81BC81FE
S11339F08C9360E070E080E090E007C0EB81FC8194
S1133A0010826D2D7E2D8F2D902F28960FB6F89451
S1133A10DEBF0FBECDBFDF91CF911F910F91FF90FD
S1133A20EF90DF90CF90BF90AF909F908F907F905A
S1133A306F905F904F903F902F9008952F923F92F8
S1133A404F925F926F927F928F929F92AF92BF92AA
S1133A50CF92DF92EF92FF920F931F93CF93DF9356
S1133A60CDB7DEB729970FB6F894DEBF0FBECDBF32
S1133A709F838E837C836B834A83DC018C918D329C
S1133A8031F41196BF83AE83B1E0BD8301C01D82C2
S1133A90EE81FF815081FA815F1709F487C080EDC0
S1133AA0850F8A3008F06CC08E809F802FEF821AB9
S1133AB0920AE1E0F0E0612C712CD12CE12CF12C84
S1133AC000E0B12CC12C80E090E00AC09F012F5F80
S1133AD03F4F40ED450F4A3008F052C03F01F90115
S1133AE055245A945E0EA52FB0E0D0971B2F110FCA
S1133AF0110B2D2D3E2D4F2D502F6B2D7C2DAA2ECD
S1133B00BB2EC12ED12EE12EF12E012F0E94CF34D7
S1133B10192FD22EE32EF42E052FB62EC72E912F59
S1133B20AE81BF81A60DB71D1196AC91A053AA30EA
S1133B3080F501E00E94B634222E332E442E652EE9
S1133B40762EA72F8887B92F02E00E94B634A22EC2
S1133B50B32EC42ED52EE62EF72E082F192F222D84
S1133B60332D442D562D672D7A2F88859B2F0E9447
S1133B70CF34D22EE32EF42E052FB62EC72E09C035
S1133B8081E0AB81BC818C9360E070E080E090E0E8
S1133B9064C0D4015D914D01BA815B1721F0EA3014
S1133BA0F10509F093CFE9E0E51548F481E0AB8134
S1133BB0BC818C9360E070E080E090E04EC0BD81F9
S1133BC0B11119C02D2D3E2D4F2D502F6B2D7C2D55
S1133BD02F3F3F4F4F4F5F476105710581059105A9
S1133BE0B9F1B0F181E0AB81BC818C9360E070E00D
S1133BF080E090E032C02D2D3E2D4F2D502F6B2DA7
S1133C007C2D21153105410550486105710581055B
S1133C10910591F088F081E0EB81FC81808360E084
S1133C2070E080E090E019C0AB81BC811C926C2DE7
S1133C307D2D8E2D9F2D11C04D2D5E2D6F2D702F3E
S1133C40CC24DD247601C41AD50AE60AF70AECCF9F
S1133C50CD2CDE2CEF2CF02EE7CF29960FB6F8945E
S1133C60DEBF0FBECDBFDF91CF911F910F91FF90AB
S1133C70EF90DF90CF90BF90AF909F908F907F9008
S1133C806F905F904F903F902F9008952F923F92A6
S1133C904F925F926F927F928F929F92AF92BF9258
S1133CA0CF92DF92EF92FF920F931F93CF93DF9304
S1133CB0CDB7DEB729970FB6F894DEBF0FBECDBFE0
S1133CC03C017C836B835F834E83922EDC018C9159
S1133CD08D3231F4BFEF6B1A7B0AE1E0ED8301C052
S1133CE01D82F301A081A91509F486C080ED8A0F15
S1133CF08A3008F06AC03196FA83E983E1E0F0E0A3
S1133D00412C512CF12C00E0A12CB12CD12CE12C14
S1133D1080E090E05A2F0AC09F012F5F3F4F40ED93
S1133D20450F4A3008F051C02F01F90188248A94C4
S1133D308E0EA52FB0E0D0971B2F110F110B2F2D36
S1133D40302F4A2D5B2D6D2D7E2DAA2EBB2EC12E1C
S1133D50D12EE12EF12E012F0E94CF34192FF22EF5
S1133D60032FA42EB52ED62EE72E912FD301A40D0A
S1133D70B51D1196AC91A053AA3080F501E00E94C4
S1133D80B634222E332E442E552E69877887B82FC9
S1133D90A92F02E00E94B634A22EB32EC42ED52E33
S1133DA0E62EF72E082F192F222D332D442D552DB5
S1133DB0698578858B2F9A2F0E94CF34F22E032F9A
S1133DC0A42EB52ED62EE72E09C081E0AB81BC818E
S1133DD08C9360E070E080E090E06FC0A981BA81CC
S1133DE05D91BA83A983591521F0EA30F10509F0F0
S1133DF093CFB9E0B81548F481E0EB81FC8180836E
S1133E0060E070E080E090E058C0FD81F11119C0DD
S1133E102F2D302F4A2D5B2D6D2D7E2D2F3F3F4FA3
S1133E204F4F5F476105710581059105E1F1D8F1B7
S1133E3081E0EB81FC81808360E070E080E090E0D1
S1133E403CC02F2D302F4A2D5B2D6D2D7E2D21153D
S1133E50310541055048610571058105910591F0D1
S1133E6088F081E0AB81BC818C9360E070E080E0FD
S1133E7090E023C0EB81FC8110826C2D7D2D8E2D72
S1133E809F2D1BC04F2D502F6A2D7B2DCC24DD245C
S1133E907601C41AD50AE60AF70A83E0880DAE81D2
S1133EA0BF818C93E7CFCF2CD02EEA2CFB2C8394AC
S1133EB08394EE81FF818082DDCF29960FB6F8943A
S1133EC0DEBF0FBECDBFDF91CF911F910F91FF9049
S1133ED0EF90DF90CF90BF90AF909F908F907F90A6
S1133EE06F905F904F903F902F9008950F931F9382
S1133EF0FC01008110E020E030E0418150E060E00E
S1133F0070E0828190E0A0E0B0E0302F22271127FA
S1133F100027BA0155274427400F511F621F731F02
S1133F202381420F511D611D711DBA2FA92F982F96
S1133F3088278A019B01080F191F2A1F3B1FC901EB
S1133F40B8011F910F910895882321F089E50E94FB
S1133F508D1503C08EE40E948D158DE00E948D1591
S1133F6008958F929F92AF92BF92CF92DF92EF9279
S1133F70FF924B015C0169017A0181E09CE00E949F
S1133F80E515C501B4010E94A21A8CEF9BE00E94C2
S1133F90E515C701B6010E94A21A88EF9BE00E94B2
S1133FA0E515FF90EF90DF90CF90BF90AF909F907A
S1133FB08F9008950F931F93CF93DF938C01EB01A0
S1133FC085EF9BE00E94E515B801882777FD809571
S1133FD0982F0E94B31B80EF9BE00E94E515BE0161
S1133FE0882777FD8095982F0E94B31B8CEE9BE069
S1133FF00E94E515DF91CF911F910F9108958823B9
S113400029F087EE9BE00E94E51504C081EE9BE059
S11340100E94E5158BE30E948D158DE00E948D159D
S113402008950F931F93CF93DF93EC0186E090E004
S11340300E94E6148C0185ED9CE00E94E515CE01FA
S11340400E943913811104C081E40E948D1509C0B6
S1134050813021F48DE40E948D1503C082E40E9416
S11340608D1581ED9CE00E94E5158AEC9CE00E9490
S1134070E515CE010E944013811104C082E30E9421
S11340808D1503C083E30E948D158BE30E948D156B
S11340908DE00E948D1583EC9CE00E94E515CE0115
S11340A00E945313BC0180E090E00E94A21A8BE3AB
S11340B00E948D158DE00E948D158BEB9CE00E9473
S11340C0E515CE010E948713BC0180E090E00E94B8
S11340D0A21A8BE30E948D158DE00E948D1583EB4F
S11340E09CE00E94E515CE010E949313682F70E0B6
S11340F080E090E00E94A21A8BE30E948D158DE06F
S11341000E948D158CEA9CE00E94E515CE010E9468
S11341109A130E94FF1F85EA9CE00E94E515CE01D8
S11341200E94B4130E94A21A8BE30E948D158DE0A5
S11341300E948D158EE99CE00E94E515CE010E9437
S1134140CB13BC01882777FD8095982F0E94B31B61
S11341508BE30E948D158DE00E948D1585E99CE00E
S11341600E94E515CE010E94DF130E94A21A8BE380
S11341700E948D158DE00E948D158EE89CE00E94B2
S1134180E515CE010E94E9130E94FF1F84E89CE01C
S11341900E94E515CE010E94FD13BC01882777FD1E
S11341A08095982F0E94B31B8BE30E948D158DE0A0
S11341B00E948D158AE79CE00E94E515CE010E94BD
S11341C01214BC01882777FD8095982F0E94B31B99
S11341D08BE30E948D158DE00E948D1581E79CE094
S11341E00E94E515CE010E942614BC0180E090E0F7
S11341F00E94A21A8BE30E948D158DE00E948D15FA
S113420088E69CE00E94E515CE010E942E140E94CF
S1134210FF1F8EE59CE00E94E515CE010E943D142F
S1134220682F70E080E090E00E94A21A8BE30E9465
S11342308D158DE00E948D1583E59CE00E94E515A7
S1134240CE010E945114BC01882777FD8095982FD8
S11342500E94B31B8BE30E948D158DE00E948D1587
S113426088E49CE00E94E515CE010E946614BC011E
S1134270882777FD8095982F0E94B31B8BE30E94BB
S11342808D158DE00E948D158EE39CE00E94E5154E
S1134290CE010E947514BC0180E090E00E94A21A35
S11342A08BE30E948D158DE00E948D1584E39CE0C4
S11342B00E94E515CE010E948414BC0180E090E0C8
S11342C00E94A21A8BE30E948D158DE00E948D1529
S11342D08AE29CE00E94E515CE010E949814BC017C
S11342E080E090E00E94A21A8BE30E948D158DE07D
S11342F00E948D1583E29CE00E94E515B80180E0E0
S113430090E00E94A21A8BE30E948D158DE00E941A
S11343108D158CE19CE00E94E515CE010E94A0144D
S113432091E0811101C090E0892F0E94FF1F84E178
S11343309CE00E94E515CE010E94AF14682F70E046
S113434080E090E00E94A21A8BE30E948D158DE01C
S11343500E948D158CE09CE00E94E515CE010E9420
S1134360B6140E94FF1F84E09CE00E94E515CE0174
S11343700E94C514682F70E080E090E00E94A21AA9
S11343808BE30E948D158DE00E948D158DE00E94B7
S11343908D15DF91CF911F910F910895CF93DF93E6
S11343A0C8E0D0E080E20E948D1521972097D1F7D4
S11343B0DF91CF9108958CED9BE00E94E51508955F
S11343C088ED9BE00E94E51508952F923F924F924D
S11343D05F926F927F928F929F92AF92BF92CF9291
S11343E0DF92EF92FF920F931F93CF93DF9300D04E
S11343F01F92CDB7DEB78C0186E090E00E94E114F5
S11344001C018639910530F08CEA94E00E94E51590
S113441081E074C020E2AE014E5F5F4FBE016D5F6C
S11344207F4FC8010E94461E6B017C018B81811164
S11344305AC0C6018E58994F853E9C4008F055C01D
S11344408A8120E2AE014F5F5F4FBE016D5F7F4FF7
S1134450F801E80FF11DCF010E94461E4B015C01DB
S11344608B81811144C0C4018E58994F853E9C4074
S113447008F03FC029818A8190E0820F911D2DE0D0
S1134480AE014F5F5F4FBE016D5F7F4F800F911F85
S11344900E94461E2B013C018B8181112CC0C2015C
S11344A00197803D974048F58101000F111F020DCF
S11344B0131D000F111FB601C80108960E94D614DF
S11344C0B401C8010A960E94D614B201C8010C9620
S11344D00E94D614B1016F5F7F4F86E090E00E9486
S11344E0D61480E00BC081E009C081E007C081E000
S11344F005C081E003C081E001C081E00F900F900E
S11345000F90DF91CF911F910F91FF90EF90DF906B
S1134510CF90BF90AF909F908F907F906F905F905F
S11345204F903F902F9008954F925F926F927F9299
S11345308F929F92AF92BF92CF92DF92EF92FF92AF
S11345400F931F93CF93DF93CDB7DEB728970FB6A2
S1134550F894DEBF0FBECDBF8C0186E090E00E94D0
S1134560E1145C0120E2AE014D5F5F4FBE016C5F60
S11345707F4FC8010E94461E6B017C018C81811112
S113458079C0AC14BD0430F488E994E00E94E515C8
S113459081E07DC08B8120E2AE014E5F5F4FBE01A2
S11345A06C5F7F4FF801E80FF11DCF010E94461E9A
S11345B04B015C018C8181115FC0C4018E58994FFD
S11345C0853E9C4008F05AC02A818B8190E0820F7E
S11345D0911D20E2AE014F5F5F4FBE016C5F7F4FC4
S11345E0800F911F0E94461E2B013C018C8181117A
S11345F047C0C2018E58994F853E9C4008F042C086
S11346002A818B8190E0820F911D2981820F911D57
S11346102DE0AE014E5F5F4FBE016C5F7F4F800F98
S1134620911F0E94461E6D837E838F8398878C81A1
S113463081112AC08D819E810197803D974030F57C
S1134640C601880F991FC80ED91E8601000F111FBD
S1134650B401C80102960E94D614B201C80104969E
S11346600E94D6146D817E81C80106960E94D614DC
S113467080E00DC081E00BC081E009C081E007C08B
S113468081E005C081E003C081E001C081E028969B
S11346900FB6F894DEBF0FBECDBFDF91CF911F914F
S11346A00F91FF90EF90DF90CF90BF90AF909F90CD
S11346B08F907F906F905F904F900895CF92DF928C
S11346C0EF92FF920F931F93CF93DF938C01EB0133
S11346D069017A01CB010E943913823009F04FC07D
S11346E080917B01823009F045C080917D01811168
S11346F01DC0E0FE0EC0F701F595E795EC0FFD1F18
S11347000190F081E02DEC0DFD1D0190F081E02D74
S113471001C0F601C7019595879560E08C0F9D1F38
S1134720099580E00E948D1580E06FC08130E9F426
S1134730E0FE0EC0F701F595E795EC0FFD1F019023
S1134740F081E02DEC0DFD1D0190F081E02D01C004
S1134750F601C7019595879561E08C0F9D1F09951A
S113476080E00E948D1580E050C083E00E948D158A
S113477080E04BC083E00E948D1580E046C0F801C4
S113478080818935E9F481818D30D1F5E0FE0EC058
S1134790F701F595E795EC0FFD1F0190F081E02DF1
S11347A0EC0DFD1D0190F081E02D01C0F601C70163
S11347B09595879561E08C0F9D1F099580E025C034
S11347C08E3401F5F80181818D30F1F4E0FE0EC0E4
S11347D0F701F595E795EC0FFD1F0190F081E02DB1
S11347E0EC0DFD1D0190F081E02D01C0F601C70123
S11347F09595879560E08C0F9D1F099580E005C015
S113480081E003C081E001C081E0DF91CF911F917D
S11348100F91FF90EF90DF90CF900895AF92BF92E9
S1134820CF92DF92EF92FF920F931F93CF93DF9378
S11348301F92CDB7DEB75C018B0169017A01CB0110
S11348400E943913823031F580917B018230E9F482
S1134850E0FE0EC0F701F595E795E00FF11F01901A
S1134860F081E02DEC0DFD1D0190F081E02D01C0E3
S1134870F601C7019595879560917D01800F911F81
S1134880099589830E948D1503C083E00E948D15CC
S1134890998127C04DE0BE016F5F7F4FC5010E9423
S11348A03A1C898181111CC0E0FE0EC0F701F59508
S11348B0E795E00FF11F0190F081E02DEC0DFD1D57
S11348C00190F081E02D01C0F601C701959587950F
S11348D0800F911F099591E0811103C090E001C000
S11348E091E0892F0F90DF91CF911F910F91FF904D
S11348F0EF90DF90CF90BF90AF900895AF92BF92AA
S1134900CF92DF92EF92FF920F931F93CF93DF9397
S11349101F92CDB7DEB75C018B0169017A01CB012F
S11349200E943913823081F580917B01833039F5FF
S1134930E0FE0EC0F701F595E795E00FF11F019039
S1134940F081E02DEC0DFD1D0190F081E02D01C002
S1134950F601ACE7B1E011966C91119770E0762FF7
S1134960662712968C91680F711DC70195958795DE
S1134970800F911F099589830E948D1503C083E0E0
S11349800E948D15998128C04DE0BE016F5F7F4F55
S1134990C5010E941E1D298121111DC0E0FE0EC00B
S11349A0F701F595E795E00FF11F0190F081E02DF7
S11349B0EC0DFD1D0190F081E02D01C0F601970181
S11349C035952795C801820F931F099591E08111B0
S11349D003C090E001C091E0892F0F90DF91CF9147
S11349E01F910F91FF90EF90DF90CF90BF90AF9009
S11349F00895AF92BF92CF92DF92EF92FF920F93FE
S1134A001F93CF93DF931F92CDB7DEB75C018B0169
S1134A1069017A01CB010E943913823081F58091BA
S1134A207B01833039F5E0FE0EC0F701F595E7957B
S1134A30E00FF11F0190F081E02DEC0DFD1D0190C0
S1134A40F081E02D01C0F601ACE7B1E011966C9164
S1134A50119770E0762F662712968C91680F711D5E
S1134A60C70195958795800F911F099589830E94A9
S1134A708D1503C083E00E948D15998128C04DE0F7
S1134A80BE016F5F7F4FC5010E943A1C298121112D
S1134A901DC0E0FE0EC0F701F595E795E00FF11F8C
S1134AA00190F081E02DEC0DFD1D0190F081E02DD1
S1134AB001C0F601970135952795C801820F931F10
S1134AC0099591E0811103C090E001C091E0892F24
S1134AD00F90DF91CF911F910F91FF90EF90DF9096
S1134AE0CF90BF90AF900895AF92BF92CF92DF92D4
S1134AF0EF92FF920F931F93CF93DF931F92CDB743
S1134B00DEB75C018B0169017A01CB010E94391384
S1134B10823051F580917B01853009F5E0FE0DC0AE
S1134B20F701F595E795E00FF11F0190F081E02D75
S1134B30EC0DFD1DA080B18001C056018DE791E010
S1134B400E94761FAB01BC01C70195958795800F24
S1134B50911FF501099589830E948D1503C083E097
S1134B600E948D1599812AC04DE0BE016F5F7F4F71
S1134B70C5010E943A1C298121111FC0E0FE0EC00C
S1134B80F701F595E795E00FF11F0190F081E02D15
S1134B90EC0DFD1D0190F081E02D01C0F60197019F
S1134BA035952795AB01BC01C801820F931F099568
S1134BB091E0811103C090E001C091E0892F0F9032
S1134BC0DF91CF911F910F91FF90EF90DF90CF90E5
S1134BD0BF90AF9008958F929F92BF92CF92DF9231
S1134BE0EF92FF920F931F93CF93DF931F92CDB752
S1134BF0DEB7F82E8B0181E0898380917A018111DF
S1134C0032C08F2D8F7D843569F4CB010E94391316
S1134C10811104C081E40E948D157FC78DE40E9438
S1134C208D157BC78C3449F460E0C8010E94CF1411
S1134C3061E0C8010E94C81470C7833549F461E07B
S1134C40C8010E94CF1461E0C8010E94C81465C75E
S1134C50813449F462E0C8010E94CF1461E0C801C4
S1134C600E94C8145AC78F2D0E948D15E0917A01B5
S1134C7081E08E0F80937A01F0E0E458FE4FF082D9
S1134C80893148F0909194019D3029F010927A0175
S1134C900E94DB2142C790917C019D3009F091C0B4
S1134CA010927A0187EC9BE00E94E51583E99BE072
S1134CB00E94E515C8010E943913811104C081E4E2
S1134CC00E948D150CC0C8010E943913813021F453
S1134CD08DE40E948D1503C082E40E948D158DE041
S1134CE00E948D158FE69BE00E94E515C8010E9485
S1134CF04013811104C082E30E948D1503C083E335
S1134D000E948D158DE00E948D1584E59BE00E9424
S1134D10E51528EE33E040E050E061E070E080E02B
S1134D2090E00E94B11FC8010E945313BC0180E0AF
S1134D3090E00E94A21A8DE00E948D1581E39BE011
S1134D400E94E5158CE19BE00E94E51585E09BE05F
S1134D500E94E5158FEE9AE00E94E51582ED9AE037
S1134D600E94E51588EB9AE00E94E51585EA9AE031
S1134D700E94E51581E99AE00E94E51584E191E03D
S1134D800E94D0158DE00E948D1584E89AE00E945F
S1134D90E5158AE191E00E94D0158DE00E948D1501
S1134DA088E69AE00E94E5158EE49AE00E94E515F3
S1134DB08DE29AE00E94E5158BE19AE00E94E515E8
S1134DC0ACC6282F30E0F901E558FE4F90819D30A4
S1134DD009F0A3C61216130684F4ECE7F1E0C90146
S1134DE084589E4F20813FE9320F3A3110F420520B
S1134DF020833196E817F907A9F710927A01809178
S1134E007C01813369F590917D01903209F064C091
S1134E1080917E01813451F480917F018D30E9F4D9
S1134E2060E0C8010E943513198275C68D3451F4AF
S1134E3080917F018D3089F461E0C8010E943513AF
S1134E40198269C6823449F480917F018D3029F436
S1134E5062E0C8010E94351360C681E0898358C6A8
S1134E60823341F590917D01903209F0C5C0809163
S1134E707E01823369F480917F018D30C1F460E05A
S1134E80C8010E943C13C8010E943516198243C60A
S1134E90833369F480917F018D3049F461E0C80166
S1134EA00E943C13C8010E943516198234C681E061
S1134EB089832EC6833381F490917D01903209F069
S1134EC000C123E433E140E050E0B8018EE791E013
S1134ED00E94F924898319C6843309F08DC0909106
S1134EE07D019D3009F065C18BE09AE00E94E515D3
S1134EF086EF99E00E94E5152FEF33E040E050E0A3
S1134F0061E070E080E090E00E94B11FC8010E945F
S1134F108713BC0180E090E00E94A21A8DE00E94F9
S1134F208D150E94CE2188EE99E00E94E515C801F6
S1134F300E948713DC0120EA36E841E050E00E9439
S1134F40AB342FEF33E040E050E00E947034CA01EC
S1134F50B9010E94A21A81EE99E00E94E5150E940F
S1134F60CE2183EC99E00E94E5158BE999E00E943B
S1134F70E5150F2EF6E0EF2EF12CF02D6894DD24CC
S1134F80D5F8C8010E9493138D2121F081E30E947A
S1134F908D1503C080E30E948D15D69421E0E21A9A
S1134FA0F108E114F10469F78DE00E948D150E9467
S1134FB0CE218DE899E00E94E5150E94CE218EE76E
S1134FC099E00E94E5150E94CE2180E799E00E94B5
S1134FD0E5150E94CE2183E699E00E94E5150E9422
S1134FE0CE2187E599E00E94E5150E94CE218EE34B
S1134FF099E00E94E51591C5853309F062C090914E
S11350007D019D3009F05AC187E299E00E94E515BF
S113501089E099E00E94E515C8010E949A130E9454
S1135020A41F82EF98E00E94E51520E035E34CE0F0
S113503050E061E070E080E090E00E94B11FC801A0
S11350400E94B4130E94A21A8DE00E948D1588ED6F
S113505098E00E94E51562E776E08EE899EF0E94F9
S1135060DA1FC8010E94CB13BC01882777FD809505
S1135070982F0E94B31B8DE00E948D1586EC98E05A
S11350800E94E51520E035E34CE050E060E070E07C
S1135090CB010E94B11FC8010E94DF130E94A21A13
S11350A08DE00E948D158FE998E00E94E515C801F6
S11350B00E94E9130E94A41F8DE898E00E94E51560
S11350C02CC5863309F075C090917D019D3009F09F
S11350D096C184E798E00E94E5158FE598E00E9468
S11350E0E51562E776E08EE899EF0E94DA1FC801C1
S11350F00E94FD13BC01882777FD8095982F0E949C
S1135100B31B8DE00E948D158CE498E00E94E51598
S113511062E776E08EE899EF0E94DA1FC8010E94E8
S11351201214BC01882777FD8095982F0E94B31B29
S11351308DE00E948D1588E398E00E94E51520ED2E
S113514037E040E050E061E070E080E090E00E94F1
S1135150B11FC8010E942614BC0180E090E00E94A7
S1135160A21A8DE00E948D1585E298E00E94E51553
S1135170C8010E942E140E94A41F80E198E00E949E
S1135180E51524E630E040E050E061E070E080E0C6
S113519090E00E94B11FC8010E943D14682F70E086
S11351A080E090E00E94A21A8DEF97E00E94E5153E
S11351B0B4C4873309F082C090917D019D3009F019
S11351C07EC185EE97E00E94E51580ED97E00E9490
S11351D0E51562E776E08EE899EF0E94DA1FC801D0
S11351E00E945114BC01882777FD8095982F0E9456
S11351F0B31B8DE00E948D158DEB97E00E94E515A1
S113520062E776E08EE899EF0E94DA1FC8010E94F7
S11352106614BC01882777FD8095982F0E94B31BE4
S11352208DE00E948D1580EA97E00E94E51522E743
S113523036E040E050E060E070E0CB010E94B11F36
S1135240C8010E947514BC0180E090E00E94A21A7B
S11352508DE00E948D1583E897E00E94E51522E712
S113526036E040E050E060E070E0CB010E94B11F06
S1135270C8010E948414BC0180E090E00E94A21A3C
S11352808DE00E948D1584E697E00E94E51520E1EB
S113529037E240E050E061E070E080E090E00E949E
S11352A0B11FC8010E949814BC0180E090E00E94E4
S11352B0A21A81E597E00E94E5152FC4883309F00E
S11352C09EC090917D019D3009F0CAC182E397E0B0
S11352D00E94E51586E097E00E94E51582ED96E0D0
S11352E00E94E5158BEB96E00E94E51583EA96E0B3
S11352F00E94E5158CE896E00E94E51589E796E0A2
S11353000E94E515C8010E94A01491E0811101C01A
S113531090E0892F0E94A41F84E696E00E94E51580
S113532024E630E040E050E061E070E080E090E0AE
S11353300E94B11FC8010E94AF14682F70E080E082
S113534090E00E94A21A81E696E00E94E51580E4AE
S113535096E00E94E51566E970E080E090E00E9426
S1135360B31B8CE396E00E94E51586E090E00E9472
S1135370E114BC0180E090E00E94A21A80E396E070
S11353800E94E5156EE879EF8FEF9FEF0E94B31B43
S11353908BE296E00E94E51562E776E080E090E01B
S11353A00E94B31B80E296E00E94E5156EE879EF57
S11353B08FEF9FEF0E94B31B8BE196E00E94E515EF
S11353C062E776E080E090E00E94B31B8FE096E015
S11353D00E94E51561E070E080E090E00E94A21A6E
S11353E08AE096E00E94E51560ED77E080E090E0C9
S11353F00E94A21A8FEF95E00E94E5158EC38933AF
S113540009F05DC090917D019D3009F0B9C283EE31
S113541095E00E94E51580EC95E00E94E515C80131
S11354200E94B6140E94A41F8CEA95E00E94E51520
S113543027E030E040E050E061E070E080E090E0A0
S11354400E94B11FC8010E94C514682F70E080E05B
S113545090E00E94A21A8DE00E948D150E94CE2138
S113546081EA95E00E94E5150E94CE2187E995E046
S11354700E94E5150E94CE218DE895E00E94E51575
S11354800E94CE2183E895E00E94E5150E94CE217A
S113549089E795E00E94E5150E94CE218FE695E00C
S11354A00E94E5150E94CE2185E695E00E94E5154F
S11354B00E94CE218FE495E00E94E5152EC381332E
S11354C009F0CEC080917D01803341F490917E013A
S11354D09D30C9F4C8010E9411201FC3813399F47F
S11354E090917E01903209F041C027E533E140E01C
S11354F050E0B8018FE791E00E94F9248983C80144
S11355000E94AF1602C3823389F590917E019032D6
S113551009F03DC0809185018D3019F081E08983C7
S113552021C0EFE7F1E085E090E070E060E0A1E009
S113553021E030E04191413349F4A901082E02C031
S1135540440F551F0A94E2F7642B03C0403309F05B
S11355507A2F019778F77983711104C0C8010E94EA
S11355608B138983C8010E940316CFC2833379F455
S113557090917E019032E1F426E933E140E050E07D
S1135580B8018FE791E00E945E238983BEC2843311
S113559079F490917E019032E1F42DE933E140E019
S11355A050E0B8018FE791E00E9474258983ADC271
S11355B0853379F490917E019032E1F42AEB33E162
S11355C040E050E0B8018FE791E00E947E24898397
S11355D09CC2863379F490917E019032E1F42FECF1
S11355E033E140E050E0B8018FE791E00E94742578
S11355F089838BC2873379F490917E019032E9F4E8
S113560025EE33E140E050E0B8018FE791E00E94DD
S11356105E2389837AC2883381F480917E0180324B
S113562009F070C22CEE33E140E050E0B8018FE79E
S113563091E00E947E24898368C2893309F062C2A2
S113564080917E01803209F05DC221E034E140E0C6
S113565050E0B8018FE791E00E947E24898355C20F
S1135660823309F08DC180917D01803379F490916A
S11356707E019032E1F426E134E140E050E0B801EB
S11356808FE791E00E94F92489833FC2813379F442
S113569090917E019032E9F42AE234E140E050E056
S11356A0B8018FE791E00E945E2389832EC2823382
S11356B081F490917E01903209F05BC021E334E1E2
S11356C040E050E0B8018FE791E00E940E24898306
S11356D01CC2833309F04DC090917E01903209F0D1
S11356E098C04DE0BE016F5F7F4F8FE791E00E944D
S11356F01E1D6B017C018981882319F081E0898357
S113570007C2C8010E947514AA2797FDA095BA2F55
S11357108C0D9D1DAE1DBF1D83379640A105B1059F
S11357203CF08FE395E00E94E51581E08983F0C1A8
S1135730C8010E947514AA2797FDA095BA2FA70146
S11357409601281B390B4A0B5B0BDA01C9018E3811
S1135750994FAF4FBF4F3CF480E395E00E94E515AD
S113576081E08983D5C1B601C8010E9440148983B0
S1135770CCC1843309F04DC090917E01903209F080
S1135780C2C04DE0BE016F5F7F4F8FE791E00E9482
S11357901E1D6B017C018981882319F081E08983B6
S11357A0B7C1C8010E947514AA2797FDA095BA2F06
S11357B08C0D9D1DAE1DBF1D83379640A105B105FF
S11357C03CF082E295E00E94E51581E08983A0C166
S11357D0C8010E947514AA2797FDA095BA2FA701A6
S11357E09601281B390B4A0B5B0BDA01C9018E3871
S11357F0994FAF4FBF4F3CF485E195E00E94E5150A
S113580081E0898385C1B601C8010E94551489834A
S11358107CC1853309F077C090917E01903209F004
S113582083C04DE0BE016F5F7F4F8FE791E00E9420
S11358303A1C6B017C018981882319F081E08983FA
S113584067C1C8010E945114AA2797FDA095BA2FD9
S11358508C0D9D1DAE1DBF1D83379640A105B1055E
S11358603CF085E095E00E94E51581E0898350C114
S1135870C8010E945114AA2797FDA095BA2F8C192C
S11358809D09AE09BF098E38994FAF4FBF4F3CF405
S113589086EF94E00E94E51581E0898339C1C8014F
S11358A00E946614AA2797FDA095BA2F8C0D9D1D02
S11358B0AE1DBF1D83379640A105B1053CF088EEAF
S11358C094E00E94E51581E0898322C1C8010E9409
S11358D06614AA2797FDA095BA2F8C199D09AE09C5
S11358E0BF098E38994FAF4FBF4F3CF48BED94E016
S11358F00E94E51581E089830BC1B601C8010E94AD
S11359006A14898302C1863379F490917E019032BE
S1135910E1F429E734E140E050E0B8018FE791E099
S11359200E94F9248983F1C0873379F490917E0130
S11359309032C1F428E834E140E050E0B8018FE748
S113594091E00E94F9248983E0C0883359F480915E
S11359507E01803209F0D6C08FE791E00E94E521F4
S11359608983D3C0893309F0CDC080917E01803210
S113597009F0C8C08FE791E00E9494228983C5C0D2
S1135980833309F0BFC080917D018033A1F49091ED
S11359907E019D30F9F486E090E00E94E1148823B2
S11359A041F09927BC016150710986E090E00E94A2
S11359B0D6141982B0C0813369F490917E019D3070
S11359C009F05CC060E070E086E090E00E94D614CC
S11359D01982A1C0823309F051C090917E019D309B
S11359E009F05DC086E090E00E94E1148C0100970C
S11359F029F48DEC94E00E94E5158FC089EB94E0C6
S1135A000E94E515B12C8B2D90E09C01220F331FD1
S1135A10820F931F7C01EE0CFF1CC70108960E94A5
S1135A20E1144C01C7010A960E94E1146C01B4010F
S1135A30882777FD8095982F0E94B31B80E20E94EF
S1135A408D15B601882777FD8095982F0E94B31B8A
S1135A5080E20E948D15C7010C960E94E114BC01DE
S1135A6080E090E00E94A21A8DE00E948D15B3940C
S1135A708B2D90E08017910730F24FC0833379F477
S1135A8090917E019032E1F42CE934E140E050E061
S1135A90B8018FE791E00E945E23898336C0843386
S1135AA079F490917E019032E1F423EA34E140E00C
S1135AB050E0B8018FE791E00E940E24898325C04D
S1135AC0853379F480917E018032E1F422EB34E174
S1135AD040E050E0B8018FE791E00E945E238983A3
S1135AE014C0863379F480917E01803259F429EB15
S1135AF034E140E050E0B8018FE791E00E940E24C9
S1135B00898303C081E0898303C08981882319F0D4
S1135B100E94DB2102C00E94E0210F90DF91CF910F
S1135B201F910F91FF90EF90DF90CF90BF909F90C7
S1135B308F90089590917901911114C0E0917B01A7
S1135B4091E09E0F90937B01F0E0E458FE4F808338
S1135B50993040F010927B0184E00E948D1581E021
S1135B60809379010895CF92DF92EF92FF920F9381
S1135B701F93CF93DF93EC0180917901882319F06F
S1135B80109279010AC440917C0150E0FA013197E6
S1135B90E437F10508F0FCC3EA5BFF4F0C948F3443
S1135BA080917B01813021F482E40E948D15F3C33E
S1135BB083E00E948D15EFC380917B01813049F40D
S1135BC060E0CE010E94CF1461E0CE010E94C814AF
S1135BD0E2C383E00E948D15DEC380917B01813096
S1135BE049F461E0CE010E94CF1461E0CE010E942D
S1135BF0C814D1C383E00E948D15CDC380917B016D
S1135C00813049F462E0CE010E94CF1461E0CE01FC
S1135C100E94C814C0C383E00E948D15BCC3809148
S1135C207B01823041F580917D018D34A1F028F40F
S1135C30813449F08234B9F01AC08236A1F08D362D
S1135C4051F08136A1F460E0CE010E94351380E06A
S1135C500E948D15A0C361E0CE010E94351380E03F
S1135C600E948D1598C380E00E948D1594C383E033
S1135C700E948D1590C383E00E948D158CC3809182
S1135C807B018230D1F480917D01823041F460E067
S1135C90CE010E943C1380E00E948D157CC38330AA
S1135CA041F461E0CE010E943C1380E00E948D1516
S1135CB072C383E00E948D156EC383E00E948D152C
S1135CC06AC323E433E140E050E0BE018DE791E094
S1135CD00E94F92460C380917B01813009F098C04F
S1135CE080E00E948D1580E10E948D1581E40E9460
