:100000000C9476060C949E060C949E060C949E0608
:100010000C949E060C949E060C949E060C949E06D0
:100020000C949E060C949E060C949E060C94FF065F
:100030000C949E060C949E060C949E060C949E06B0
:100040000C949E060C949E060C94A9060C949E0695
:100050000C949E060C949E060C949E060C949E0690
:100060000C949E060C949E062C075307EA079D08E5
:10007000F0083C09EF09300AF50ABF0C1A0DE20D31
:100080001E104A10561060106A10D411762DA62D3D
:10009000C82D2F312F312F312F312F312F31D22D2C
:1000A000732E802E8D2E972EA12EAB2EB52EBF2E09
:1000B000C92ED32EDD2EE72EF12E252F592FAC2F52
:1000C000B62FC02F3E30BD30CE30D8300731113181
:1000D0001B3125312F312F312F312F312F312F313E
:1000E0002F312F312F312F312F312F312F312F3110
:1000F0002F312F312F312F312F312F312F312F3100
:100100002F312F312F312F312F312F31652D2F31BD
:100110002F312F312F312F312F312F312F312F31DF
:100120002F31432D2F312F312F312F312F312F31BF
:10013000542D372D2F312F312F312F312F312F319A
:100140002F312F312F312F312F312F31652D2F317D
:100150002F312F312F312F312F312F312F312F319F
:100160002F31432D2F312F312F312F312F312F317F
:10017000542D372D546573742041626F7274656419
:100180000D0067726964206F6E3B0D0D0027290D0D
:10019000004379636C6573290020002028005371A7
:1001A000756172652057617665004C696E65617294
:1001B000205377656570004379636C696320007430
:1001C00069746C65282700786C6162656C28275615
:1001D0006F6C747328562927293B0D00796C616276
:1001E000656C282743757272656E7428412927292A
:1001F0003B0D00293B0D002E2E2E0D00735F756107
:1002000000706C6F74280066696775726528332901
:100210003B0D00293B0D003D666C69706C722873C4
:100220005F756100735F75610029293B0D002C6CBF
:10023000656E67746828735F7561007377656570B4
:100240005F76732F313030302C73776565705F7651
:10025000652F31303030007371756172655F767370
:100260002F313030302C7371756172655F76652F78
:1002700031303030003D6C696E7370616365280009
:10028000292A28332E332F34303936292F726573BB
:10029000293B0D002D32303437003D282873007380
:1002A0005F75610067726964206F6E3B0D0D0074AD
:1002B00069746C65282751756965742054696D658A
:1002C0002053657175656E636527293B0D00786C59
:1002D0006162656C282754696D6520287329272978
:1002E0003B0D00796C6162656C28274375727265FD
:1002F0006E7428412927293B0D00706C6F74287497
:10030000712C715F7561293B0D00666967757265B7
:100310002832293B0D0074713D6C696E7370616306
:100320006528312C71756965745F742F31303030F8
:100330002C6C656E67746828715F756129293B0DA7
:1003400000715F75613D2828712D32303437292ABC
:1003500028332E332F34303936292F726573293BD9
:100360000D0067726964206F6E3B0D0D0074697437
:100370006C6528274465706F736974696F6E2053CC
:10038000657175656E636527293B0D00786C616248
:10039000656C282754696D652028732927293B0D32
:1003A00000796C6162656C282743757272656E74A2
:1003B00028412927293B0D00706C6F742874642C28
:1003C000645F7561293B0D00666967757265283148
:1003D000293B0D0074643D6C696E73706163652820
:1003E000312C6465705F742F313030302C6C656E49
:1003F00067746828645F756129293B0D00645F7527
:10040000613D2828642D32303437292A28332E3391
:100410002F34303936292F726573293B0D007265F0
:10042000733D7469615F72742A3130303030302F1F
:10043000313032333B0D004152425F53544F500D27
:10044000004152420D004152425F494E49540D0055
:100450005D3B0D0D002E2E2E0D002E2E2E0D003D7F
:100460005B003D5B005D3B0D0D002E2E2E0D005DF3
:100470003B0D0D002E2E2E0D003D5B005D3B0D0D46
:10048000002E2E2E0D00713D5B005D3B0D0D002EEC
:100490002E2E0D00643D5B00456E747279204F7501
:1004A00074206F662052616E67650D004D656D6F3B
:1004B00072792046756C6C0D0053746172746D56C0
:1004C00020456E646D5620526174650D004D656D5A
:1004D0006F727920456D7074790D00456E642B4103
:1004E0006D70204C6F772000456E642B416D70203D
:1004F00048696768200053746172742B416D7020E5
:100500004C6F77200053746172742B416D702048DA
:100510006967682000456E642B416D70204C6F77D1
:100520002000456E642B416D70204869676820008B
:1005300053746172742B416D70204C6F772000539F
:10054000746172742B416D702048696768200037B0
:100550003A20323030487A0D0D0D0D0D0D0D0D0D78
:100560000D0D0D0D00363A20313530487A0D00352D
:100570003A20313030487A0D00343A202035304866
:100580007A0D00333A20203130487A0D00323A207B
:10059000202035487A0D00313A20202031487A0D4C
:1005A000002020204375746F66660D0033362E20C0
:1005B00053656C65637465642046696C746572008C
:1005C00033352E20456E61626C6520536F667477FB
:1005D0006172652046696C7465722028592F4E2916
:1005E0003A20002D2D2D4C4F572D5041535320466E
:1005F000494C544552204D454E552D2D2D0D000D85
:100600000D0D0D0D0D0D0D0D0D0020746F20000D45
:10061000526174656D562F733A200020746F20006C
:100620000D456E646D563A2020200020746F200026
:100630000D0D53746172746D563A2000293A2000F2
:100640004E756D626572206F662053746F726564BB
:1006500020456E74726965732028557020746F2070
:10066000000D0D0033342E204E756D626572206FC3
:1006700066204379636C65730033332E20437963BE
:100680006C69632028592F4E293A200033322E20DE
:100690004765742053746F7265642056616C75658C
:1006A000730D0033312E2044656C65746520416CF8
:1006B0006C20456E74726965730D0033302E2044D2
:1006C000656C657465204C61737420456E74727935
:1006D0000D0032392E205265706C61636520456EC5
:1006E0007472792028456E74727923205374617274
:1006F000746D562053746F706D5620526174656D21
:10070000562F73290D0032382E20417070656E64AB
:1007100020456E747279202853746172746D56206E
:1007200053746F706D5620526174656D562F732926
:100730000D002D2D2D4152424954524152592057FE
:10074000415645464F524D204D454E552D2D2D0DB0
:10075000000D0D0D0D0D0D0D0D0D0D0D0D0D0D0DD6
:100760000D0D0D0032372E205371756172652057C3
:100770006176652048616C6620506572696F6420FF
:100780006D730032362E205371756172652057618A
:10079000766520496E6372656D656E74206D5600D6
:1007A00032352E2053717561726520576176652050
:1007B000416D706C6974756465206D560032342E1D
:1007C00020456E6420566F6C74616765206D56001D
:1007D00032332E20537461727420566F6C746167CB
:1007E00065206D56002D2D2D5351554152452057F2
:1007F000415645204D454E552D2D2D0D000D0D0D0D
:100800000D0D0D0D0D0D0D0D0D0D0D0D0D0D0D0025
:1008100032322E204E756D626572206F66204379EC
:10082000636C65730032312E204379636C696320F9
:1008300028592F4E293A200032302E2053776565F3
:10084000702052617465206D562F730031392E204F
:10085000456E6420566F6C74616765206D5600317B
:10086000382E20537461727420566F6C7461676502
:10087000206D56002D2D2D4C494E45415220535789
:10088000454550204D454E552D2D2D0D000D0D0D7E
:100890000D0D0D0D0D0D0D0D0D0D0D0D0D0D003171
:1008A000372E205265636F7264204465706F7369E0
:1008B00074696F6E2053657175656E636520285984
:1008C0002F4E293A200031362E205175696574204B
:1008D00054696D65206D730031352E204465706F4D
:1008E000736974696F6E20566F6C74616765206DF3
:1008F000560031342E204465706F736974696F6ED1
:100900002054696D65206D730031332E20456E6172
:10091000626C65204465706F736974696F6E20281E
:10092000592F4E293A20002D2D2D4445504F534923
:1009300054494F4E204D454E552D2D2D0D004269E9
:100940007420303A20313075660D0D0D0D0D0D0DF2
:100950000D0D0D0D0D0D0042697420313A203175D9
:10096000660D0042697420323A202E3175660D0002
:1009700042697420333A202E303175660D00426989
:100980007420343A203130303070660D0042697482
:1009900020353A2031303070660D0031322E20542F
:1009A000494120362D626974204361706163697426
:1009B0006F72204D61736B20285858585858582929
:1009C0003A200052203D20546170202A20313030DE
:1009D000303030202F2031303233204F686D730D8E
:1009E00000204F686D730D00526573697374616EFA
:1009F0006365203D200031312E205449412052654D
:100A0000736973746F7220546170002D2D2D5449D9
:100A100041204D454E552D2D2D0D00582041626F22
:100A2000727420546573740D0D0D0D0D004120532B
:100A300074617274204172626974726172792057B4
:100A4000617665666F726D20546573740D00532076
:100A500053746172742053717561726520576176A9
:100A60006520546573740D000D4C205374617274CD
:100A7000204C696E656172205377656570205465FE
:100A800073740D0050726F647563742049443A208A
:100A9000004669726D776172652052657669736987
:100AA0006F6E3A200031302E2047657420736574D4
:100AB00074696E67730D0D00392E20204C6F772DF1
:100AC000706173732046696C746572204D656E7534
:100AD0000D00382E20204172626974726172792093
:100AE00057617665666F726D204D656E750D0037C6
:100AF0002E20205371756172652057617665204DF7
:100B0000656E750D00362E20204C696E6561722071
:100B10005377656570204D656E750D00352E20206C
:100B20004465706F736974696F6E204D656E750DE5
:100B300000342E20205472616E73696D706564619B
:100B40006E636520416D706C6966696572204D65E4
:100B50006E750D00332E20204144432053616D708B
:100B60006C6520496E74657276616C206D7300321D
:100B70002E20204E756D626572206F6620456C6573
:100B80006374726F646573202832206F722033297A
:100B90003A2000312E20205472616E736D69737398
:100BA000696F6E204D6F6465202841295343494980
:100BB0002C20284D2961744C61622C20284229691F
:100BC0006E6172793A20002D2D2D4D41494E204DF8
:100BD000454E552D2D2D0D004F4B0D004552520DFC
:100BE0000066616C7365007472756500293A2000B7
:100BF00020746F2000202800293A200020746F20E4
:100C00000020280066696C745F733D0066696C742F
:100C10005F653D006172625F63733D006172625F98
:100C2000633D006172625F6E3D0073717561726554
:100C30005F703D007371756172655F693D0073712E
:100C4000756172655F613D007371756172655F7694
:100C5000653D007371756172655F76733D007377F2
:100C60006565705F63733D0073776565705F633DB5
:100C70000073776565705F723D0073776565705FBF
:100C800076653D0073776565705F76733D006465DA
:100C9000705F723D0071756965745F743D006465D5
:100CA000705F763D006465705F743D006465705FE1
:100CB000653D007469615F636D3D007469615F72D9
:100CC000743D006164635F723D006E756D5F653DEC
:100CD00000273B0D0074785F6D3D27004F4B2E20A1
:100CE0004F534343414C203D20005B1211241FBE53
:100CF000CFEFD8E0DEBFCDBF11E0A0E0B1E0E0E291
:100D0000F7E602C005900D92A032B107D9F721E0B5
:100D1000A0E2B1E001C01D92A439B207E1F71CE0E6
:100D2000CCEEDCE004C02297FE010E941633CA3EDE
:100D3000D107C9F70E94A0060C948E330C940000D2
:100D400087E491E00E94C21A87E491E00E9416169F
:100D5000FFCF1F920F920FB60F9211242F933F9344
:100D60004F935F936F937F938F939F93AF93BF93B3
:100D7000CF93EF93FF93C091C60087E491E00E9468
:100D8000A0128230B1F487E491E00E943314811103
:100D900007C081E0809372018C2F0E94012D1DC03D
:100DA000CF7DC835D1F461E187E491E00E942F1432
:100DB00014C087E491E00E943314811106C067E4F7
:100DC00071E08C2F0E94522508C0CF7DC83529F4D0
:100DD00061E187E491E00E942F14FF91EF91CF91A0
:100DE000BF91AF919F918F917F916F915F914F9143
:100DF0003F912F910F900FBE0F901F9018951F924B
:100E00000F920FB60F9211248F929F92AF92BF92C2
:100E1000CF92DF92EF92FF920F931F932F933F9306
:100E20004F935F936F937F938F939F93AF93BF93F2
:100E3000CF93DF93EF93FF93289A87E491E00E948A
:100E4000331490E08231910510F00C94EE11FC0106
:100E5000EC5CFF4F0C9414331092730110927401E8
:100E60001092750110927601109243011092440184
:100E70001092450110924601809172019FEF980FE8
:100E8000963018F48F5F80937201809172018630E2
:100E900010F40C94F9111092720187E491E00E9411
:100EA0001A2D0C94F9110E94CE1510924301109244
:100EB0004401109245011092460187E491E00E949E
:100EC000A012813021F487E491E00E94781F87E42A
:100ED00091E00E940113882309F45BC087E491E04C
:100EE0000E945013882359F087E491E00E94A012D9
:100EF000813029F484E994E00E944C1524C087E4F1
:100F000091E00E945013882371F087E491E00E94E1
:100F1000A012811108C080E090E80E94C6198CE2FE
:100F20000E94F41410C087E491E00E9450138823BB
:100F300051F087E491E00E94A012823021F480E019
:100F400090E80E94FC1487E491E00E94321328EE9E
:100F500033E0DC010E94293326E233E040E050E038
:100F60000E94F532DA01C9018150984FAF4FBF4F4F
:100F700080933F0190934001A0934101B0934201BF
:100F80000E94771662E087E491E00E942F140C948F
:100F9000F91187E491E00E943A14811107C067E0DB
:100FA00087E491E00E942F140C94F91187E491E0FA
:100FB0000E943A14813039F46AE087E491E00E949B
:100FC0002F140C94F9116DE087E491E00E942F1426
:100FD0000C94F91187E491E00E941B13C0907301F7
:100FE000D0907401E0907501F0907601C616D70696
:100FF000E806F90608F09AC087E491E00E941D1403
:10100000882359F00E94841667E471E00E949816C4
:1010100090933E0180933D0106C00E9484169093F8
:101020003E0180933D01C0907301D0907401E09027
:101030007501F090760187E491E00E94BA129C015C
:1010400040E050E0C701B6010E94D332672B682B05
:10105000692B09F056C087E491E00E945013882361
:1010600009F44FC087E491E00E94A012813099F505
:1010700080913D0190913E010E94C6198CE20E9430
:10108000F4148091430190914401A0914501B091E5
:101090004601BC01CD016F5F7F4F8F4F9F4F609323
:1010A000430170934401809345019093460161157B
:1010B00071058105910529F12AE030E040E050E01A
:1010C0000E94D332672B682B692BD9F48FE894E008
:1010D0000E944C1516C087E491E00E94A012811175
:1010E0000AC080913D0190913E010E94C6198CE298
:1010F0000E94F41406C080913D0190913E010E942F
:10110000FC148091730190917401A0917501B091CC
:1011100076010196A11DB11D809373019093740116
:10112000A0937501B09376010C94F91163E087E404
:1011300091E00E942F140C94F91187E491E00E9431
:1011400050138823E9F087E491E00E94A0128130D7
:1011500029F48AE894E00E944C1512C087E491E0DB
:101160000E94A012811108C080E09FEF0E94C61962
:101170008CE20E94F41404C080E09FEF0E94FC14F3
:1011800087E491E00E944613672B682B692B39F0A6
:1011900064E087E491E00E942F140C94F91187E435
:1011A00091E00E943A14811107C067E087E491E062
:1011B0000E942F140C94F91187E491E00E943A14D4
:1011C000813039F46AE087E491E00E942F140C9496
:1011D000F9116DE087E491E00E942F140C94F9114D
:1011E0001092430110924401109245011092460161
:1011F0001092730110927401109275011092760191
:1012000087E491E00E945013882359F087E491E02D
:101210000E94A012813029F486E894E00E944C15C7
:1012200024C087E491E00E945013882371F087E482
:1012300091E00E94A012811108C080E091E80E9414
:10124000C6198CE20E94F41410C087E491E00E9459
:101250005013882351F087E491E00E94A01282305D
:1012600021F480E091E80E94FC1465E087E491E0BD
:101270000E942F140C94F91187E491E00E94461308
:10128000C0907301D0907401E0907501F0907601E8
:10129000C616D706E806F90608F09AC087E491E07A
:1012A0000E941D14882359F00E94841667E471E09F
:1012B0000E94981690933E0180933D0106C00E94C3
:1012C000841690933E0180933D01C0907301D090AD
:1012D0007401E0907501F090760187E491E00E943E
:1012E000BA129C0140E050E0C701B6010E94D3321F
:1012F000672B682B692B09F056C087E491E00E94A8
:101300005013882309F44FC087E491E00E94A01293
:10131000813099F580913D0190913E010E94C6195E
:101320008CE20E94F4148091430190914401A091B9
:101330004501B0914601BC01CD016F5F7F4F8F4FDA
:101340009F4F6093430170934401809345019093B4
:101350004601611571058105910529F12AE030E00A
:1013600040E050E00E94D332672B682B692BD9F400
:1013700081E894E00E944C1516C087E491E00E9439
:10138000A01281110AC080913D0190913E010E94FE
:10139000C6198CE20E94F41406C080913D01909120
:1013A0003E010E94FC148091730190917401A09100
:1013B0007501B09176010196A11DB11D8093730155
:1013C00090937401A0937501B09376010C94F91178
:1013D00066E087E491E00E942F140C94F91187E4F1
:1013E00091E00E9450138823E9F087E491E00E9485
:1013F000A012813029F48CE794E00E944C1512C0B1
:1014000087E491E00E94A012811108C080E09FEF64
:101410000E94C6198CE20E94F41404C080E09FEF81
:101420000E94FC1487E491E00E943A14811106C0E6
:1014300067E087E491E00E942F14DBC787E491E026
:101440000E943A14813031F46AE087E491E00E940E
:101450002F14CFC76DE087E491E00E942F14C9C715
:1014600081E080933C01109243011092440110925C
:1014700045011092460187E491E00E94A413880F71
:1014800080933B0187E491E00E94641328EE33E0EF
:10149000DC010E9429330F2EF6E2CF2EF3E0DF2E7F
:1014A000E12CF12CF02DA70196010E94F532DA0112
:1014B000C9018150984FAF4FBF4F80933701909330
:1014C0003801A0933901B0933A0187E491E00E947A
:1014D000791328EE33E0DC010E942933A70196013D
:1014E0000E94F532DA01C9018150984FAF4FBF4FCA
:1014F0008093330190933401A0933501B09336016A
:1015000087E491E00E948D13909332018093310122
:10151000109273011092740110927501109276016D
:1015200040913701509138016091390170913A0131
:101530008091330190913401A0913501B091360131
:10154000481759076A077B0724F481E0809330012C
:1015500002C01092300187E491E00E94A012813015
:1015600069F483E70E94F41480913C0190E00E94AA
:10157000C61989E794E00E944C1516C087E491E0F3
:101580000E94A01281110AC080913C0190E09E57F8
:101590000E94C6198CE20E94F41406C080913C019E
:1015A00090E09E570E94FC14809137019091380181
:1015B0000E9477160E94CE1580917301909174015C
:1015C000A0917501B09176010196A11DB11D809386
:1015D000730190937401A0937501B093760168E054
:1015E00087E491E00E942F1404C7A0913101B091CB
:1015F0003201209173013091740140917501509135
:1016000076010E94303326E233E040E050E00E9451
:10161000D33220932C0130932D0140932E0150930F
:101620002F0180913001813009F0CBC080913701CA
:1016300090913801A0913901B0913A01BA01A90104
:10164000480F591F6A1F7B1F80913301909134010D
:10165000A0913501B0913601481759076A077B07F9
:101660000CF080C087E491E00E941D14882359F09B
:101670000E94841667E471E00E94981690933E01E0
:1016800080933D0106C00E94841690933E01809392
:101690003D01C0907301D0907401E0907501F0900D
:1016A000760187E491E00E94BA129C0140E050E08C
:1016B000C701B6010E94D332672B682B692B09F052
:1016C00073C087E491E00E94A0128130A1F580915F
:1016D0003D0190913E010E94C6198CE20E94F414D3
:1016E0008091430190914401A0914501B091460140
:1016F000BC01CD016F5F7F4F8F4F9F4F60934301C0
:1017000070934401809345019093460161157105E2
:101710008105910509F448C02AE030E040E050E03E
:101720000E94D332672B682B692BF1F584E794E094
:101730000E944C1539C087E491E00E94A0128111EB
:101740000AC080913D0190913E010E94C6198CE231
:101750000E94F41429C080913D0190913E010E94A5
:10176000FC1422C069E087E491E00E942F1487E412
:1017700091E00E94A012813029F48FE694E00E944B
:101780004C1512C087E491E00E94A012811108C09C
:1017900080E09FEF0E94C6198CE20E94F41404C0FE
:1017A00080E09FEF0E94FC1420912C0130912D01CC
:1017B0008091370190913801820F931F0E94771614
:1017C000CAC08091370190913801A0913901B09140
:1017D0003A017C018D01E21AF30A040B150B80918A
:1017E000330190913401A0913501B09136018E15ED
:1017F0009F05A007B1070CF080C087E491E00E942C
:101800001D14882359F00E94841667E471E00E9439
:10181000981690933E0180933D0106C00E94841665
:1018200090933E0180933D01C0907301D09074016C
:10183000E0907501F090760187E491E00E94BA1281
:101840009C0140E050E0C701B6010E94D332672BF3
:10185000682B692B09F073C087E491E00E94A01205
:101860008130A1F580913D0190913E010E94C61901
:101870008CE20E94F4148091430190914401A09164
:101880004501B0914601BC01CD016F5F7F4F8F4F85
:101890009F4F60934301709344018093450190935F
:1018A0004601611571058105910509F448C02AE0DA
:1018B00030E040E050E00E94D332672B682B692B68
:1018C000F1F58AE694E00E944C1539C087E491E076
:1018D0000E94A01281110AC080913D0190913E01A9
:1018E0000E94C6198CE20E94F41429C080913D0127
:1018F00090913E010E94FC1422C069E087E491E0CF
:101900000E942F1487E491E00E94A012813029F4F4
:1019100085E694E00E944C1512C087E491E00E9495
:10192000A012811108C080E09FEF0E94C6198CE2CE
:101930000E94F41404C080E09FEF0E94FC14809188
:1019400037019091380120912C0130912D01821B9B
:10195000930B0E9477168091730190917401A0916E
:101960007501B09176010196A11DB11D809373019F
:1019700090937401A0937501B09376013AC51092CB
:1019800073011092740110927501109276011092F9
:10199000430110924401109245011092460180913A
:1019A0003C018F5F80933C0187E491E00E94951396
:1019B000882309F420C590913C0180913B0189174F
:1019C00008F026C518C583E70E94F41480913C01F5
:1019D00090E00E94C61982E694E00E944C1516C061
:1019E00087E491E00E94A01281110AC080913C011D
:1019F00090E09E570E94C6198CE20E94F41406C023
:101A000080913C0190E09E570E94FC1468E087E4BE
:101A100091E00E942F14EDC480913B018093270137
:101A200003C081E08093270160E187E491E00E9498
:101A30002F14DFC41092430110924401109245010B
:101A40001092460110927301109274011092750168
:101A50001092760181E080933B0110922601109252
:101A60002C0110922D0110922E0110922F0187E46B
:101A700091E00E94B81328EE33E0DC010E94293384
:101A80000F2EF6E2CF2EF3E0DF2EE12CF12CF02D1D
:101A9000A70196010E94F532DA01C9018150984FE1
:101AA000AF4FBF4F8093370190933801A093390116
:101AB000B0933A0187E491E00E94CD1328EE33E021
:101AC000DC010E942933A70196010E94F532DA0158
:101AD000C9018150984FAF4FBF4F8093330190930E
:101AE0003401A0933501B093360187E491E00E9460
:101AF000DC139C01A8EEB3E00E941A33A701960103
:101B00000E94F53220932201309323014093240157
:101B1000509325014091370150913801609139016E
:101B200070913A018091330190913401A091350177
:101B3000B0913601481759076A077B0724F481E002
:101B40008093300102C01092300187E491E00E943E
:101B5000A012813069F483E70E94F41480913B0164
:101B600090E00E94C6198FE594E00E944C1516C0C3
:101B700087E491E00E94A01281110AC080913B018C
:101B800090E09C570E94C6198CE20E94F41406C093
:101B900080913B0190E09C570E94FC14209122010F
:101BA000309123018091370190913801820F931F6A
:101BB0000E9477160E94CE156BE087E491E00E94A8
:101BC0002F1417C487E491E00E94FF13A0E0B0E057
:101BD000409173015091740160917501709176018B
:101BE000481759076A077B0708F414C2809130012F
:101BF000813009F001C14091370150913801609165
:101C0000390170913A0180912C0190912D01A091A0
:101C10002E01B0912F01480F591F6A1F7B1F809121
:101C2000330190913401A0913501B09136018417B0
:101C30009507A607B7070CF4D9C08091260181113A
:101C400019C00E9484169093210180932001209155
:101C50002C0130912D018091370190913801820F34
:101C6000931F2091220130912301821B930B0E942C
:101C70007716C2C10E948416209120013091210163
:101C80002817390728F4109221011092200106C06C
:101C9000281B390B309321012093200180912001D2
:101CA0009091210190933E0180933D0187E491E062
:101CB0000E94A012813099F580913D0190913E01E2
:101CC0000E94C6198CE20E94F41480914301909105
:101CD0004401A0914501B0914601BC01CD016F5F67
:101CE0007F4F8F4F9F4F60934301709344018093C8
:101CF000450190934601611571058105910529F112
:101D00002AE030E040E050E00E94D332672B682B9D
:101D1000692BD9F48AE594E00E944C1516C087E43B
:101D200091E00E94A01281110AC080913D01909122
:101D30003E010E94C6198CE20E94F41406C08091F4
:101D40003D0190913E010E94FC1487E491E00E94C5
:101D5000EB139C01A8EEB3E00E941A3326E233E0B5
:101D600040E050E00E94F53280912C0190912D01CD
:101D7000A0912E01B0912F0189019A01080F191F1E
:101D80002A1F3B1F00932C0110932D0120932E013D
:101D900030932F018091370190913801A091390142
:101DA000B0913A014C015D01800E911EA21EB31E3E
:101DB000C0903301D0903401E0903501F0903601AD
:101DC000C814D904EA04FB0434F46CE087E491E01D
:101DD0000E942F1411C16091220170912301860F7E
:101DE000971F800F911F0E94771606C16CE087E451
:101DF00091E00E942F1400C14091370150913801A9
:101E00006091390170913A0180912C0190912D01DE
:101E1000A0912E01B0912F01481B590B6A0B7B0B2F
:101E20008091330190913401A0913501B091360138
:101E3000481759076A077B070CF4D9C0809126011F
:101E4000811119C00E948416909321018093200172
:101E5000809137019091380120912C0130912D0112
:101E6000821B930B2091220130912301821B930B43
:101E70000E947716C1C00E948416209120013091E3
:101E800021012817390728F410922101109220010E
:101E900006C0281B390B309321012093200180912B
:101EA00020019091210190933E0180933D0187E4B0
:101EB00091E00E94A012813099F580913D019091AE
:101EC0003E010E94C6198CE20E94F41480914301E5
:101ED00090914401A0914501B0914601BC01CD0112
:101EE0006F5F7F4F8F4F9F4F60934301709344010B
:101EF0008093450190934601611571058105910517
:101F000029F12AE030E040E050E00E94D332672B14
:101F1000682B692BD9F485E594E00E944C1516C016
:101F200087E491E00E94A01281110AC080913D01D6
:101F300090913E010E94C6198CE20E94F41406C0E2
:101F400080913D0190913E010E94FC1487E491E054
:101F50000E94EB139C01A8EEB3E00E941A3326E224
:101F600033E040E050E00E94F53280912C019091E6
:101F70002D01A0912E01B0912F0189019A01080F26
:101F8000191F2A1F3B1F00932C0110932D01209332
:101F90002E0130932F018091370190913801A0914B
:101FA0003901B0913A014C015D01801A910AA20AEF
:101FB000B30AC0903301D0903401E0903501F09025
:101FC00036018C149D04AE04BF0434F46CE087E445
:101FD00091E00E942F1410C06091220170912301A2
:101FE000860F971F801B910B0E94771605C06CE02F
:101FF00087E491E00E942F141092730110927401F3
:1020000010927501109276019091260181E0892746
:10201000809326018091730190917401A0917501C4
:10202000B09176010196A11DB11D8093730190932B
:102030007401A0937501B0937601DBC18FEF97E037
:102040000E9477160E94F21581E08093270187E4B1
:1020500091E00E94A012813029F480E594E00E9472
:102060004C1512C087E491E00E94A012811108C0B3
:1020700080E09FEF0E94C6198CE20E94F41404C015
:1020800080E09FEF0E94FC1460E187E491E00E94F1
:102090002F14AFC10E94CE1586E494E00E944C1527
:1020A00060E087E491E00E942F14A3C181E494E0F2
:1020B0000E944C1560E087E491E00E942F1499C1C2
:1020C00087E394E00E944C1560E087E491E00E9471
:1020D0002F148FC187E491E00E94A012813009F093
:1020E00054C18EE194E00E944C1587E491E00E9477
:1020F0005013882331F187E491E00E940113882373
:1021000001F18DEF93E00E944C1584ED93E00E9465
:102110004C1588EC93E00E944C1588EB93E00E94EC
:102120004C1581EA93E00E944C158CE893E00E94E4
:102130004C158DE693E00E944C1582E693E00E94D8
:102140004C1587E491E00E945013882371F187E4D5
:1021500091E00E940113882341F187E491E00E94FD
:102160004613672B682B692B01F181E493E00E94F1
:102170004C1586E193E00E944C158AE093E00E94A2
:102180004C158AEF92E00E944C1583EE92E00E947B
:102190004C158EEC92E00E944C158FEA92E00E9462
:1021A0004C1584EA92E00E944C1580912701882307
:1021B00009F45EC0C1E0D0E08FE992E00E944C15C6
:1021C000CE010E94C6198AE992E00E944C15CE0108
:1021D0000E94C61987E491E00E943A14811104C05C
:1021E00084E992E00E944C1580E892E00E944C1530
:1021F00084E70E94F414CE010E94C61985E792E09C
:102200000E944C1587E491E00E943A14813029F431
:1022100087E592E00E944C1504C08BE392E00E9497
:102220004C158EE292E00E944C15CE010E94C61918
:1022300089E292E00E944C15C0FD12C084E292E057
:102240000E944C15CE010E94C61987E192E00E94BF
:102250004C15CE010E94C61983E192E00E944C15F4
:1022600021968091270190E08C179D0708F0A4CF5C
:1022700087E092E00E944C1581E092E00E944C15AC
:10228000809127018823D9F1C1E0D0E084E70E9442
:10229000F414CE010E94C6198CE20E94F4148CEF53
:1022A00091E00E944C15CE010E94C6198091270131
:1022B00090E0C817D90718F48CE20E94F414209714
:1022C000B9F09E01ADECBCEC0E941A33969587954F
:1022D000969587959C01220F331F220F331F820F83
:1022E000931FC817D90721F487EF91E00E944C157E
:1022F00021968091270190E08C179D0738F683EF97
:1023000091E00E944C158CED91E00E944C1587ECF9
:1023100091E00E944C158FEB91E00E944C1580914A
:102320002701823020F087EB91E00E944C1587E472
:1023300091E00E943A14811105C08AEA91E00E945E
:102340004C1504C08EE991E00E944C158091270144
:10235000823090F08BE991E00E944C15809127012A
:10236000869590E00E94C61989E991E00E944C157B
:1023700081E991E00E944C158DE891E00E944C1596
:1023800082E891E00E944C1509C087E491E00E9428
:10239000A012811103C08DE00E94F41460E087E474
:1023A00091E00E942F1425C087E491E00E94A012C2
:1023B000813029F484E791E00E944C150FC087E436
:1023C00091E00E94A012811105C080E090EF0E9470
:1023D000C61904C080E090EF0E94FC140E94F21520
:1023E0008FEF97E00E94771660E087E491E00E940B
:1023F0002F14289843C00E94F2158FEF97E00E9497
:10240000771687E491E00E949513811105CB09CBE3
:102410009091300181E089278093300180913701CC
:1024200090913801A0913901B0913A01809328012F
:1024300090932901A0932A01B0932B01409133017D
:10244000509134016091350170913601409337010C
:10245000509338016093390170933A0180933301AE
:1024600090933401A0933501B093360187E491E055
:102470000E94A012813009F0B3CAA5CAFF91EF9162
:10248000DF91CF91BF91AF919F918F917F916F918C
:102490005F914F913F912F911F910F91FF90EF907E
:1024A000DF90CF90BF90AF909F908F900F900FBE16
:1024B0000F901F90189587E491E00E946012089594
:1024C000FC01A1E0A083A18382E090E0938382835A
:1024D0008AE090E0958384831682A78340E65AEED3
:1024E00060E070E040875187628773872CE03EEFA1
:1024F0003587248716861786108A118AA28B348B1B
:10250000238B44EF51E0568B458B908F878B118E38
:1025100065E0628F348F238F568F458F29E130E03D
:1025200030A3278F92A381A394A383A315A266A3AC
:1025300017A2A0A711A60895FC01608380E008956A
:10254000FC0180810895FC01618380E00895FC0115
:1025500081810895693E23E0720740F46115710599
:1025600039F0FC017383628380E0089582E008956E
:1025700081E00895FC01828193810895611524E032
:10258000720740F56115710539F16530710538F450
:1025900021E030E0FC013583248380E0089562333C
:1025A000710538F42AE030E0FC013583248380E0B3
:1025B0000895643F714038F426E630E0FC0135832D
:1025C000248380E008952FEF33E0FC0135832483DA
:1025D00080E0089582E0089581E00895FC018481FF
:1025E00095810895603420F4FC01668380E00895AD
:1025F00082E00895FC0186810895FC01678380E0F4
:102600000895FC0187810895413025E352072CE0AD
:102610006207710560F4411551056105710549F0C6
:10262000FC01408751876287738780E0089582E0CC
:10263000089581E00895FC01608571858285938508
:102640000895633726E072074CF46E38E9EF7E0791
:102650003CF0FC017587648780E0089582E008956E
:1026600081E00895FC01848595850895413025E336
:1026700052072CE06207710538F4FC014687578742
:10268000608B718B80E0089582E00895FC0166857F
:102690007785808991890895FC01628B80E0089597
:1026A000FC0182890895633726E072074CF46E3886
:1026B000E9EF7E073CF0FC01748B638B80E00895AA
:1026C00082E0089581E00895FC018389948908954A
:1026D000633726E072074CF46E38E9EF7E073CF072
:1026E000FC01768B658B80E0089582E0089581E09F
:1026F0000895FC01858996890895613D27E0720758
:1027000040F46115710539F0FC01708F678B80E032
:10271000089582E0089581E00895FC018789908DF5
:102720000895FC01618F80E00895FC01818D08957A
:10273000653630F4662331F0FC01628F80E0089545
:1027400082E0089581E00895FC01828D0895633749
:1027500026E072074CF46E38E9EF7E073CF0FC018E
:10276000748F638F80E0089582E0089581E008957A
:10277000FC01838D948D0895633726E072074CF435
:102780006E38E9EF7E073CF0FC01768F658F80E0C4
:10279000089582E0089581E00895FC01858D968D6D
:1027A0000895633726E0720728F4FC0170A3678F51
:1027B00080E0089582E00895FC01878D90A108953E
:1027C000633726E0720728F4FC0172A361A380E05E
:1027D000089582E00895FC0181A192A108956131DC
:1027E00027E2720740F46115710539F0FC0174A30A
:1027F00063A380E0089582E0089581E00895FC01DC
:1028000083A194A10895FC0165A380E00895FC01D3
:1028100085A10895653630F4662331F0FC0166A386
:1028200080E0089582E0089581E00895FC0186A18A
:102830000895FC0167A380E00895FC0187A1089535
:10284000683030F4662331F0FC0160A780E0089521
:1028500082E0089581E00895FC0180A50895FC01BF
:1028600061A780E00895FC0181A50895FC0162A79D
:1028700080E00895FC0182A50895F8940E947933C0
:1028800060E070E080E090E00E94793378940895F1
:10289000F8940E946533789408950E9465330895F2
:1028A000F8940E946B3360E080E090E00E946B330C
:1028B00078940895F8940E945D3378940895239A4B
:1028C000259A229A81E58CBD2B9A2C9A08958EBD6B
:1028D0000DB407FEFDCF08958FEF8EBD0DB407FE3A
:1028E000FDCF8EB50895ECEBF0E0108282E080938E
:1028F000B8001092B90084E48083089524EA2093FC
:10290000BC00ECEBF0E020812223ECF72091B90031
:10291000287F283019F4FC01108208952091B90015
:10292000287FFC012083089580FD02C048E101C09A
:1029300040E48093BB0084E88093BC00ECEBF0E0C3
:1029400090819923ECF72091B900287F30E0842F03
:1029500090E02817390719F4FB011082089580913F
:10296000B900887FFB01808308958093BB0084E8D1
:102970008093BC00ECEBF0E080818823ECF7809141
:10298000B900887F883219F4FB0110820895809184
:10299000B900887FFB018083089524E82093BC0060
:1029A000ECEBF0E020812223ECF72091B900287FA6
:1029B000283519F4FC01108205C02091B900287F48
:1029C000FC0120838091BB00089584E98093BC00C2
:1029D00008959093C5008093C40088E98093C10056
:1029E00086E08093C2000895E0ECF0E0908195FFCE
:1029F000FDCF8093C6000895E0ECF0E0208125FF34
:102A0000FDCF9093C600E0ECF0E0908195FFFDCF04
:102A10008093C60008950F931F93E0ECF0E02081AF
:102A200025FFFDCF092F1127222733270093C6004A
:102A3000E0ECF0E0208125FFFDCF8C012227332739
:102A40000093C600E0ECF0E0208125FFFDCF072FCA
:102A5000182F292F33270093C600E0ECF0E02081E7
:102A600025FFFDCF6093C6001F910F9108951F931E
:102A7000CF93DF93EC018881882351F010E01F5F32
:102A80000E94F414FE01E10FF11D80818111F7CF46
:102A9000DF91CF911F910895CF93DF93EC01FE0159
:102AA0002491222351F0FC0184910E94F414219678
:102AB000CE01FE0124912111F6CFDF91CF9108952F
:102AC000882321F081E00E94F414089580E00E94A0
:102AD000F41408951F93CF93DF93EC0183E991E001
:102AE0000E947E1463E971E087E90E94941483E9EF
:102AF00091E00E94CD14182F0E94E514CE010E948F
:102B0000FA12137024E0829FC0011124EC01C12B42
:102B100083E991E00E947E1463E971E086E90E94F6
:102B2000941463E971E08C2F0E94B5140E94E5149F
:102B3000DF91CF911F9108951F93CF93DF93EC0105
:102B400083E991E00E947E1463E971E087E90E94C5
:102B5000941483E991E00E94CD14182F0E94E5148B
:102B6000CE010E94A712811103C0C12FC26002C012
:102B7000C12FCD7F83E991E00E947E1463E971E06B
:102B800086E90E94941463E971E08C2F0E94B514C9
:102B90000E94E514DF91CF911F910895CF9383E9AF
:102BA00091E00E947E1463E971E087E90E94941429
:102BB00083E991E00E94CD14C82F0E94E51483E9B7
:102BC00091E00E947E1463E971E086E90E9494140A
:102BD00063E971E08C2F81600E94B5140E94E514B6
:102BE000CF910895CF9383E991E00E947E1463E929
:102BF00071E087E90E94941483E991E00E94CD146A
:102C0000C82F0E94E51483E991E00E947E1463E9D5
:102C100071E086E90E94941463E971E08C2F8E7F45
:102C20000E94B5140E94E514CF9108951F93CF938D
:102C3000DF930E94EE12EC0183E991E00E947E1482
:102C400063E971E087E90E94941483E991E00E94AE
:102C5000CD14182F0E94E5141370C130D10511F462
:102C600010620BC0CA30D10511F4106106C0C6361F
:102C7000D10511F4186001C0146083E991E00E944D
:102C80007E1463E971E086E90E94941463E971E0BF
:102C9000812F0E94B5140E94E514DF91CF911F91FE
:102CA0000895CF93DF93EC0183E991E00E947E14B5
:102CB00063E971E088E50E94941463E971E08CE1B6
:102CC0000E94B51463E971E082E00E94B5140E948D
:102CD000E5140E94F215CE010E946A15CE010E94F1
:102CE0009C15CE010E941616DF91CF910895CF93C7
:102CF000C82F2A98892F80670E9467148C2F0E9402
:102D000067142A9ACF910895CF9329980E946C1442
:102D1000C82F0E946C1490E8C99F9001112490E084
:102D200095958795822B932B299A9F70CF91089523
:102D3000CF92DF92EF92FF920F931F93CF93DF9387
:102D40008B01ECE0F1E0408151816281738140931D
:102D500008015093090160930A0170930B01C0E1CF
:102D6000D1E0488159816A817B81408351836283AC
:102D70007383BC0180E090E00E94CE316883798348
:102D80008A839B83C8010E942C14833009F4DEC01F
:102D900030F4813069F0823009F471C073C285303B
:102DA00009F4A2C108F439C1863009F404C26AC228
:102DB00021E13FE844E258E3609110017091110174
:102DC00080911201909113010E945C326B017C0191
:102DD00021E13FE844EA58E360910C0170910D0154
:102DE00080910E0190910F010E945C329B01AC0119
:102DF000C701B6010E943E316B017C0121E13FE831
:102E000044E258E3609108017091090180910A0140
:102E100090910B010E945C329B01AC01C701B6018D
:102E20000E943E316B017C0127EE38EB4DEF5FE3F2
:102E30006091040170910501809106019091070154
:102E40000E945C329B01AC01C701B6010E943E3179
:102E50006B017C0127E13CE74BE75FE360910001F8
:102E60007091010180910201909103010E945C32F6
:102E70009B01AC01C701B6010E943D3169C22EE140
:102E800031EC4CE35AE36091100170911101809193
:102E90001201909113010E945C326B017C012EE1C2
:102EA00031EC4CEB5AE360910C0170910D01809173
:102EB0000E0190910F010E945C329B01AC01C70191
:102EC000B6010E943E316B017C012EE131EC4CE3F6
:102ED0005AE3609108017091090180910A01909173
:102EE0000B010E945C329B01AC01C701B6010E943C
:102EF0003E316B017C0126E43AE146EF5FE36091ED
:102F000004017091050180910601909107010E94D2
:102F10005C329B01AC01C701B6010E943E316B01DE
:102F20007C012DE431EF4CE65FE36091000170918C
:102F3000010180910201909103010E945C329B018A
:102F4000AC01C701B6010E943D3102C228EA36E455
:102F500047E35BE3609110017091110180911201D0
:102F6000909113010E945C326B017C0128EA36E4E7
:102F700047EB5BE360910C0170910D0180910E01B4
:102F800090910F010E945C329B01AC01C701B60118
:102F90000E943E316B017C0128EA36E447E35BE3A3
:102FA000609108017091090180910A0190910B01D3
:102FB0000E945C329B01AC01C701B6010E943E3108
:102FC0006B017C0124EE36E24CEE5FE3609104017C
:102FD0007091050180910601909107010E945C3279
:102FE0009B01AC01C701B6010E943E316B017C011F
:102FF00023EE3AE24BE55FE360910001709101013D
:1030000080910201909103010E945C329B01AC010E
:10301000C701B6010E943D319BC12DE738E94DE75C
:103020005DE3609110017091110180911201909106
:1030300013010E945C326B017C012DE738E94DEFF2
:103040005DE360910C0170910D0180910E019091F2
:103050000F010E945C329B01AC01C701B6010E94C6
:103060003E316B017C012DE738E94DE75DE360916E
:1030700008017091090180910A0190910B010E9451
:103080005C329B01AC01C701B6010E943E316B016D
:103090007C0121ED38E747E95FE36091040170911D
:1030A000050180910601909107010E945C329B010D
:1030B000AC01C701B6010E943E316B017C0122E8E0
:1030C0003FEA4CED5EE36091000170910101809157
:1030D0000201909103010E945C329B01AC01C70187
:1030E000B6010E943D3134C125E13AEA49E65EE38A
:1030F0006091100170911101809112019091130162
:103100000E945C326B017C0125E13AEA49EE5EE304
:1031100060910C0170910D0180910E0190910F0151
:103120000E945C329B01AC01C701B6010E943E3196
:103130006B017C0125E13AEA49E65EE36091080112
:103140007091090180910A0190910B010E945C32FB
:103150009B01AC01C701B6010E943E316B017C01AD
:103160002DE739E34BE85EE36091040170910501BE
:1031700080910601909107010E945C329B01AC0195
:10318000C701B6010E943E316B017C012DE43BE199
:103190004DE35EE3609100017091010180910201B5
:1031A000909103010E945C329B01AC01C701B60102
:1031B0000E943D31CDC028EB32E747E85EE36091E5
:1031C00010017091110180911201909113010E94E0
:1031D0005C326B017C0128EB32E747E05FE36091F2
:1031E0000C0170910D0180910E0190910F010E94D0
:1031F0005C329B01AC01C701B6010E943E316B01FC
:103200007C0128EB32E747E85EE3609108017091AA
:10321000090180910A0190910B010E945C329B018F
:10322000AC01C701B6010E943E316B017C0125E76C
:1032300030E14DEE5DE360910401709105018091F4
:103240000601909107010E945C329B01AC01C7010D
:10325000B6010E943E316B017C012BEF3DE142E360
:103260005EE36091000170910101809102019091F3
:1032700003010E945C329B01AC01C701B6010E94B0
:103280003D3166C02AE732E64BEB5EE36091100108
:103290007091110180911201909113010E945C3292
:1032A0006B017C012AE732E64BE35FE360910C019E
:1032B00070910D0180910E0190910F010E945C327E
:1032C0009B01AC01C701B6010E943E316B017C013C
:1032D0002AE732E64BEB5EE3609108017091090149
:1032E00080910A0190910B010E945C329B01AC011C
:1032F000C701B6010E943E316B017C012FE736EA1F
:103300004EE85EE360910401709105018091060131
:10331000909107010E945C329B01AC01C701B6018C
:103320000E943D316B017C0122ED36EC4DE35EE302
:10333000609100017091010180910201909103015F
:103340000E945C329B01AC01C701B6010E943D3175
:10335000E4E0F1E0008111812281338100930001DA
:103360001093010120930201309303016083718364
:10337000828393830E94A231CB01DF91CF911F9171
:103380000F91FF90EF90DF90CF900895DF92EF9232
:10339000FF920F931F93CF93DF93F82EE92E04E053
:1033A00010E0C0E1D7E240E0DD24D3948F2D9E2DC4
:1033B000BE010E94BF326115710511F4442361F012
:1033C00080E3860F0E94F4148F2D9E2DBE010E9473
:1033D000BF32F82EE92E4D2D9E01ADECBCEC0E94C3
:1033E0001A33EC01D695C795D695C795D695C7954E
:1033F0000150110901151105C9F680E38F0D0E94D6
:10340000F414DF91CF911F910F91FF90EF90DF9017
:1034100008954F925F926F927F928F929F92AF9298
:10342000BF92CF92DF92EF92FF920F931F93CF93B1
:10343000DF93162F672E782E092FC9E0D0E00F2ECC
:10344000C12CFAECDF2EFAE9EF2EFBE3FF2EF02D74
:10345000512C442443940F2EFAE08F2E912CA12C52
:10346000B12CF02D612F762D872D902FA70196017D
:103470000E94D332211531054105510511F4552023
:1034800089F080E3820F0E94F414612F762D872D3E
:10349000902FA70196010E94D332162F672E782E07
:1034A000092F542CC701B601A50194010E94D33203
:1034B00069017A0121972097A9F680E3810F0E9484
:1034C000F414DF91CF911F910F91FF90EF90DF9057
:1034D000CF90BF90AF909F908F907F906F905F90B4
:1034E0004F900895CF93DF934A9949C01092660098
:1034F00090E020E040E0A0ECB0E0C6ECD0E0E6E6F2
:10350000F0E051E032E08C918823ECF78881992338
:1035100019F0913049F012C0853511F44081952F92
:1035200080818F5F8083EFCF853521F480818F5F2D
:103530008083E9CF20812150932FE5CF30E0241BF9
:103540003109C90199230CF4019695958795840F4B
:10355000C6E6D0E088838CED9CE00E944C15688123
:1035600070E080E090E00E94091A8DE00E94F4145F
:10357000688182E090E00E945014F894FFCFDF91C0
:10358000CF9108950F931F93CF93DF9300D0CDB7C2
:10359000DEB78C011A82198289819A818031974223
:1035A0005CF429813A812F5F3F4F3A832983298137
:1035B0003A8120313742ACF30E9473140E945F14A9
:1035C00081E090E00E94E91481E68093640080E845
:1035D00080BF85B1806C85B988B18FEF88B98BB118
:1035E0008C6F8BB9219A229A209A299A2A9A89E07B
:1035F000809381008FE09DE1909389008093880003
:1036000082E080936F008FEF97E00E947716C801E9
:103610000E9451160E94721A82E090E00E945A1491
:103620008093660078940F900F90DF91CF911F9157
:103630000F9108952F923F924F925F926F927F92D7
:103640008F929F92AF92BF92CF92DF92EF92FF92B2
:103650000F931F93CF93DF9300D01F92CDB7DEB7A8
:103660006B017C0199230CF041C08DE20E94F4149F
:10367000F094E094D094C094C11CD11CE11CF11CC6
:1036800035C00C2D1D2DEB82FA82C701B601A501B4
:1036900094010E94D332211531054105510519F4D9
:1036A0008981882381F080E3820F0E94F414602FC7
:1036B000712F8B819A81A50194010E94D3326B01F5
:1036C0007C01E1E0E983C501B401A30192010E94FC
:1036D000D33249015A01F1E02F1A31082114310483
:1036E00081F680E38C0D0E94F41415C009E010E00F
:1036F0000F2E812CFAEC9F2EFAE9AF2EFBE3BF2EA2
:10370000F02D19820F2EFAE04F2E512C612C712CC6
:10371000F02D1801B6CF0F900F900F90DF91CF9141
:103720001F910F91FF90EF90DF90CF90BF90AF90DF
:103730009F908F907F906F905F904F903F902F90D1
:1037400008952F923F924F925F926F927F928F9245
:103750009F92AF92BF92CF92DF92EF92FF920F9320
:103760001F93CF93DF93CDB7DEB728970FB6F894AA
:10377000DEBF0FBECDBF9E838D837C836B834A8368
:10378000DC015C91541709F497C080ED850F8A30F5
:1037900008F06BC04D01BFEF8B1A9B0AE1E0F0E02F
:1037A000612C712CD12CE12CF12C00E0B12CC12C1E
:1037B00080E090E00AC09F012F5F3F4F40ED450F32
:1037C0004A3008F052C03F01F90155245A945E0E68
:1037D000A52FB0E0D0971B2F110F110B2D2D3E2DD3
:1037E0004F2D502F6B2D7C2DAA2EBB2EC12ED12EEE
:1037F000E12EF12E012F0E945433192FD22EE32EE9
:10380000F42E052FB62EC72E912FAD81BE81A60DA9
:10381000B71D1196AC91A053AA3080F501E00E942B
:103820003B33222E332E442E652E762EA72F8F83E8
:10383000B92F02E00E943B33A22EB32EC42ED52E08
:10384000E62EF72E082F192F222D332D442D562D1D
:10385000672D7A2F8F819B2F0E945433D22EE32E17
:10386000F42E052FB62EC72E09C081E0EB81FC8116
:10387000808360E070E080E090E02EC0D4015D9134
:103880004D01BA815B1721F0EA30F10509F093CFC1
:1038900026EF250D263F80F02D2D3E2D4F2D502F4C
:1038A0006B2D7C2D2F3F3F4F4F4F5F4F61057105B3
:1038B0008105910551F048F081E0AB81BC818C938A
:1038C00060E070E080E090E007C0EB81FC81108256
:1038D0006D2D7E2D8F2D902F28960FB6F894DEBF7C
:1038E0000FBECDBFDF91CF911F910F91FF90EF9051
:1038F000DF90CF90BF90AF909F908F907F906F9010
:103900005F904F903F902F9008952F923F924F924B
:103910005F926F927F928F929F92AF92BF92CF925F
:10392000DF92EF92FF920F931F93CF93DF93CDB768
:10393000DEB729970FB6F894DEBF0FBECDBF9F83C9
:103940008E837C836B834A83DC018C918D3231F4CE
:103950001196BF83AE83B1E0BD8301C01D82EE81AD
:10396000FF815081FA815F1709F487C080ED850FD0
:103970008A3008F06CC08E809F802FEF821A920AE6
:10398000E1E0F0E0612C712CD12CE12CF12C00E075
:10399000B12CC12C80E090E00AC09F012F5F3F4F07
:1039A00040ED450F4A3008F052C03F01F90155245F
:1039B0005A945E0EA52FB0E0D0971B2F110F110B5C
:1039C0002D2D3E2D4F2D502F6B2D7C2DAA2EBB2E35
:1039D000C12ED12EE12EF12E012F0E945433192F2A
:1039E000D22EE32EF42E052FB62EC72E912FAE81A8
:1039F000BF81A60DB71D1196AC91A053AA3080F5DA
:103A000001E00E943B33222E332E442E652E762E6B
:103A1000A72F8887B92F02E00E943B33A22EB32E36
:103A2000C42ED52EE62EF72E082F192F222D332D3A
:103A3000442D562D672D7A2F88859B2F0E94543355
:103A4000D22EE32EF42E052FB62EC72E09C081E00C
:103A5000AB81BC818C9360E070E080E090E064C05A
:103A6000D4015D914D01BA815B1721F0EA30F10577
:103A700009F093CFE9E0E51548F481E0AB81BC8122
:103A80008C9360E070E080E090E04EC0BD81B111A9
:103A900019C02D2D3E2D4F2D502F6B2D7C2D2F3FDE
:103AA0003F4F4F4F5F476105710581059105B9F1A2
:103AB000B0F181E0AB81BC818C9360E070E080E08C
:103AC00090E032C02D2D3E2D4F2D502F6B2D7C2D93
:103AD00021153105410550486105710581059105A4
:103AE00091F088F081E0EB81FC81808360E070E000
:103AF00080E090E019C0AB81BC811C926C2D7D2DC3
:103B00008E2D9F2D11C04D2D5E2D6F2D702FCC242D
:103B1000DD247601C41AD50AE60AF70AECCFCD2CCB
:103B2000DE2CEF2CF02EE7CF29960FB6F894DEBFEF
:103B30000FBECDBFDF91CF911F910F91FF90EF90FE
:103B4000DF90CF90BF90AF909F908F907F906F90BD
:103B50005F904F903F902F9008952F923F924F92F9
:103B60005F926F927F928F929F92AF92BF92CF920D
:103B7000DF92EF92FF920F931F93CF93DF93CDB716
:103B8000DEB729970FB6F894DEBF0FBECDBF3C015C
:103B90007C836B835F834E83922EDC018C918D320C
:103BA00031F4BFEF6B1A7B0AE1E0ED8301C01D82A7
:103BB000F301A081A91509F486C080ED8A0F8A302F
:103BC00008F06AC03196FA83E983E1E0F0E0412C25
:103BD000512CF12C00E0A12CB12CD12CE12C80E057
:103BE00090E05A2F0AC09F012F5F3F4F40ED450FD5
:103BF0004A3008F051C02F01F90188248A948E0EB2
:103C0000A52FB0E0D0971B2F110F110B2F2D302FA8
:103C10004A2D5B2D6D2D7E2DAA2EBB2EC12ED12EB1
:103C2000E12EF12E012F0E945433192FF22E032F73
:103C3000A42EB52ED62EE72E912FD301A40DB51D9F
:103C40001196AC91A053AA3080F501E00E943B335D
:103C5000222E332E442E552E69877887B82FA92F10
:103C600002E00E943B33A22EB32EC42ED52EE62EA8
:103C7000F72E082F192F222D332D442D552D698510
:103C800078858B2F9A2F0E945433F22E032FA42E67
:103C9000B52ED62EE72E09C081E0AB81BC818C9376
:103CA00060E070E080E090E06FC0A981BA815D9132
:103CB000BA83A983591521F0EA30F10509F093CFB1
:103CC000B9E0B81548F481E0EB81FC81808360E0C5
:103CD00070E080E090E058C0FD81F11119C02F2DF7
:103CE000302F4A2D5B2D6D2D7E2D2F3F3F4F4F4F97
:103CF0005F476105710581059105E1F1D8F181E02A
:103D0000EB81FC81808360E070E080E090E03CC06B
:103D10002F2D302F4A2D5B2D6D2D7E2D2115310538
:103D200041055048610571058105910591F088F0C4
:103D300081E0AB81BC818C9360E070E080E090E03A
:103D400023C0EB81FC8110826C2D7D2D8E2D9F2D4B
:103D50001BC04F2D502F6A2D7B2DCC24DD247601E6
:103D6000C41AD50AE60AF70A83E0880DAE81BF813E
:103D70008C93E7CFCF2CD02EEA2CFB2C839483940A
:103D8000EE81FF818082DDCF29960FB6F894DEBFE9
:103D90000FBECDBFDF91CF911F910F91FF90EF909C
:103DA000DF90CF90BF90AF909F908F907F906F905B
:103DB0005F904F903F902F9008950F931F93FC01B9
:103DC000008110E020E030E0418150E060E070E0F0
:103DD000828190E0A0E0B0E0302F22271127002759
:103DE000BA0155274427400F511F621F731F2381BB
:103DF000420F511D611D711DBA2FA92F982F8827C1
:103E00008A019B01080F191F2A1F3B1FC901B80116
:103E10001F910F910895882321F089E50E94F414E1
:103E200003C08EE40E94F4148DE00E94F4140895FF
:103E30008F929F92AF92BF92CF92DF92EF92FF92BA
:103E40004B015C0169017A0181E09CE00E944C1504
:103E5000C501B4010E94091A8CEF9BE00E944C1529
:103E6000C701B6010E94091A88EF9BE00E944C1519
:103E7000FF90EF90DF90CF90BF90AF909F908F908A
:103E800008950F931F93CF93DF938C01EB0185EF80
:103E90009BE00E944C15B801882777FD8095982FEC
:103EA0000E941A1B80EF9BE00E944C15BE018827E0
:103EB00077FD8095982F0E941A1B8CEE9BE00E9444
:103EC0004C15DF91CF911F910F910895882329F010
:103ED00087EE9BE00E944C1504C081EE9BE00E949F
:103EE0004C158BE30E94F4148DE00E94F4140895A5
:103EF0000F931F93CF93DF93EC0186E090E00E9435
:103F00004D148C0185ED9CE00E944C15CE010E9461
:103F1000A012811104C081E40E94F41409C0813010
:103F200021F48DE40E94F41403C082E40E94F4148E
:103F300081ED9CE00E944C158AEC9CE00E944C159F
:103F4000CE010E94A712811104C082E30E94F414E2
:103F500003C083E30E94F4148BE30E94F4148DE009
:103F60000E94F41483EC9CE00E944C15CE010E9448
:103F7000BA12BC0180E090E00E94091A8BE30E9413
:103F8000F4148DE00E94F4148BEB9CE00E944C151D
:103F9000CE010E94EE12BC0180E090E00E94091A5E
:103FA0008BE30E94F4148DE00E94F41483EB9CE0F8
:103FB0000E944C15CE010E94FA12682F70E080E03A
:103FC00090E00E94091A8BE30E94F4148DE00E9495
:103FD000F4148CEA9CE00E944C15CE010E9401135F
:103FE0000E94661F85EA9CE00E944C15CE010E944B
:103FF0001B130E94091A8BE30E94F4148DE00E94A7
:10400000F4148EE99CE00E944C15CE010E943213FC
:10401000BC01882777FD8095982F0E941A1B8BE39F
:104020000E94F4148DE00E94F41485E99CE00E9443
:104030004C15CE010E9446130E94091A8BE30E9480
:10404000F4148DE00E94F4148EE89CE00E944C155C
:10405000CE010E9450130E94661F84E89CE00E94DB
:104060004C15CE010E946413BC01882777FD809512
:10407000982F0E941A1B8BE30E94F4148DE00E947B
:10408000F4148AE79CE00E944C15CE010E9479133B
:10409000BC01882777FD8095982F0E941A1B8BE31F
:1040A0000E94F4148DE00E94F41481E79CE00E94C9
:1040B0004C15CE010E948D13BC0180E090E00E945F
:1040C000091A8BE30E94F4148DE00E94F41488E630
:1040D0009CE00E944C15CE010E9495130E94661F21
:1040E0008EE59CE00E944C15CE010E94A413682F1F
:1040F00070E080E090E00E94091A8BE30E94F414C3
:104100008DE00E94F41483E59CE00E944C15CE01E2
:104110000E94B813BC01882777FD8095982F0E94D4
:104120001A1B8BE30E94F4148DE00E94F41488E4BF
:104130009CE00E944C15CE010E94CD13BC01882743
:1041400077FD8095982F0E941A1B8BE30E94F41430
:104150008DE00E94F4148EE39CE00E944C15CE0189
:104160000E94DC13BC0180E090E00E94091A8BE3FE
:104170000E94F4148DE00E94F41484E39CE00E94F9
:104180004C15CE010E94EB13BC0180E090E00E9430
:10419000091A8BE30E94F4148DE00E94F4148AE261
:1041A0009CE00E944C15CE010E94FF13BC0180E0F0
:1041B00090E00E94091A8BE30E94F4148DE00E94A3
:1041C000F41483E29CE00E944C15B80180E090E07A
:1041D0000E94091A8BE30E94F4148DE00E94F414EB
:1041E0008CE19CE00E944C15CE010E94071491E0E6
:1041F000811101C090E0892F0E94661F84E19CE03C
:104200000E944C15CE010E941614682F70E080E0C9
:1042100090E00E94091A8BE30E94F4148DE00E9442
:10422000F4148CE09CE00E944C15CE010E941D14F9
:104230000E94661F84E09CE00E944C15CE010E9403
:104240002C14682F70E080E090E00E94091A8BE344
:104250000E94F4148DE00E94F4148DE00E94F41486
:10426000DF91CF911F910F910895CF93DF93C8E015
:10427000D0E080E20E94F41421972097D1F7DF91DB
:10428000CF9108958CED9BE00E944C15089588ED28
:104290009BE00E944C1508952F923F924F925F929F
:1042A0006F927F928F929F92AF92BF92CF92DF9246
:1042B000EF92FF920F931F93CF93DF9300D01F9243
:1042C000CDB7DEB78C0186E090E00E9448141C0157
:1042D0008639910530F08CEA94E00E944C1581E01B
:1042E00074C020E2AE014E5F5F4FBE016D5F7F4F35
:1042F000C8010E94AD1D6B017C018B8181115AC0E8
:10430000C6018E58994F853E9C4008F055C08A8161
:1043100020E2AE014F5F5F4FBE016D5F7F4FF8013E
:10432000E80FF11DCF010E94AD1D4B015C018B8197
:10433000811144C0C4018E58994F853E9C4008F0BD
:104340003FC029818A8190E0820F911D2DE0AE014E
:104350004F5F5F4FBE016D5F7F4F800F911F0E94C7
:10436000AD1D2B013C018B8181112CC0C201019735
:10437000803D974048F58101000F111F020D131D6C
:10438000000F111FB601C80108960E943D14B40128
:10439000C8010A960E943D14B201C8010C960E9401
:1043A0003D14B1016F5F7F4F86E090E00E943D14A5
:1043B00080E00BC081E009C081E007C081E005C05A
:1043C00081E003C081E001C081E00F900F900F9069
:1043D000DF91CF911F910F91FF90EF90DF90CF90E1
:1043E000BF90AF909F908F907F906F905F904F9015
:1043F0003F902F9008954F925F926F927F928F928D
:104400009F92AF92BF92CF92DF92EF92FF920F9363
:104410001F93CF93DF93CDB7DEB728970FB6F894ED
:10442000DEBF0FBECDBF8C0186E090E00E94481435
:104430005C0120E2AE014D5F5F4FBE016C5F7F4FBC
:10444000C8010E94AD1D6B017C018C81811179C076
:10445000AC14BD0430F488E994E00E944C1581E06E
:104460007DC08B8120E2AE014E5F5F4FBE016C5F6D
:104470007F4FF801E80FF11DCF010E94AD1D4B01E8
:104480005C018C8181115FC0C4018E58994F853EBB
:104490009C4008F05AC02A818B8190E0820F911DC8
:1044A00020E2AE014F5F5F4FBE016C5F7F4F800F18
:1044B000911F0E94AD1D2B013C018C81811147C0D1
:1044C000C2018E58994F853E9C4008F042C02A8117
:1044D0008B8190E0820F911D2981820F911D2DE02B
:1044E000AE014E5F5F4FBE016C5F7F4F800F911F2B
:1044F0000E94AD1D6D837E838F8398878C8181118F
:104500002AC08D819E810197803D974030F5C6017C
:10451000880F991FC80ED91E8601000F111FB40104
:10452000C80102960E943D14B201C80104960E947F
:104530003D146D817E81C80106960E943D1480E085
:104540000DC081E00BC081E009C081E007C081E0BF
:1045500005C081E003C081E001C081E028960FB66C
:10456000F894DEBF0FBECDBFDF91CF911F910F91A9
:10457000FF90EF90DF90CF90BF90AF909F908F9083
:104580007F906F905F904F900895CF92DF92EF925F
:10459000FF920F931F93CF93DF938C01EB0169017F
:1045A0007A01CB010E94A012823009F04FC08091A5
:1045B0007901823009F045C080917B0181111DC0D5
:1045C000E0FE0EC0F701F595E795EC0FFD1F019099
:1045D000F081E02DEC0DFD1D0190F081E02D01C07A
:1045E000F601C7019595879560E08C0F9D1F099591
:1045F00080E00E94F41480E06FC08130E9F4E0FEB6
:104600000EC0F701F595E795EC0FFD1F0190F081C5
:10461000E02DEC0DFD1D0190F081E02D01C0F601B3
:10462000C7019595879561E08C0F9D1F099580E0E6
:104630000E94F41480E050C083E00E94F41480E0F3
:104640004BC083E00E94F41480E046C0F8018081F2
:104650008935E9F481818D30D1F5E0FE0EC0F70196
:10466000F595E795EC0FFD1F0190F081E02DEC0D25
:10467000FD1D0190F081E02D01C0F601C701959567
:10468000879561E08C0F9D1F099580E025C08E34D1
:1046900001F5F80181818D30F1F4E0FE0EC0F701E3
:1046A000F595E795EC0FFD1F0190F081E02DEC0DE5
:1046B000FD1D0190F081E02D01C0F601C701959527
:1046C000879560E08C0F9D1F099580E005C081E013
:1046D00003C081E001C081E0DF91CF911F910F9174
:1046E000FF90EF90DF90CF900895AF92BF92CF925E
:1046F000DF92EF92FF920F931F93CF93DF931F925E
:10470000CDB7DEB75C018B0169017A01CB010E9454
:10471000A012823031F5809179018230E9F4E0FE17
:104720000EC0F701F595E795E00FF11F0190F081BC
:10473000E02DEC0DFD1D0190F081E02D01C0F60192
:10474000C7019595879560917B01800F911F099511
:1047500089830E94F41403C083E00E94F4149981B9
:1047600027C04DE0BE016F5F7F4FC5010E94A11BB6
:10477000898181111CC0E0FE0EC0F701F595E79517
:10478000E00FF11F0190F081E02DEC0DFD1D019077
:10479000F081E02D01C0F601C70195958795800F46
:1047A000911F099591E0811103C090E001C091E053
:1047B000892F0F90DF91CF911F910F91FF90EF9074
:1047C000DF90CF90BF90AF900895AF92BF92CF92FD
:1047D000DF92EF92FF920F931F93CF93DF931F927D
:1047E000CDB7DEB75C018B0169017A01CB010E9474
:1047F000A012823081F580917901833039F5E0FE95
:104800000EC0F701F595E795E00FF11F0190F081DB
:10481000E02DEC0DFD1D0190F081E02D01C0F601B1
:10482000AAE7B1E011966C91119770E0762F662798
:1048300012968C91680F711DC70195958795800F11
:10484000911F099589830E94F41403C083E00E949C
:10485000F414998128C04DE0BE016F5F7F4FC50100
:104860000E94851C298121111DC0E0FE0EC0F701A8
:10487000F595E795E00FF11F0190F081E02DEC0D2B
:10488000FD1D0190F081E02D01C0F60197013595E5
:104890002795C801820F931F099591E0811103C0EC
:1048A00090E001C091E0892F0F90DF91CF911F918F
:1048B0000F91FF90EF90DF90CF90BF90AF90089551
:1048C000AF92BF92CF92DF92EF92FF920F931F931E
:1048D000CF93DF931F92CDB7DEB75C018B016901E7
:1048E0007A01CB010E94A012823081F5809179017A
:1048F000833039F5E0FE0EC0F701F595E795E00F3E
:10490000F11F0190F081E02DEC0DFD1D0190F08173
:10491000E02D01C0F601AAE7B1E011966C91119764
:1049200070E0762F662712968C91680F711DC70173
:1049300095958795800F911F099589830E94F4149E
:1049400003C083E00E94F414998128C04DE0BE01A9
:104950006F5F7F4FC5010E94A11B298121111DC0DE
:10496000E0FE0EC0F701F595E795E00FF11F01900D
:10497000F081E02DEC0DFD1D0190F081E02D01C0D6
:10498000F601970135952795C801820F931F099568
:1049900091E0811103C090E001C091E0892F0F9058
:1049A000DF91CF911F910F91FF90EF90DF90CF900B
:1049B000BF90AF900895AF92BF92CF92DF92EF92E7
:1049C000FF920F931F93CF93DF931F92CDB7DEB764
:1049D0005C018B0169017A01CB010E94A012823037
:1049E00051F580917901853009F5E0FE0DC0F701A0
:1049F000F595E795E00FF11F0190F081E02DEC0DAA
:104A0000FD1DA080B18001C056018BE791E00E949E
:104A1000DD1EAB01BC01C70195958795800F911FE5
:104A2000F501099589830E94F41403C083E00E9474
:104A3000F41499812AC04DE0BE016F5F7F4FC5011C
:104A40000E94A11B298121111FC0E0FE0EC0F701A9
:104A5000F595E795E00FF11F0190F081E02DEC0D49
:104A6000FD1D0190F081E02D01C0F6019701359503
:104A70002795AB01BC01C801820F931F099591E0F6
:104A8000811103C090E001C091E0892F0F90DF9168
:104A9000CF911F910F91FF90EF90DF90CF90BF903B
:104AA000AF9008958F929F92BF92CF92DF92EF9234
:104AB000FF920F931F93CF93DF931F92CDB7DEB773
:104AC000F82E8B0181E0898380917801811132C0B9
:104AD0008F2D8F7D843569F4CB010E94A012811146
:104AE00004C081E40E94F4147FC78DE40E94F41492
:104AF0007BC78C3449F460E0C8010E94361461E041
:104B0000C8010E942F1470C7833549F461E0C801C1
:104B10000E94361461E0C8010E942F1465C78134D9
:104B200049F462E0C8010E94361461E0C8010E94A5
:104B30002F145AC78F2D0E94F414E091780181E060
:104B40008E0F80937801F0E0E658FE4FF0828931B5
:104B500048F0909192019D3029F0109278010E94C6
:104B6000422142C790917A019D3009F091C0109284
:104B7000780187EC9BE00E944C1583E99BE00E9442
:104B80004C15C8010E94A012811104C081E40E944A
:104B9000F4140CC0C8010E94A012813021F48DE4ED
:104BA0000E94F41403C082E40E94F4148DE00E9479
:104BB000F4148FE69BE00E944C15C8010E94A712D6
:104BC000811104C082E30E94F41403C083E30E94B5
:104BD000F4148DE00E94F41484E59BE00E944C15CF
:104BE00028EE33E040E050E061E070E080E090E0EB
:104BF0000E94181FC8010E94BA12BC0180E090E018
:104C00000E94091A8DE00E94F41481E39BE00E9447
:104C10004C158CE19BE00E944C1585E09BE00E94C6
:104C20004C158FEE9AE00E944C1582ED9AE00E949E
:104C30004C1588EB9AE00E944C1585EA9AE00E9498
:104C40004C1581E99AE00E944C1584E191E00E94A4
:104C500037158DE00E94F41484E89AE00E944C1508
:104C60008AE191E00E9437158DE00E94F41488E6F5
:104C70009AE00E944C158EE49AE00E944C158DE259
:104C80009AE00E944C158BE19AE00E944C15ACC64C
:104C9000282F30E0F901E758FE4F90819D3009F050
:104CA000A3C61216130684F4EAE7F1E0C901865898
:104CB0009E4F20813FE9320F3A3110F42052208379
:104CC0003196E817F907A9F71092780180917A01D7
:104CD000813369F590917B01903209F064C0809135
:104CE0007C01813451F480917D018D30E9F460E0E4
:104CF000C8010E949C12198275C68D3451F48091AE
:104D00007D018D3089F461E0C8010E949C121982F6
:104D100069C6823449F480917D018D3029F462E0C6
:104D2000C8010E949C1260C681E0898358C6823304
:104D300041F590917B01903209F0C5C080917C01D2
:104D4000823369F480917D018D30C1F460E0C80147
:104D50000E94A312C8010E949C15198243C6833386
:104D600069F480917D018D3049F461E0C8010E94B1
:104D7000A312C8010E949C15198234C681E0898360
:104D80002EC6833381F490917B01903209F000C1EB
:104D90002AEA32E140E050E0B8018CE791E00E945D
:104DA0006024898319C6843309F08DC090917B01FA
:104DB0009D3009F065C18BE09AE00E944C1586EFAA
:104DC00099E00E944C152FEF33E040E050E061E0A5
:104DD00070E080E090E00E94181FC8010E94EE126F
:104DE000BC0180E090E00E94091A8DE00E94F4145A
:104DF0000E94352188EE99E00E944C15C8010E945E
:104E0000EE12DC0120EA36E841E050E00E94303347
:104E10002FEF33E040E050E00E94F532CA01B901C3
:104E20000E94091A81EE99E00E944C150E943521DA
:104E300083EC99E00E944C158BE999E00E944C1597
:104E40000F2EF6E0EF2EF12CF02D6894DD24D5F82E
:104E5000C8010E94FA128D2121F081E30E94F4140E
:104E600003C080E30E94F414D69421E0E21AF10812
:104E7000E114F10469F78DE00E94F4140E943521D9
:104E80008DE899E00E944C150E9435218EE799E04B
:104E90000E944C150E94352180E799E00E944C1534
:104EA0000E94352183E699E00E944C150E9435212D
:104EB00087E599E00E944C150E9435218EE399E028
:104EC0000E944C1591C5853309F062C090917B0119
:104ED0009D3009F05AC187E299E00E944C1589E0A3
:104EE00099E00E944C15C8010E9401130E940B1FFB
:104EF00082EF98E00E944C1520E035E34CE050E052
:104F000061E070E080E090E00E94181FC8010E94FC
:104F10001B130E94091A8DE00E94F41488ED98E09A
:104F20000E944C1562E776E08EE899EF0E94411FDF
:104F3000C8010E943213BC01882777FD8095982F05
:104F40000E941A1B8DE00E94F41486EC98E00E94E7
:104F50004C1520E035E34CE050E060E070E0CB0120
:104F60000E94181FC8010E9446130E94091A8DE072
:104F70000E94F4148FE998E00E944C15C8010E9429
:104F800050130E940B1F8DE898E00E944C152CC511
:104F9000863309F075C090917B019D3009F096C170
:104FA00084E798E00E944C158FE598E00E944C152C
:104FB00062E776E08EE899EF0E94411FC8010E94E7
:104FC0006413BC01882777FD8095982F0E941A1BD7
:104FD0008DE00E94F4148CE498E00E944C1562E786
:104FE00076E08EE899EF0E94411FC8010E94791374
:104FF000BC01882777FD8095982F0E941A1B8DE0B1
:105000000E94F41488E398E00E944C1520ED37E0EC
:1050100040E050E061E070E080E090E00E94181F06
:10502000C8010E948D13BC0180E090E00E94091A23
:105030008DE00E94F41485E298E00E944C15C801AE
:105040000E9495130E940B1F80E198E00E944C156E
:1050500024E630E040E050E061E070E080E090E085
:105060000E94181FC8010E94A413682F70E080E0FE
:1050700090E00E94091A8DEF97E00E944C15B4C48D
:10508000873309F082C090917B019D3009F07EC189
:1050900085EE97E00E944C1580ED97E00E944C153C
:1050A00062E776E08EE899EF0E94411FC8010E94F6
:1050B000B813BC01882777FD8095982F0E941A1B92
:1050C0008DE00E94F4148DEB97E00E944C1562E78E
:1050D00076E08EE899EF0E94411FC8010E94CD132F
:1050E000BC01882777FD8095982F0E941A1B8DE0C0
:1050F0000E94F41480EA97E00E944C1522E736E003
:1051000040E050E060E070E0CB010E94181FC80151
:105110000E94DC13BC0180E090E00E94091A8DE03F
:105120000E94F41483E897E00E944C1522E736E0D1
:1051300040E050E060E070E0CB010E94181FC80121
:105140000E94EB13BC0180E090E00E94091A8DE000
:105150000E94F41484E697E00E944C1520E137E2A7
:1051600040E050E061E070E080E090E00E94181FB5
:10517000C8010E94FF13BC0180E090E00E94091A60
:1051800081E597E00E944C152FC4883309F09EC03A
:1051900090917B019D3009F0CAC182E397E00E94A3
:1051A0004C1586E097E00E944C1582ED96E00E9437
:1051B0004C158BEB96E00E944C1583EA96E00E941A
:1051C0004C158CE896E00E944C1589E796E00E9409
:1051D0004C15C8010E94071491E0811101C090E0B4
:1051E000892F0E940B1F84E696E00E944C1524E64E
:1051F00030E040E050E061E070E080E090E00E944C
:10520000181FC8010E941614682F70E080E090E01B
:105210000E94091A81E696E00E944C1580E496E00F
:105220000E944C1566E970E080E090E00E941A1B35
:105230008CE396E00E944C1586E090E00E944814B2
:10524000BC0180E090E00E94091A80E396E00E9491
:105250004C156EE879EF8FEF9FEF0E941A1B8BE2DF
:1052600096E00E944C1562E776E080E090E00E94B4
:105270001A1B80E296E00E944C156EE879EF8FEFE2
:105280009FEF0E941A1B8BE196E00E944C1562E78B
:1052900076E080E090E00E941A1B8FE096E00E948A
:1052A0004C1561E070E080E090E00E94091A8AE00D
:1052B00096E00E944C1560ED77E080E090E00E945F
:1052C000091A8FEF95E00E944C158EC3893309F0BF
:1052D0005DC090917B019D3009F0B9C283EE95E0ED
:1052E0000E944C1580EC95E00E944C15C8010E946C
:1052F0001D140E940B1F8CEA95E00E944C1527E0BC
:1053000030E040E050E061E070E080E090E00E943A
:10531000181FC8010E942C14682F70E080E090E0F4
:105320000E94091A8DE00E94F4140E94352181EA3E
:1053300095E00E944C150E94352187E995E00E9476
:105340004C150E9435218DE895E00E944C150E9475
:10535000352183E895E00E944C150E94352189E7AC
:1053600095E00E944C150E9435218FE695E00E9441
:105370004C150E94352185E695E00E944C150E944F
:1053800035218FE495E00E944C152EC3813309F03E
:10539000CEC080917B01803341F490917C019D309F
:1053A000C9F4C8010E94781F1FC3813399F49091FA
:1053B0007C01903209F041C02EEB32E140E050E038
:1053C000B8018DE791E00E9460248983C8010E94A2
:1053D000161602C3823389F590917C01903209F050
:1053E0003DC0809183018D3019F081E0898321C017
:1053F000EDE7F1E085E090E070E060E0A1E021E021
:1054000030E04191413349F4A901082E02C0440F14
:10541000551F0A94E2F7642B03C0403309F07A2F3A
:10542000019778F77983711104C0C8010E94F212C4
:105430008983C8010E946A15CFC2833379F49091A1
:105440007C019032E1F42DEF32E140E050E0B80110
:105450008DE791E00E94C5228983BEC2843379F42E
:1054600090917C019032E1F424E033E140E050E09F
:10547000B8018DE791E00E94DB248983ADC28533BA
:1054800079F490917C019032E1F421E233E140E043
:1054900050E0B8018DE791E00E94E52389839CC22A
:1054A000863379F490917C019032E1F426E333E184
:1054B00040E050E0B8018DE791E00E94DB24898351
:1054C0008BC2873379F490917C019032E9F42CE41B
:1054D00033E140E050E0B8018DE791E00E94C52241
:1054E00089837AC2883381F480917C01803209F00B
:1054F00070C223E533E140E050E0B8018DE791E070
:105500000E94E523898368C2893309F062C28091D1
:105510007C01803209F05DC228E633E140E050E0D2
:10552000B8018DE791E00E94E523898355C282335B
:1055300009F08DC180917B01803379F490917C01D9
:105540009032E1F42DE733E140E050E0B8018DE71F
:1055500091E00E94602489833FC2813379F4909165
:105560007C019032E9F421E933E140E050E0B801F8
:105570008DE791E00E94C52289832EC2823381F497
:1055800090917C01903209F05BC028E933E140E062
:1055900050E0B8018DE791E00E94752389831CC219
:1055A000833309F04DC090917C01903209F098C08E
:1055B0004DE0BE016F5F7F4F8DE791E00E94851C3B
:1055C0006B017C018981882319F081E0898307C2FE
:1055D000C8010E94DC13AA2797FDA095BA2F8C0D55
:1055E0009D1DAE1DBF1D83379640A105B1053CF042
:1055F0008FE395E00E944C1581E08983F0C1C801DA
:105600000E94DC13AA2797FDA095BA2FA701960147
:10561000281B390B4A0B5B0BDA01C9018E38994FF5
:10562000AF4FBF4F3CF480E395E00E944C1581E002
:105630008983D5C1B601C8010E94A7138983CCC153
:10564000843309F04DC090917C01903209F0C2C0C2
:105650004DE0BE016F5F7F4F8DE791E00E94851C9A
:105660006B017C018981882319F081E08983B7C1AE
:10567000C8010E94DC13AA2797FDA095BA2F8C0DB4
:105680009D1DAE1DBF1D83379640A105B1053CF0A1
:1056900082E295E00E944C1581E08983A0C1C80197
:1056A0000E94DC13AA2797FDA095BA2FA7019601A7
:1056B000281B390B4A0B5B0BDA01C9018E38994F55
:1056C000AF4FBF4F3CF485E195E00E944C1581E05F
:1056D000898385C1B601C8010E94BC1389837CC13E
:1056E000853309F077C090917C01903209F083C036
:1056F0004DE0BE016F5F7F4F8DE791E00E94A11BDF
:105700006B017C018981882319F081E0898367C15D
:10571000C8010E94B813AA2797FDA095BA2F8C0D37
:105720009D1DAE1DBF1D83379640A105B1053CF000
:1057300085E095E00E944C1581E0898350C1C80145
:105740000E94B813AA2797FDA095BA2F8C199D091E
:10575000AE09BF098E38994FAF4FBF4F3CF486EF6B
:1057600094E00E944C1581E0898339C1C8010E94F0
:10577000CD13AA2797FDA095BA2F8C0D9D1DAE1DA8
:10578000BF1D83379640A105B1053CF088EE94E03B
:105790000E944C1581E0898322C1C8010E94CD136B
:1057A000AA2797FDA095BA2F8C199D09AE09BF09AC
:1057B0008E38994FAF4FBF4F3CF48BED94E00E9471
:1057C0004C1581E089830BC1B601C8010E94D11339
:1057D000898302C1863379F490917C019032E1F49F
:1057E00020EE33E140E050E0B8018DE791E00E9407
:1057F00060248983F1C0873379F490917C019032E1
:10580000C1F42FEE33E140E050E0B8018DE791E0C4
:105810000E9460248983E0C0883359F480917C0120
:10582000803209F0D6C08DE791E00E944C21898337
:10583000D3C0893309F0CDC080917C01803209F05A
:10584000C8C08DE791E00E94FB218983C5C08333E6
:1058500009F0BFC080917B018033A1F490917C015D
:105860009D30F9F486E090E00E944814882341F0CE
:105870009927BC016150710986E090E00E943D14B7
:105880001982B0C0813369F490917C019D3009F098
:105890005CC060E070E086E090E00E943D141982F8
:1058A000A1C0823309F051C090917C019D3009F074
:1058B0005DC086E090E00E9448148C01009729F4B6
:1058C0008DEC94E00E944C158FC089EB94E00E940F
:1058D0004C15B12C8B2D90E09C01220F331F820FB1
:1058E000931F7C01EE0CFF1CC70108960E94481410
:1058F0004C01C7010A960E9448146C01B401882724
:1059000077FD8095982F0E941A1B80E20E94F41464
:10591000B601882777FD8095982F0E941A1B80E298
:105920000E94F414C7010C960E944814BC0180E048
:1059300090E00E94091A8DE00E94F414B3948B2D1C
:1059400090E08017910730F24FC0833379F4909143
:105950007C019032E1F423E034E140E050E0B80112
:105960008DE791E00E94C522898336C0843379F4A3
:1059700090917C019032E1F42AE034E140E050E083
:10598000B8018DE791E00E947523898325C0853396
:1059900079F480917C018032E1F429E134E140E046
:1059A00050E0B8018DE791E00E94C522898314C0C0
:1059B000863379F480917C01803259F420E234E11D
:1059C00040E050E0B8018DE791E00E9475238983A3
:1059D00003C081E0898303C08981882319F00E9474
:1059E000422102C00E9447210F90DF91CF911F9169
:1059F0000F91FF90EF90DF90CF90BF909F908F908E
:105A0000089590917701911114C0E091790191E08E
:105A10009E0F90937901F0E0E658FE4F8083993015
:105A200040F01092790184E00E94F41481E08093A8
:105A300077010895CF92DF92EF92FF920F931F9319
:105A4000CF93DF93EC0180917701882319F01092B6
:105A500077010AC440917A0150E0FA013197E437A6
:105A6000F10508F0FCC3EA5BFF4F0C9414338091FE
:105A70007901813021F482E40E94F414F3C383E0BD
:105A80000E94F414EFC380917901813049F460E001
:105A9000CE010E94361461E0CE010E942F14E2C3B1
:105AA00083E00E94F414DEC380917901813049F4CF
:105AB00061E0CE010E94361461E0CE010E942F14F5
:105AC000D1C383E00E94F414CDC380917901813069
:105AD00049F462E0CE010E94361461E0CE010E94DA
